000000HL610800186               PETER                                                       WIERZBA                                                                     C4511 93RD DR                                                                                                            LUBBOCK                     TX794245113        I                                                  O                               1007489694     666389                               
11111111111111111                                                                                                                                                       C8650 FREEPORT PARKWAY                                                                                                   IRVING                      OH75063            I                                                  O                               1033460612     172026735      F201112ALJ201112ALP201112ALG200905TXM199906MDM199801ALF199407CTH199407CTG199111FL
11111111111111111               PATRICIA                      M                             IBBERSON                                                                    C331 N CHURCH ST                                                                                                         VIRDEN                      IL626901216        I                                                  O                               1007613166     151551297      F201112ALJ201112ALP201112ALG200905TXM199906MDM199801ALF199407CTH199407CTG199111FL
12345678901234567               DAVID                                                       SPRINGER                                                                    C9374 SMITHSON LN                                                                                                        BRENTWOOD                   TN370278753        I                                                  O                               1031529903     146445958      J201709ORH201407WIK201001WYH200510WAI200308WVM200308WVL200008NHI200001IDJ199903NHJ199707OH
12345678901234567               FIRNAME                                                     LANANR                                                                      C1 NISSAN WAY                                                                                                            FRANKLIN                    TN370676367        I                                                  O                               1031219024     173133837      J201709ORH201407WIK201001WYH200510WAI200308WVM200308WVL200008NHI200001IDJ199903NHJ199707OH
12345678901234567               ANDREA                                                      HINKLE                                                                      C111111                                                                                                                  BBBB                        MO63143            I                                                  O                               1034239611     151610247      J201709ORH201407WIK201001WYH200510WAI200308WVM200308WVL200008NHI200001IDJ199903NHJ199707OH
12345678901234567               HSHSHS                                                      BSBSBSH                                                                     CNSNSHS                                                                                                                  HEJSJ                       AL12345            I                                                  O                               1024105052     168627667      J201709ORH201407WIK201001WYH200510WAI200308WVM200308WVL200008NHI200001IDJ199903NHJ199707OH
12345678901234567               JG                                                          HUG                                                                         CHA                                                                                                                      JH                          AL76786            I                                                  O                               1035418681     175781572      J201709ORH201407WIK201001WYH200510WAI200308WVM200308WVL200008NHI200001IDJ199903NHJ199707OH
12345678901234567                                                                                                                                                       C                                                                                                                                                                       I                                                  O                               1022099655     167391990      J201709ORH201407WIK201001WYH200510WAI200308WVM200308WVL200008NHI200001IDJ199903NHJ199707OH
12345678901234567               MUKHALAD                                                    FARIS                                                                       C123STREET                                                                                                               T                           CA90201            I                                                  O                               1025238923     169316705      J201709ORH201407WIK201001WYH200510WAI200308WVM200308WVL200008NHI200001IDJ199903NHJ199707OH
12345678901234567               GAH                                                         HE                                                                          CBABB                                                                                                                    BD                          CO37067            I                                                  O                               1024105047     168627661      J201709ORH201407WIK201001WYH200510WAI200308WVM200308WVL200008NHI200001IDJ199903NHJ199707OH
12345678901234567               FNAME                                                       LNANE                                                                       C1 NISSAN EAT                                                                                                            FRANKLIN                    AZ37067            I                                                  O                               1024230641     168702340      J201709ORH201407WIK201001WYH200510WAI200308WVM200308WVL200008NHI200001IDJ199903NHJ199707OH
12345678901234567               FNAME                                                       GOBBLE                                                                      CTABBY                                                                                                                   GUNN                        AK06588            I                                                  O                               1024319136     168759767      J201709ORH201407WIK201001WYH200510WAI200308WVM200308WVL200008NHI200001IDJ199903NHJ199707OH
12345678901234567               BEN                                                         CASTROGIOVANNI                                                              C6862 163RD PL SE                                                                                                        BELLEVUE                    WA980065670        I                                                  O                               1009435331     158805320      J201709ORH201407WIK201001WYH200510WAI200308WVM200308WVL200008NHI200001IDJ199903NHJ199707OH
12345678901234567               JAIME                                                       JSSNSJD                                                                     C7 KILMUIR AVENUE                                                                                                        BELFAST                     VT18283            I                                                  O                               1024941445     169131399      J201709ORH201407WIK201001WYH200510WAI200308WVM200308WVL200008NHI200001IDJ199903NHJ199707OH