01CP1F1-9N20628            20/10 Products, Inc.     3049 Industrial Way NE                            Salem                    OR97301    50339920105033710007999999999   35252104000006066201611172016111720211117 060 065-00516UCA       F30L      20220517 0029239 0000000 0000000 0697135 0000000 0000000000                20220421  20211122    0697135000000          00000000  0000000               00000000                000000000000000000000000       00000000               0000000  7218B01
01CP1F1-9N20627            20/10 Products, Inc.     3049 Industrial Way NE                            Salem                    OR97301    50339920105033710007999999999   35252104000006066201611172016111720211117 060 065-00516UCA       F30L      20220517 0029239 0000000 0000000 0697135 0000000 0000000000                20220421  20211122    0697135000000          00000000  0000000               00000000                000000000000000000000000       00000000               0000000  7218B01
01CP1F1-9N20614            20/10 Products, Inc.     3049 Industrial Way NE                            Salem                    OR97301    50339920105033710007999999999   35252104000006066201611172016111720211117 060 065-00516UCA       F30L      20220517 0029239 0000000 0000000 0697135 0000000 0000000000                20220421  20211122    0697135000000          00000000  0000000               00000000                000000000000000000000000       00000000               0000000  7218B01
01CP1F1-9N21361            20/10 Products, Inc.     3049 Industrial Way NE                            Salem                    OR97301    50339920105033710007999999999   37733229000006066201710302017103020221030 060 053 00717UCA       F35L      20220430 0031193 0000000 0218351 0738820 0000000 0000000000                20220421              0738820000000          00000000  0000000               00000000                000000000000000000000000       00000000               0000000  7218B01
01AP1F2-9U22091            4FRONT ENGINEERED SOLUTIOW183 S8253 RACINE AVE                             MUSKEGO                  WI53150    2627513787          999999999   37384285000006011201708042017080420220804 060 056 00417UCA       A50L      20220504 0032800 0000000 0131200 0870000 0000000 0000000000                20220421              0870000000000          00000000  0000000               00000000                000000000000000000000000       00000000               0000000  7218B05
01CO1F2-9W0910             50% LESS & MORE STORE INC10637 HWY 431                                     ALBERTVILLE              AL35950    2568782356          999999999   30396380000006026201309302013093020180930 060 102-04213NISS      F50L      20220430 0033716 0000000 0000000 0651290 0000000 0000000000                20220421  20181015    0651290000000          00000000  0000000               00000000                000000000000000000000000       00000000               0000000  7218B05
01TMX250-0392-9977FL       A & J CATALANO FRUIT, LEM1650 S 83RD STREET                                WEST ALLIS               WI53214    41447689624144768962999999999   37870008000006011201710262017102620221026 060 053 00717CLRK      TMX2      20220426 0055030 0000000 0385210 0000000 0000000 0000000000                20220421              0000000000000          00000000  0000000               00000000                000000000000000000000000       00000000               0000000  7318B20
01UG1F2-9L21797            A & S LANDSCAPE MATERIALS580 JACOBY STREET                                 SAN RAFAEL               CA94901    4154561381          999999999   38724737000006227201804102018041020230410 060 048 01218UCA       P60L      20220510 0060522 0000000 0726264 0000000 0000000 0000000000                20220421              0000000000000          00000000  0000000               00000000                000000000000000000000000       00000000               0000000  7318B20
01CP1F2-9W23291            A-INTERNATIONAL DISTRIBUT13103 BAY PARK RD                                 PASADENA                 TX77507    2812919494          999999999   36385561000006102201704242017042420220424 060 059 00117UCA       F50L      20220424 0031900 0000000 0031900 0678230 0000000 0000000000                20220421  20220408    0678230000000          00000000  0000000               00000000                000000000000000000000000       00000000               0000000  7218B01
01CP1F2-9W23260            A-INTERNATIONAL DISTRIBUT13103 BAY PARK RD                                 PASADENA                 TX77507    2812919494          999999999   36385561000006102201704242017042420220424 060 059 00117UCA       F50L      20220424 0031900 0000000 0031900 0678230 0000000 0000000000                20220421  20220408    0678230000000          00000000  0000000               00000000                000000000000000000000000       00000000               0000000  7218B01
01CP1F2-9W23327            A-INTERNATIONAL DISTRIBUT13103 BAY PARK RD                                 PASADENA                 TX77507    2812919494          999999999   36385561000006102201704242017042420220424 060 059 00117UCA       F50L      20220424 0031900 0000000 0031900 0678230 0000000 0000000000                20220421  20220408    0678230000000          00000000  0000000               00000000                000000000000000000000000       00000000               0000000  7218B01
01CP1F2-9W24870            A-INTERNATIONAL DISTRIBUT13103 BAY PARK RD                                 PASADENA                 TX77507    2812919494          999999999   36523507000006102201706202017062020220620 060 058 00217UCA       F50L      20220520 0031900 0000000 0063800 0774430 0000000 0000000000                20220421              0774430000000          00000000  0000000               00000000                000000000000000000000000       00000000               0000000  7218B01
01CP1F2-9W24891            A-INTERNATIONAL DISTRIBUT13103 BAY PARK RD                                 PASADENA                 TX77507    2812919494          999999999   37347001000006102201710262017102620221026 060 053 00717UCA       F50L      20220426 0031900 0000000 0223300 0774275 0000000 0000000000                20220421              0774275000000          00000000  0000000               00000000                000000000000000000000000       00000000               0000000  7218B01
01CUG1F2-9Q3028            A-INTERNATIONAL DISTRIBUT13103 BAY PARK RD                                 PASADENA                 TX77507    2812919494          999999999   37347001000006102201710262017102620221026 060 053 00717UCA       C65L      20220426 0041192 0000000 0288344 0968125 0000000 0000000000                20220421              0968125000000          00000000  0000000               00000000                000000000000000000000000       00000000               0000000  7218B01
01CP1F2-9W25751            A-INTERNATIONAL DISTRIBUT13103 BAY PARK RD                                 PASADENA                 TX77507    2812919494          999999999   37879275000006102201801022018010220230102 060 051 00917UCA       F50L      20220502 0031830 0000000 0286470 0761397 0000000 0000000000                20220421              0761397000000          00000000  0000000               00000000                000000000000000000000000       00000000               0000000  7218B01
01CP1F2-9W27272            A-INTERNATIONAL DISTRIBUT13103 BAY PARK RD                                 PASADENA                 TX77507    2812919494          999999999   38667332000006102201804062018040620230406 060 048 01218UCA       F50L      20220506 0032501 0000000 0390012 0769430 0000000 0000000000                20220421              0769430000000          00000000  0000000               00000000                000000000000000000000000       00000000               0000000  7218B01
01J1F4-981594              A. W. CHESTERTON COMPANY 500 Unicorn Park                                  WOBURN                   MA01801              7814812299999999999   35613339000006095201704262017042620210426 048 059-01117UCA       00YL      20220426 0065930 0000000 0000000 1953010 0000000 0000000027                20220421  20210518    1953010000000          00000000  0000000               00000000                000000000000000000000000       00000000               0000000  7218B01
01CP1F1-9N21162            ABC BOX COMPANY, INC.    20625 ENTERPRISE AVENUE                           BROOKFIELD               WI53045              2627898066999999999   37431787000006011201708162017081620220816 060 056 00417UCA       F35L      20220516 0027240 0000000 0108960 0739520 0000000 0000000000                20220421              0739520000000          00000000  0000000               00000000                000000000000000000000000       00000000               0000000  7218B05
01CP1F1-9N21163            ABC BOX COMPANY, INC.    20625 ENTERPRISE AVENUE                           BROOKFIELD               WI53045              2627898066999999999   37431787000006011201708162017081620220816 060 056 00417UCA       F35L      20220516 0027240 0000000 0108960 0739520 0000000 0000000000                20220421              0739520000000          00000000  0000000               00000000                000000000000000000000000       00000000               0000000  7218B05
01CP1F1-9N21164            ABC BOX COMPANY, INC.    20625 ENTERPRISE AVENUE                           BROOKFIELD               WI53045              2627898066999999999   37431787000006011201708162017081620220816 060 056 00417UCA       F35L      20220516 0027240 0000000 0108960 0739520 0000000 0000000000                20220421              0739520000000          00000000  0000000               00000000                000000000000000000000000       00000000               0000000  7218B05
01CP1F1-9N21165            ABC BOX COMPANY, INC.    20625 ENTERPRISE AVENUE                           BROOKFIELD               WI53045              2627898066999999999   37431787000006011201708162017081620220816 060 056 00417UCA       F35L      20220516 0027240 0000000 0108960 0739520 0000000 0000000000                20220421              0739520000000          00000000  0000000               00000000                000000000000000000000000       00000000               0000000  7218B05
01CP1F1-9N21166            ABC BOX COMPANY, INC.    20625 ENTERPRISE AVENUE                           BROOKFIELD               WI53045              2627898066999999999   37431787000006011201708162017081620220816 060 056 00417UCA       F35L      20220516 0027240 0000000 0108960 0739520 0000000 0000000000                20220421              0739520000000          00000000  0000000               00000000                000000000000000000000000       00000000               0000000  7218B05
01CP1F2-9W28840            ABC Technologies, Inc.   400 ABC Blvd                                      Gallatin                 TN37066              6155754009999999999 5887086005000006026201810172018101720220117 039 042-00318UCA       F50L      20220517 0043743 0000000 0000000 0848263 0000000 0000000036                20220421  20220113    0848263000000          00000000  0000000               00000000                000000000000000000000000       00000000               0000000  7218B01
01CP1F2-9W28845            ABC Technologies, Inc.   400 ABC Blvd                                      Gallatin                 TN37066              6155754009999999999 5887086005000006026201810172018101720220117 039 042-00318UCA       F50L      20220517 0043743 0000000 0000000 0848263 0000000 0000000036                20220421  20220113    0848263000000          00000000  0000000               00000000                000000000000000000000000       00000000               0000000  7218B01
01CP1F2-9W28844            ABC Technologies, Inc.   400 ABC Blvd                                      Gallatin                 TN37066              6155754009999999999 5887086005000006026201810172018101720220117 039 042-00318UCA       F50L      20220517 0043743 0000000 0000000 0848263 0000000 0000000036                20220421  20220113    0848263000000          00000000  0000000               00000000                000000000000000000000000       00000000               0000000  7218B01
01CP1F2-9W28855            ABC Technologies, Inc.   400 ABC Blvd                                      Gallatin                 TN37066              6155754009999999999 5887086005000006026201810172018101720220117 039 042-00318UCA       F50L      20220517 0043743 0000000 0000000 0848263 0000000 0000000036                20220421  20220113    0848263000000          00000000  0000000               00000000                000000000000000000000000       00000000               0000000  7218B01
01CP1F2-9W28854            ABC Technologies, Inc.   400 ABC Blvd                                      Gallatin                 TN37066              6155754009999999999 5887086005000006026201810172018101720220117 039 042-00318UCA       F50L      20220517 0043743 0000000 0000000 0848263 0000000 0000000036                20220421  20220113    0848263000000          00000000  0000000               00000000                000000000000000000000000       00000000               0000000  7218B01
01CP1F2-9W28872            ABC Technologies, Inc.   400 ABC Blvd                                      Gallatin                 TN37066              6155754009999999999 5887086005000006026201810172018101720220117 039 042-00318UCA       F50L      20220517 0043743 0000000 0000000 0848263 0000000 0000000036                20220421  20220113    0848263000000          00000000  0000000               00000000                000000000000000000000000       00000000               0000000  7218B01
01CP1F2-9W3226             ABOVE & BEYOND SUPPLY CHA317 AIR FREIGHT BLVD                              NASHVILLE                TN37217    9312092210          999999999   31451055000006026201406112014061120190611 060 094-03414NISS      F50L      20220511 0032147 0000000 0000000 0620940 0000000 0000000000                20220421  20190522    0620940000000          00000000  0000000               00000000                000000000000000000000000       00000000               0000000  7218B01
01P1F2-9H22098             ACTAGRO, LLC.            P.O. BOX 309                                      BIOLA                    CA93606              5598432700999999999   36792526000006039201706152017061520220615 060 058 00217UCA       P50L      20220515 0033904 0000000 0067808 0919895 0000000 0000000000                20220421              0919895000000          00000000  0000000               00000000                000000000000000000000000       00000000               0000000  7218B01
01P1F2-9H22112             ACTAGRO, LLC.            P.O. BOX 309                                      BIOLA                    CA93606              5598432700999999999   36792526000006039201706152017061520220615 060 058 00217UCA       P50L      20220515 0033904 0000000 0067808 0919895 0000000 0000000000                20220421              0919895000000          00000000  0000000               00000000                000000000000000000000000       00000000               0000000  7218B01
01P1F2-9H22113             ACTAGRO, LLC.            P.O. BOX 309                                      BIOLA                    CA93606              5598432700999999999   36792526000006039201706152017061520220615 060 058 00217UCA       P50L      20220515 0033904 0000000 0067808 0919895 0000000 0000000000                20220421              0919895000000          00000000  0000000               00000000                000000000000000000000000       00000000               0000000  7218B01
01CP1F2-9W0768             ACTION BOX CO., INC      6207 N. HOUSTON ROSSLYN R                         HOUSTON                  TX77091              7138697701999999999    5897233000006004201309062013090620160906 036 103-06713NISS      F50L      20220506 0054300 0000000 0000000 0656560 0000000 0000000000                20220421  20161010    0656560000000          00000000  0000000               00000000                000000000000000000000000       00000000               0000000  7218B01
01AP1F2-9U22190            ADVANCED MOLDING, INC.   P.O BOX 6598                                      DOUGLASVILLE             GA30154    7706526272          999999999   38092599000006070201712112017121120221211 060 052 00817UCA       A50L      20220511 0040280 0000000 0322240 0000000 0000000 0000000000                20220421              0000000000000          00000000  0000000               00000000                000000000000000000000000       00000000               0000000  7318B20
01P1F2-9H21446             AGP, LLC                 91 MONTVALE AVE SUITE 315                         STONEHAM                 MA02180    6173811020          999999999   35959959000006063201612082016120820211208 060 064-00416UCA       P50L      20220508 0031053 0000000 0000000 0949695 0000000 0000000000                20220421  20211210    0949695000000          00000000  0000000               00000000                000000000000000000000000       00000000               0000000  7218B01
01CUG1F2-9R20604           AIR GENERAL, INC.        62 DEER ST                                        PORTSMOUTH               NH03801    97853513042818212064999999999   36380313000006063201702222017022220220522 063 061 00217UCA       F80L      20220422 0063616 0000000 0127232 0000000 0000000 0000000000                20220421              0000000000000          00000000  0000000               00000000                000000000000000000000000       00000000               0000000  7318B20
01AP1F2-9U21406            AIR GENERAL, INC.        62 DEER ST                                        PORTSMOUTH               NH03801    97853513042818212064999999999   36437713000006063201702222017022220220522 063 061 00217UCA       A50L      20220422 0048913 0000000 0097826 0000000 0000000 0000000000                20220421              0000000000000          00000000  0000000               00000000                000000000000000000000000       00000000               0000000  7318B20
01CP1F2-9W23266            AIR GENERAL, INC.        62 DEER ST                                        PORTSMOUTH               NH03801    97853513042818212064999999999   36437713000006063201702222017022220220522 063 061 00217UCA       F50L      20220422 0047166 0000000 0094332 0000000 0000000 0000000000                20220421              0000000000000          00000000  0000000               00000000                000000000000000000000000       00000000               0000000  7318B20
01CP1F2-9W23267            AIR GENERAL, INC.        62 DEER ST                                        PORTSMOUTH               NH03801    97853513042818212064999999999   36666536000006063201703222017032220220622 063 060 00317UCA       F50L      20220422 0048148 0000000 0144444 0000000 0000000 0000000000                20220421              0000000000000          00000000  0000000               00000000                000000000000000000000000       00000000               0000000  7318B20
01AP1F2-9U21445            AIR GENERAL, INC.        62 DEER ST                                        PORTSMOUTH               NH03801    97853513042818212064999999999   36802310000006101201704172017041720220717 063 060 00317UCA       A50L      20220517 0048444 0000000 0145332 0000000 0000000 0000000000                20220421              0000000000000          00000000  0000000               00000000                000000000000000000000000       00000000               0000000  7318B20
01AP1F2-9U21446            AIR GENERAL, INC.        62 DEER ST                                        PORTSMOUTH               NH03801    97853513042818212064999999999   36802310000006101201704172017041720220717 063 060 00317UCA       A50L      20220517 0048444 0000000 0145332 0000000 0000000 0000000000                20220421              0000000000000          00000000  0000000               00000000                000000000000000000000000       00000000               0000000  7318B20
01CP1F2-9W24350            AIR GENERAL, INC.        62 DEER ST                                        PORTSMOUTH               NH03801    97853513042818212064999999999   36833365000006093201704192017041920220719 063 060 00317UCA       F50L      20220519 0041605 0000000 0124815 0000000 0000000 0000000000                20220421              0000000000000          00000000  0000000               00000000                000000000000000000000000       00000000               0000000  7318B20
012W75-9301399             AIR GENERAL, INC.        62 DEER ST                                        PORTSMOUTH               NH03801    97853513042818212064999999999   36833365000006093201704192017041920220719 063 060 00317UCA       WLX4      20220519 0008431 0000000 0025293 0000000 0000000 0000000000                20220421              0000000000000          00000000  0000000               00000000                000000000000000000000000       00000000               0000000  7318B20
01CP1F2-9W23756            AIR GENERAL, INC.        62 DEER ST                                        PORTSMOUTH               NH03801    97853513042818212064999999999   36880726000006101201704172017041720220717 063 060 00317UCA       F50L      20220517 0042459 0000000 0127377 0000000 0000000 0000000000                20220421              0000000000000          00000000  0000000               00000000                000000000000000000000000       00000000               0000000  7318B20
01J1F4-981560              AIR GENERAL, INC.        62 DEER ST                                        PORTSMOUTH               NH03801    97853513042818212064999999999   37494165000006063201709062017090620221206 063 055 00817UCA       P8YL      20220506 0077021 0000000 0616168 0000000 0000000 0000000000                20220421              0000000000000          00000000  0000000               00000000                000000000000000000000000       00000000               0000000  7318B20
01CT1B2-983500             AIR GENERAL, INC.        62 DEER ST                                        PORTSMOUTH               NH03801    97853513042818212064999999999   37873997000006063201712192017121920230319 063 052 01117UCA       BC50      20220519 0061973 0000000 0681703 0000000 0000000 0000000000                20220421              0000000000000          00000000  0000000               00000000                000000000000000000000000       00000000               0000000  7318B20
01CT1B2-983470             AIR GENERAL, INC.        62 DEER ST                                        PORTSMOUTH               NH03801    97853513042818212064999999999   37873997000006063201712192017121920230319 063 052 01117UCA       BC50      20220519 0061973 0000000 0681703 0000000 0000000 0000000000                20220421              0000000000000          00000000  0000000               00000000                000000000000000000000000       00000000               0000000  7318B20
01CUG1F2-9R20501           AIR GENERAL, INC.        62 DEER ST                                        PORTSMOUTH               NH03801    97853513042818212064999999999   37874002000006063201712192017121920230319 063 052 01117UCA       F80L      20220519 0064335 0000000 0707685 0000000 0000000 0000000000                20220421              0000000000000          00000000  0000000               00000000                000000000000000000000000       00000000               0000000  7318B20
01P1F1-9G20966             AIR GROUND XPRESS INC    55 MATCHETTE RD                                   CLINTON                  PA15026              7246951110999999999   36174566000006031201704202017042020220420 060 060 00016UCA       P30L      20220320 0033437 0000000 0000000 0000000 0000000 0000000000                20220421              0000000000000          00000000  0000000               00000000                000000000000000000000000       00000000               0000000  7318B20
01P1F2-9H17769             AIRGAS USA, INC.         2240 SOUTH 5370 WEST                              WEST VALLEY              UT84120    8003501555          999999999   34809432000006004201605132016051320220513 072 071 00116UCA       P50L      20220413 0040575 0000000 0040575 0000000 0000000 0000000000                20220421              0000000000000          00000000  0000000               00000000                000000000000000000000000       00000000               0000000  7318B20
01CP1F2-9W23768            ALABAMA PLATING TECHNOLOG3509 45TH ST. SW.                                 LANETT                   AL36863    3345760199          999999999   37473598000006020201708142017081420220814 060 056 00417UCA       F50L      20220514 0044626 0000000 0178504 0000000 0000000 0000000000                20220421              0000000000000          00000000  0000000               00000000                000000000000000000000000       00000000               0000000  7318B20
01CTG1B2-970166            ALCOTEC WIRE CORPORATION 2750 AERO PARK DRIVE                              TRAVERSE CITY            MI49686    80022807502319414111999999999    5891845000006061201306262013071520190715 072 105-03313NISS      BX80      20220515 0060311 0000000 0000000 0539300 0000000 0000000038                20220421  20190722    0539300000000          00000000  0000000               00000000                000000000000000000000000       00000000               0000000  7218B01
01YG1F2-9M1214             ALUMA SYSTEMS CONCRETE COattn Carol Berger        1945 RESERVOIR RD SUITE ASPARROWS POINT           MD21219    33122891903019375090999999999   32575473000006015201507072015070720200707 060 081-02115NISS      FD60      20220507 0035876 0000000 0000000 1084725 0000000 0000000000                20220421  20200722    1084725000000          00000000  0000000               00000000                000000000000000000000000       00000000               0000000  7218B01
01YG1F2-9M1213             ALUMA SYSTEMS CONCRETE COattn Carol Berger        1945 RESERVOIR RD SUITE ASPARROWS POINT           MD21219    33122891903019375090999999999   32575473000006015201507072015070720200707 060 081-02115NISS      FD60      20220507 0035876 0000000 0000000 1084725 0000000 0000000000                20220421  20200722    1084725000000          00000000  0000000               00000000                000000000000000000000000       00000000               0000000  7218B01
01CU1F2-9Q20750            AMERICAN BEVERAGE CORPORA1 Daily Way                                       Verona                   PA15147              4128289020999999999   36311256000006031201710302017103020221030 060 053 00716UCA       CF4L      20220430 0040420 0000000 0282940 0752355 0000000 0000000023                20220421              0752355000000          00000000  0000000               00000000                000000000000000000000000       00000000               0000000  7218B01
01UG1F2-9L4579             AMERICAN MATERIAL HANDLINPO BOX 17878                                      N. LITTLE ROCK           AR72117              5013756611999999999   33103135000006050201506172015061720200617 060 082-02215NISS      P60L      20220517 0033208 0000000 0000000 0916295 0000000 0000000000                20220421  20200701    0916295000000          00000000  0000000               00000000                000000000000000000000000       00000000               0000000  7218B01
01UG1F2-9L4581             AMERICAN MATERIAL HANDLINPO BOX 17878                                      N. LITTLE ROCK           AR72117              5013756611999999999   33103135000006050201506172015061720200617 060 082-02215NISS      P60L      20220517 0033208 0000000 0000000 0916295 0000000 0000000000                20220421  20200701    0916295000000          00000000  0000000               00000000                000000000000000000000000       00000000               0000000  7218B01
01TMX250-2284-9803KF       AMERICAN PASTUERIZATION C2880 NORTH 112TH STREET                           MILWAUKEE                WI53222    41445375224149822366999999999 3146745503000006011201607162016071620210716 060 069-00916CLRK      TMX       20220516 0036645 0000000 0000000 0480550 0000000 0000000000                20220421  20210708    0480550000000          00000000  0000000               00000000                000000000000000000000000       00000000               0000000  7218B01
01A1N1-721239              AMERICAN PASTUERIZATION C2880 NORTH 112TH STREET                           MILWAUKEE                WI53222    41445375224149822366999999999 3146745503000006011201607162016071620210716 060 069-00916NISS      TX35      20220516 0036825 0000000 0000000 0480550 0000000 0000000000                20220421  20210708    0480550000000          00000000  0000000               00000000                000000000000000000000000       00000000               0000000  7218B01
0123705L3                  AMERICAN PASTUERIZATION C2880 NORTH 112TH STREET                           MILWAUKEE                WI53222    41445375224149822366999999999 3146745503000006011201607162016071620210716 060 069-00916UCA       BATT      20220516 0003715 0000000 0000000 0000000 0000000 0000000000                20220421  20210708    0000000000000          00000000  0000000               00000000                000000000000000000000000       00000000               0000000  7218B01
01RMH808642                AMERICAN PASTUERIZATION C2880 NORTH 112TH STREET                           MILWAUKEE                WI53222    41445375224149822366999999999 3146745503000006011201607162016071620210716 060 069-00916NISS      BATT      20220516 0003715 0000000 0000000 0000000 0000000 0000000000                20220421  20210708    0000000000000          00000000  0000000               00000000                000000000000000000000000       00000000               0000000  7218B01
01TMX250-0391-9977FL       AMERICAN PASTUERIZATION C2880 NORTH 112TH STREET                           MILWAUKEE                WI53222    41445375224149822366999999999 3146745504000006011201705022017050220220502 060 059 00117CLRK      TMX       20220402 0053000 0000000 0053000 0308400 0000000 0000000000                20220421              0308400000000          00000000  0000000               00000000                000000000000000000000000       00000000               0000000  7418B01
01TMX250-0400-9977FL       AMERICAN PASTUERIZATION C2880 NORTH 112TH STREET                           MILWAUKEE                WI53222    41445375224149822366999999999 3146745504000006011201705022017050220220502 060 059 00117CLRK      TMX       20220402 0053000 0000000 0053000 0308400 0000000 0000000000                20220421              0308400000000          00000000  0000000               00000000                000000000000000000000000       00000000               0000000  7418B01
01A1N1-723134              AMERICAN PASTUERIZATION C2880 NORTH 112TH STREET                           MILWAUKEE                WI53222    41445375224149822366999999999 3146745506000006011201710022017100220221002 060 054 00617UCA       TX30      20220502 0045800 0000000 0274800 0498300 0000000 0000000000                20220421              0498300000000          00000000  0000000               00000000                000000000000000000000000       00000000               0000000  7218B05
01RH538351                 AMERICAN PASTUERIZATION C2880 NORTH 112TH STREET                           MILWAUKEE                WI53222    41445375224149822366999999999 3146745506000006011201710022017100220221002 060 054 00617SCA                 20220502 0006100 0000000 0036600 0000000 0000000 0000000000                20220421              0000000000000          00000000  0000000               00000000                000000000000000000000000       00000000               0000000  7218B05
01P1F2-9H22982             AMERICARB, INC.          6100 NIAGARA FALLS BLVD                           NIAGARA FALLS            NY14304    71628368534192815800999999999   38055388000006009201711292017112920221129 060 052 00817UCA       P50L      20220429 0047049 0000000 0376392 0000000 0000000 0000000000                20220421              0000000000000          00000000  0000000               00000000                000000000000000000000000       00000000               0000000  7318B20
01WG1F4-920051             AMERIFORGE CORPORATION   19450 STATE HWY 249      SUITE 500                HOUSTON                  TX77070    71368897057132931125999999999    5849067000006004201107262011072620140726 036 128-09211NISS      D10Y      20220426 0093500 0000000 0000000 2082600 0000000 0000000086                20220421  20141001    0000000000000          00000000  0000000               00000000                000000000000000000000000       00000000               0000000  7218B01
01UG1F2-9L21428            AMG TITANIUM ALLOYS AND C207 FRENZ DR                                      NEW CASTLE               PA16101                        999999999   36373355000006031201707252017072520220725 060 056 00416UCA       P60L      20220425 0045375 0000000 0181500 0901555 0000000 0000000000                20220421              0901555000000          00000000  0000000               00000000                000000000000000000000000       00000000               0000000  7218B01
01CP1F2-9W23493            AMG TITANIUM ALLOYS AND C207 FRENZ DR                                      NEW CASTLE               PA16101                        999999999   37578670000006031201710092017100920221009 060 054 00617UCA       F50L      20220509 0038251 0000000 0229506 0850630 0000000 0000000000                20220421              0850630000000          00000000  0000000               00000000                000000000000000000000000       00000000               0000000  7218B01
01P1F2-9H2239              AMYCEL INC               PO BOX 1360                                       SAN JUAN BAUTISTA        CA95045    83162374008316237401999999999   37223760000006041201706282017062820220628 060 057 00317UCA       P50L      20220428 0036500 0000000 0109500 0752082 0000000 0000000000                20220421              0752082000000          00000000  0000000               00000000                000000000000000000000000       00000000               0000000  7218B01
01AP1F2-9U22785            ANCHOR BAY MANUFACTURING 30905 23 MILE RD                                  NEW BALTIMORE            MI48047              5869494040999999999   37931949000006075201802142018021420230214 060 050 01017UCA       A50L      20220514 0044495 0000000 0444950 0000000 0000000 0000000000                20220421              0000000000000          00000000  0000000               00000000                000000000000000000000000       00000000               0000000  7318B20
01AP1F2-9U22786            ANCHOR BAY MANUFACTURING 30905 23 MILE RD                                  NEW BALTIMORE            MI48047              5869494040999999999   37931949000006075201802142018021420230214 060 050 01017UCA       A50L      20220514 0044495 0000000 0444950 0000000 0000000 0000000000                20220421              0000000000000          00000000  0000000               00000000                000000000000000000000000       00000000               0000000  7318B20
01AP1F2-9U22787            ANCHOR BAY MANUFACTURING 30905 23 MILE RD                                  NEW BALTIMORE            MI48047              5869494040999999999   37931949000006075201802142018021420230214 060 050 01017UCA       A50L      20220514 0044495 0000000 0444950 0000000 0000000 0000000000                20220421              0000000000000          00000000  0000000               00000000                000000000000000000000000       00000000               0000000  7318B20
01AP1F2-9U22788            ANCHOR BAY MANUFACTURING 30905 23 MILE RD                                  NEW BALTIMORE            MI48047              5869494040999999999   37931949000006075201802142018021420230214 060 050 01017UCA       A50L      20220514 0044495 0000000 0444950 0000000 0000000 0000000000                20220421              0000000000000          00000000  0000000               00000000                000000000000000000000000       00000000               0000000  7318B20
01AP1F2-9U22789            ANCHOR BAY MANUFACTURING 30905 23 MILE RD                                  NEW BALTIMORE            MI48047              5869494040999999999   37931949000006075201802142018021420230214 060 050 01017UCA       A50L      20220514 0044495 0000000 0444950 0000000 0000000 0000000000                20220421              0000000000000          00000000  0000000               00000000                000000000000000000000000       00000000               0000000  7318B20
01AP1F2-9U22790            ANCHOR BAY MANUFACTURING 30905 23 MILE RD                                  NEW BALTIMORE            MI48047              5869494040999999999   37931949000006075201802142018021420230214 060 050 01017UCA       A50L      20220514 0044495 0000000 0444950 0000000 0000000 0000000000                20220421              0000000000000          00000000  0000000               00000000                000000000000000000000000       00000000               0000000  7318B20
01AP1F2-9U22791            ANCHOR BAY MANUFACTURING 30905 23 MILE RD                                  NEW BALTIMORE            MI48047              5869494040999999999   37931949000006075201802142018021420230214 060 050 01017UCA       A50L      20220514 0044495 0000000 0444950 0000000 0000000 0000000000                20220421              0000000000000          00000000  0000000               00000000                000000000000000000000000       00000000               0000000  7318B20
01CU1F2-9Q20695            APEX BUILDING MATERIAL SU8475 PACHEO ROAD                                  BAKERSFIELD              CA93311    32358735566616645735999999999   36413733000006074201707262017072620220726 060 056 00417UCA       C60L      20220426 0047114 0000000 0188456 0000000 0000000 0000000027                20220421              0000000000000          00000000  0000000               00000000                000000000000000000000000       00000000               0000000  7318B20
01CTG1B2-970191            APEX BUILDING MATERIAL SU8475 PACHEO ROAD                                  BAKERSFIELD              CA93311    32358735566616645735999999999   37196305000006074201706292017062920220629 060 057 00317UCA       BC60      20220429 0045243 0000000 0135729 0000000 0000000 0000000024                20220421              0000000000000          00000000  0000000               00000000                000000000000000000000000       00000000               0000000  7318B20
01J1F4-980518              APEX BUILDING MATERIAL SU8475 PACHEO ROAD                                  BAKERSFIELD              CA93311    32358735566616645735999999999   37324669000006074201707192017071920220719 060 057 00317UCA       P8YL      20220519 0060537 0000000 0181611 0000000 0000000 0000000000                20220421              0000000000000          00000000  0000000               00000000                000000000000000000000000       00000000               0000000  7318B20
01CTG1B2-970939            APPVION, INC.            PO BOX 359                                        Appleton                 WI54912    80053394219209917070999999999   33872207000006011201511052015110520201105 060 077-01715NISS      BC80      20201005 0074901 0000000 0000000 0000000 0000000 0000000000                20220421              0000000000000          00000000  0000000               00000000                000000000000000000000000       00000000               0000000  7318B20
01CTG1B2-970944            APPVION, INC.            PO BOX 359                                        Appleton                 WI54912    80053394219209917070999999999   33872207000006011201511052015110520201105 060 077-01715NISS      BC80      20201005 0074901 0000000 0000000 0000000 0000000 0000000000                20220421              0000000000000          00000000  0000000               00000000                000000000000000000000000       00000000               0000000  7318B20
01J1F4-987839              ARMSTRONG LUMBER CO, INC.2709 AUBURN WAY N                                 AUBURN                   WA98002    2538336666          999999999   37654007000006069201801102018011020230110 060 051 00918UCA       00YL      20220510 0062412 0000000 0561708 1741985 0000000 0000000000                20220421              1741985000000          00000000  0000000               00000000                000000000000000000000000       00000000               0000000  7218B01
01CP1F2-9W7382             ARMSTRONG, WISCONSIN, LLC1701 AIRPORT ROAD                                 WAUKESHA                 WI53188    2626501962          999999999   37382134000006011201708212017082120220821 060 056 00417UCA       F50L      20220521 0036785 0000000 0147140 0000000 0000000 0000000000                20220421              0000000000000          00000000  0000000               00000000                000000000000000000000000       00000000               0000000  7318B20
01AP1F2-9U22669            ARRY'S ROOFING SERVICES, 401 E SPRUCE ST                                   TARPON SPRINGS           FL34689    7279389565          999999999   38110017000006101201712272017122720221227 060 051 00917UCA       A50L      20220427 0047190 0000000 0424710 0000000 0000000 0000000000                20220421              0000000000000          00000000  0000000               00000000                000000000000000000000000       00000000               0000000  7318B20
01AP1F2-9U22784            ARTEFFECTS INCORPORATED  27 BRITTON DRIVE                                  BLOOMFIELD               CT06002    8609223433          999999999   38702648000006063201804092018040920230409 060 048 01218UCA       A50L      20220509 0040677 0000000 0488124 0000000 0000000 0000000000                20220421              0000000000000          00000000  0000000               00000000                000000000000000000000000       00000000               0000000  7318B20
01J1F4-98005               ARTEMIO CHAPA            1543 WEST VETERANS BLVD                           PALMVIEW                 TX78572    95645880729565814992999999999   37812623000006021201710132017101320221013 060 054 00617UCA       A50L      20220513 0037558 0000000 0225348 0000000 0000000 0000000068                20220421              0000000000000          00000000  0000000               00000000                000000000000000000000000       00000000               0000000  7318B20
01J1F4-981904              ASSURANCE OPERATIONS CORPPO BOX 98                                         Lawrenceburg             TN38464    80025782209317667750999999999 3622924002000006026201805092018050920220509 048 047 00118UCA       P8YL      20220409 0063659 0000000 0063659 1616305 0000000 0000000000                20220421              1616305000000          00000000  0000000               00000000                000000000000000000000000       00000000               0000000  7218B01
01AP1F2-9U2221             ASSURANCE OPERATIONS CORPPO BOX 98                                         Lawrenceburg             TN38464    80025782209317667750999999999 3622924003000006026201806072018060720220607 048 046 00218UCA       A50L      20220507 0039224 0000000 0078448 1079913 0000000 0000000000                20220421              1079913000000          00000000  0000000               00000000                000000000000000000000000       00000000               0000000  7218B01
01CP1F2-9W25502            ATEX ENCLOSURE MANUFACTUR1118 PLEASANTVILLE                                HOUSTON                  TX77029    7139212233          999999999   37771680000006102201710032017100320221003 060 054 00617UCA       F50L      20220503 0033700 0000000 0202200 0774330 0000000 0000000000                20220421              0774330000000          00000000  0000000               00000000                000000000000000000000000       00000000               0000000  7218B01
01CP1F1-9N20926            AUMA ENGINEERED PRODUCTS 161 VOLUNTEER PKWY                                MANCHESTER               TN37355    9317288853          999999999   37799675000006026201710032017100320221003 060 054 00617UCA       F30L      20220503 0027649 0000000 0165894 0754535 0000000 0000000000                20220421              0754535000000          00000000  0000000               00000000                000000000000000000000000       00000000               0000000  7218B01
01P1F1-9G21182             AUTOMATED DOOR WAYS INC  307 38TH ST                                       COLUMBUS                 GA31904    7066534302          999999999   38071789000006020201712012017120120221201 060 052 00817UCA       P30L      20220501 0041180 0000000 0329440 0000000 0000000 0000000000                20220421              0000000000000          00000000  0000000               00000000                000000000000000000000000       00000000               0000000  7318B20
01CF30-9N20803             Albea Cosmetics America, 4649 Towerwood Dr.                                Brownsville              TX78521    95654775809565473600999999999   36435241000006021201802282017042820200428 036 059-02317UCA       F30L      20220428 0044600 0000000 0000000 0975815 0000000 0000000025                20220421  20200825    0975815000000          00000000  0000000               00000000                000000000000000000000000       00000000               0000000  7218B01
01CT1B2-983044             Albea Cosmetics America, 4649 Towerwood Dr.                                Brownsville              TX78521    95654775809565473600999999999   36435594000006021201705122017051220200512 036 059-02317UCA       BC50      20220512 0072500 0000000 0000000 0917065 0000000 0000000041                20220421  20200424    0917065000000          00000000  0000000               00000000                000000000000000000000000       00000000               0000000  7218B01
01CP1F2-9W5789             All Marble, Granite and T932 Marlton Pike West                             Cherry Hill              NJ08002              8563380008999999999   38110484000006057201712142017121420221214 060 052 00817UCA       F50L      20220514 0040395 0000000 0323160 0000000 0000000 0000000000                20220421              0000000000000          00000000  0000000               00000000                000000000000000000000000       00000000               0000000  7318B20
01P1F1-9G1101              Apple King Produce Packag114-04 15th Ave.                                  College Point            NY11356              7189396267999999999  5821554A1000006065201003302010033020150730 064 144-08010NISS      P35L      20220430 0031700 0000000 0000000 0739955 0000000 0000000000                20220421  20150731    0000000000000          00000000  0000000               00000000                000000000000000000000000       00000000               0000000  7218B01
01CJ1B1-991236             BADGER CUSTOM PALLETS, IN450 QUALITY COURT                                 FALL RIVER               WI53932    9204846490          999999999   37942540000006011201712192017121920221219 060 052 00817UCA       BC35      20220519 0057102 0000000 0456816 0000000 0000000 0000000000                20220421              0000000000000          00000000  0000000               00000000                000000000000000000000000       00000000               0000000  7318B20
01AP1F2-9U5391             BADGER CUSTOM PALLETS, IN450 QUALITY COURT                                 FALL RIVER               WI53932    9204846490          999999999   39338618000006011201808212018082120220821 048 044 00415UCA       A50L      20220521 0035680 0000000 0142720 0000000 0000000 0000000000                20220421              0000000000000          00000000  0000000               00000000                000000000000000000000000       00000000               0000000  7318B20
01CP1F2-9W27274            BATES ELECTRIC INC.      7901 HOPI PL                                      TAMPA                    FL33634    8138887050          999999999   38394069000006101201803072018030720230307 060 049 01118UCA       F50L      20220507 0039281 0000000 0432091 0000000 0000000 0000000000                20220421              0000000000000          00000000  0000000               00000000                000000000000000000000000       00000000               0000000  7318B20
011N1-724481               BERNARD FOOD INDUSTRIES I1125 HARTREY AVE                                  EVANSTON                 IL60204              8478695222999999999    5824715000006038201012302010123020160101 060 135-07510NISS      TX30      20220501 0039112 0000000 0000000 0711280 0000000 0000000000                20220421  20160112    0000000000000          00000000  0000000               00000000                000000000000000000000000       00000000               0000000  7218B01
011N1-724485               BERNARD FOOD INDUSTRIES I1125 HARTREY AVE                                  EVANSTON                 IL60204              8478695222999999999    5824715000006038201012302010123020160101 060 135-07510NISS      TX30      20220501 0039112 0000000 0000000 0711280 0000000 0000000000                20220421  20160112    0000000000000          00000000  0000000               00000000                000000000000000000000000       00000000               0000000  7218B01
01CP1F2-9P8465             BERNER FOOD & BEVERAGE IN2034 E FACORTY RD                                 DAKOTA                   IL61081              8155634222999999999    5859413000006038201203302012033020180330 072 120-04811NISS      F50L      20220430 0044285 0000000 0000000 0175500 0000000 0000000000                20220421  20180418    0175500000000          00000000  0000000               00000000                000000000000000000000000       00000000               0000000  7218B01
01AUB2600019               BERRY GLOBAL, INC.       PO BOX 959                                        Evansville               IN47710    8124242904          999999999 5841881004000006026201801212018012120230121 060 051 00917UCA       T35       20220521 0055283 0000000 0497547 0000000 0000000 0000000000                20220421              0000000000000          00000000  0000000               00000000                000000000000000000000000       00000000               0000000  7318B20
01AUB2600020               BERRY GLOBAL, INC.       PO BOX 959                                        Evansville               IN47710    8124242904          999999999 5841881004000006026201801212018012120230121 060 051 00917UCA       T35       20220521 0055283 0000000 0497547 0000000 0000000 0000000000                20220421              0000000000000          00000000  0000000               00000000                000000000000000000000000       00000000               0000000  7318B20
01UG1F2-9L21768            BEST FENDER PRODUCTS, INC2364 HWY 49 EAST                                  MT PLEASANT              TX75455              9035770510999999999   36998919000006095201710272017102720230127 063 053 01017NISS      P60L      20220427 0036503 0000000 0365030 1018260 0000000 0000000000                20220421              1018260000000          00000000  0000000               00000000                000000000000000000000000       00000000               0000000  7218B01
01UG1F2-9L21781            BEST FENDER PRODUCTS, INC2364 HWY 49 EAST                                  MT PLEASANT              TX75455              9035770510999999999   36998919000006095201710272017102720230127 063 053 01017NISS      P60L      20220427 0036503 0000000 0365030 1018260 0000000 0000000000                20220421              1018260000000          00000000  0000000               00000000                000000000000000000000000       00000000               0000000  7218B01
01AP1F2-9U06162            BEST FENDER PRODUCTS, INC2364 HWY 49 EAST                                  MT PLEASANT              TX75455              9035770510999999999   37347041000006095201708042017080420221104 063 056 00717UCA       A50L      20220504 0031500 0000000 0220500 0861727 0000000 0000000000                20220421              0861727000000          00000000  0000000               00000000                000000000000000000000000       00000000               0000000  7218B01
01AP1F2-9U06163            BEST FENDER PRODUCTS, INC2364 HWY 49 EAST                                  MT PLEASANT              TX75455              9035770510999999999   37362148000006095201708102017081020221110 063 056 00717NISS      A50L      20220510 0030210 0000000 0211470 0881400 0000000 0000000000                20220421              0881400000000          00000000  0000000               00000000                000000000000000000000000       00000000               0000000  7218B01
01UG1F2-9L20844            BEST FENDER PRODUCTS, INC2364 HWY 49 EAST                                  MT PLEASANT              TX75455              9035770510999999999  135135891000006095201702022017020220220202 060 062-00216UCA       P60L      20220502 0032525 0000000 0000000 0986410 0000000 0000000000                20220421  20220125    0986410000000          00000000  0000000               00000000                000000000000000000000000       00000000               0000000  7218B01
01CT1B2-980168             BKW ENVIRONMENTAL SERVICE3009 PASADENA FREEWAY    SUITE 100                PASADENA                 TX77503    28193008087134734445999999999    5883013000006004201302252013022520180225 060 109-04912NISS      BC50      20220425 0047040 0000000 0000000 0825430 0000000 0000000028                20220421  20180301    0825430000000          00000000  0000000               00000000                000000000000000000000000       00000000               0000000  7218B01
01UG1F2-9L21432            BOB MCCARLEY INC.        3555 NE LOOP 286                                  PARIS                    TX75460    9037850771          999999999   36405801000006095201708042017080420220804 060 056 00417UCA       P70F      20220504 0063302 0000000 0253208 0000000 0000000 0000000000                20220421              0000000000000          00000000  0000000               00000000                000000000000000000000000       00000000               0000000  7318B20
01UG1F2-9L21257            BOBBY COMBS RV, LLC      5816 CLEVELAND BLVD                               CALDWELL                 ID83607              2084026426999999999   37930487000006103201711082017110820221108 060 053 00717UCA       P60L      20220508 0052651 0000000 0368557 0000000 0000000 0000000000                20220421              0000000000000          00000000  0000000               00000000                000000000000000000000000       00000000               0000000  7318B20
01CP1F1-9N3715             BOLKE-MILLER COMPANY     1585 LAKESIDE DRIVE                               WAUKEGAN                 IL60085              8476937233999999999 5833848009000006038201402052014020520190227 060 098-03813NISS      F30L      20220427 0032758 0000000 0000000 0565875 0000000 0000000000                20220421  20190226    0565875000000          00000000  0000000               00000000                000000000000000000000000       00000000               0000000  7218B01
01CP1F1-9N4193             BOLKE-MILLER COMPANY     1585 LAKESIDE DRIVE                               WAUKEGAN                 IL60085              8476937233999999999 5833848011000006038201409152014091520190927 060 091-03114NISS      F30L      20220427 0030592 0000000 0000000 0566925 0000000 0000000000                20220421  20191002    0566925000000          00000000  0000000               00000000                000000000000000000000000       00000000               0000000  7218B01
01YG1F2-9M0919             BORAL BRICKS INC.        200 MANSELL CT STE 305                            ATLANTA                  GA30076              8128942454999999999   30364478000006070201312222013122220171222 048 099-05113NISS      FD60      20220422 0063500 0000000 0000000 0954600 0000000 0000000000                20220421  20171229    0954600000000          00000000  0000000               00000000                000000000000000000000000       00000000               0000000  7218B01
01AG1N1-723473             BROTHERS PRODUCE, INC.   3173 PRODUCE ROW                                  HOUSTON                  TX77023              7139244196999999999 5851102013000006102201711072017110720211107 048 053-00517UCA       TX40      20220307 0059627 0000000 0000000 0961410 0000000 0000000000                20220421  20211124    0000000000000          00000000  0000000               00000000                000000000000000000000000       00000000               0000000  7218B01
01AUB2650123               BROTHERS PRODUCE, INC.   3173 PRODUCE ROW                                  HOUSTON                  TX77023              7139244196999999999 5851102015000006102201810042018100420221004 048 042 00618UCA       T40M      20220504 0082930 0000000 0497580 0000000 0000000 0000000000                20220421              0000000000000          00000000  0000000               00000000                000000000000000000000000       00000000               0000000  7318B20
01CP1F1-9N21376            BUCCANEER LINEN SERVICE I3608 N 34TH ST                                    TAMPA                    FL33605    8132414995          999999999   38272032000006101201801152018011520230115 060 051 00917UCA       F30L      20220515 0036282 0000000 0326538 0000000 0000000 0000000000                20220421              0000000000000          00000000  0000000               00000000                000000000000000000000000       00000000               0000000  7318B20
01D1F4-952029              BURNETT & MOYNIHAN, INC. 43 FOSTER STREET                                  REVERE                   MA02151    7812840055          999999999   35739494000006063201704062017040620220806 064 060 00417UCA       F9YF      20220506 0103946 0000000 0415784 0000000 0000000 0000000000                20220421              0000000000000          00000000  0000000               00000000                000000000000000000000000       00000000               0000000  7318B20
01AP1F2-9U22782            BWBC I LLC               180 COMMERCIAL STREET, UN                         LYNN                     MA01905    7817809948          999999999   38578779000006063201803302018033020230330 060 048 01218UCA       A50L      20220430 0041951 0000000 0503412 0000000 0000000 0000000000                20220421              0000000000000          00000000  0000000               00000000                000000000000000000000000       00000000               0000000  7318B20
011H2-9Y1060               Beltmann Group Incorporat2480 Long Lake Rd.                                Roseville                MN55113              6516392800999999999 5816618019000006011201706302017063020220630 060 057 00317UCA       1X35      20220430 0083906 0000000 0251718 0000000 0000000 0000000000                20220421              0000000000000          00000000  0000000               00000000                000000000000000000000000       00000000               0000000  7318B20
01CP1F2-9W24943            Beltmann Group Incorporat2480 Long Lake Rd.                                Roseville                MN55113              6516392800999999999 5816618020000006011201706132017061320220613 060 058 00217UCA       F50L      20220513 0047191 0000000 0094382 0000000 0000000 0000000000                20220421              0000000000000          00000000  0000000               00000000                000000000000000000000000       00000000               0000000  7318B20
01SM1H235NV-9Y0203         Beltmann Group Incorporat2480 Long Lake Rd.                                Roseville                MN55113              6516392800999999999 5816618022000006011201710092017100920221009 060 054 00617UCA       135F      20220509 0042634 0000000 0255804 0000000 0000000 0000000000                20220421              0000000000000          00000000  0000000               00000000                000000000000000000000000       00000000               0000000  7318B20
01AP1F2-9U3489             Brenntag Pacific, Inc.   6750 W. Boston Street                             Chandler                 AZ85226    32383255334809614273999999999   31672725000006032201407252014072520190725 060 092-03213NISS      A50L      20220425 0035686 0000000 0000000 0577290 0000000 0000000028                20220421  20190722    0577290000000          00000000  0000000               00000000                000000000000000000000000       00000000               0000000  7218B01
01P1F2-9H8816              Bush Industries Inc.     1 Mason Drive                                     Jamestown                NY14702              7166652000999999999 3324030801000006009201510082015100820191019 048 078-03015NISS      P50L      20220519 0029177 0000000 0000000 1057900 0000000 0000000000                20220421  20191002    1057900000000          00000000  0000000               00000000                000000000000000000000000       00000000               0000000  7218B01
01P1F2-9H8832              Bush Industries Inc.     1 Mason Drive                                     Jamestown                NY14702              7166652000999999999 3324030801000006009201510082015100820191019 048 078-03015NISS      P50L      20220519 0029177 0000000 0000000 1057900 0000000 0000000000                20220421  20191002    1057900000000          00000000  0000000               00000000                000000000000000000000000       00000000               0000000  7218B01
01P1F2-9H8815              Bush Industries Inc.     1 Mason Drive                                     Jamestown                NY14702              7166652000999999999 3324030801000006009201510082015100820191019 048 078-03015NISS      P50L      20220519 0029177 0000000 0000000 1057900 0000000 0000000000                20220421  20191002    1057900000000          00000000  0000000               00000000                000000000000000000000000       00000000               0000000  7218B01
01P1F2-9H8831              Bush Industries Inc.     1 Mason Drive                                     Jamestown                NY14702              7166652000999999999 3324030801000006009201510082015100820191019 048 078-03015NISS      P50L      20220519 0029177 0000000 0000000 1057900 0000000 0000000000                20220421  20191002    1057900000000          00000000  0000000               00000000                000000000000000000000000       00000000               0000000  7218B01
01CP1F2-9W8782             Bush Industries Inc.     1 Mason Drive                                     Jamestown                NY14702              7166652000999999999 3324030801000006009201510082015100820191019 048 078-03015NISS      F50L      20220519 0023967 0000000 0000000 1093225 0000000 0000000000                20220421  20191002    1093225000000          00000000  0000000               00000000                000000000000000000000000       00000000               0000000  7218B01
01CP1F2-9W8783             Bush Industries Inc.     1 Mason Drive                                     Jamestown                NY14702              7166652000999999999 3324030801000006009201510082015100820191019 048 078-03015NISS      F50L      20220519 0023967 0000000 0000000 1093225 0000000 0000000000                20220421  20191002    1093225000000          00000000  0000000               00000000                000000000000000000000000       00000000               0000000  7218B01
01CP1F2-9W8785             Bush Industries Inc.     1 Mason Drive                                     Jamestown                NY14702              7166652000999999999 3324030801000006009201510082015100820191019 048 078-03015NISS      F50L      20220519 0023967 0000000 0000000 1093225 0000000 0000000000                20220421  20191002    1093225000000          00000000  0000000               00000000                000000000000000000000000       00000000               0000000  7218B01
01CP1F2-9W8786             Bush Industries Inc.     1 Mason Drive                                     Jamestown                NY14702              7166652000999999999 3324030801000006009201510082015100820191019 048 078-03015NISS      F50L      20220519 0023967 0000000 0000000 1093225 0000000 0000000000                20220421  20191002    1093225000000          00000000  0000000               00000000                000000000000000000000000       00000000               0000000  7218B01
01CP1F2-9W8788             Bush Industries Inc.     1 Mason Drive                                     Jamestown                NY14702              7166652000999999999 3324030801000006009201510082015100820191019 048 078-03015NISS      F50L      20220519 0023967 0000000 0000000 1093225 0000000 0000000000                20220421  20191002    1093225000000          00000000  0000000               00000000                000000000000000000000000       00000000               0000000  7218B01
01CP1F2-9W8809             Bush Industries Inc.     1 Mason Drive                                     Jamestown                NY14702              7166652000999999999 3324030801000006009201510082015100820191019 048 078-03015NISS      F50L      20220519 0023967 0000000 0000000 1093225 0000000 0000000000                20220421  20191002    1093225000000          00000000  0000000               00000000                000000000000000000000000       00000000               0000000  7218B01
01CP1F2-9W8810             Bush Industries Inc.     1 Mason Drive                                     Jamestown                NY14702              7166652000999999999 3324030801000006009201510082015100820191019 048 078-03015NISS      F50L      20220519 0023967 0000000 0000000 1093225 0000000 0000000000                20220421  20191002    1093225000000          00000000  0000000               00000000                000000000000000000000000       00000000               0000000  7218B01
01CP1F2-9W8811             Bush Industries Inc.     1 Mason Drive                                     Jamestown                NY14702              7166652000999999999 3324030801000006009201510082015100820191019 048 078-03015NISS      F50L      20220519 0023967 0000000 0000000 1093225 0000000 0000000000                20220421  20191002    1093225000000          00000000  0000000               00000000                000000000000000000000000       00000000               0000000  7218B01
01CP1F2-9W8812             Bush Industries Inc.     1 Mason Drive                                     Jamestown                NY14702              7166652000999999999 3324030801000006009201510082015100820191019 048 078-03015NISS      F50L      20220519 0023967 0000000 0000000 1093225 0000000 0000000000                20220421  20191002    1093225000000          00000000  0000000               00000000                000000000000000000000000       00000000               0000000  7218B01
01CP1F2-9W8813             Bush Industries Inc.     1 Mason Drive                                     Jamestown                NY14702              7166652000999999999 3324030801000006009201510082015100820191019 048 078-03015NISS      F50L      20220519 0023967 0000000 0000000 1093225 0000000 0000000000                20220421  20191002    1093225000000          00000000  0000000               00000000                000000000000000000000000       00000000               0000000  7218B01
01CP1F2-9W8814             Bush Industries Inc.     1 Mason Drive                                     Jamestown                NY14702              7166652000999999999 3324030801000006009201510082015100820191019 048 078-03015NISS      F50L      20220519 0023967 0000000 0000000 1093225 0000000 0000000000                20220421  20191002    1093225000000          00000000  0000000               00000000                000000000000000000000000       00000000               0000000  7218B01
01CP1F2-9W8815             Bush Industries Inc.     1 Mason Drive                                     Jamestown                NY14702              7166652000999999999 3324030801000006009201510082015100820191019 048 078-03015NISS      F50L      20220519 0023967 0000000 0000000 1093225 0000000 0000000000                20220421  20191002    1093225000000          00000000  0000000               00000000                000000000000000000000000       00000000               0000000  7218B01
01CP1F2-9W8829             Bush Industries Inc.     1 Mason Drive                                     Jamestown                NY14702              7166652000999999999 3324030801000006009201510082015100820191019 048 078-03015NISS      F50L      20220519 0023967 0000000 0000000 1093225 0000000 0000000000                20220421  20191002    1093225000000          00000000  0000000               00000000                000000000000000000000000       00000000               0000000  7218B01
01CP1F2-9W6558             Bush Industries Inc.     1 Mason Drive                                     Jamestown                NY14702              7166652000999999999 3324030801000006009201510082015100820191019 048 078-03015NISS      F50L      20220519 0023967 0000000 0000000 1093225 0000000 0000000000                20220421  20191002    1093225000000          00000000  0000000               00000000                000000000000000000000000       00000000               0000000  7218B01
01CP1F2-9W6560             Bush Industries Inc.     1 Mason Drive                                     Jamestown                NY14702              7166652000999999999 3324030801000006009201510082015100820191019 048 078-03015NISS      F50L      20220519 0023967 0000000 0000000 1093225 0000000 0000000000                20220421  20191002    1093225000000          00000000  0000000               00000000                000000000000000000000000       00000000               0000000  7218B01
01CP1F2-9W20746            Bush Industries Inc.     1 Mason Drive                                     Jamestown                NY14702              7166652000999999999 3324030804000006009201602152016021520200219 048 074-02615UCA       F50L      20220519 0027492 0000000 0000000 0871500 0000000 0000000000                20220421  20200227    0871500000000          00000000  0000000               00000000                000000000000000000000000       00000000               0000000  7218B01
01CP1F2-9W20751            Bush Industries Inc.     1 Mason Drive                                     Jamestown                NY14702              7166652000999999999 3324030804000006009201602152016021520200219 048 074-02615UCA       F50L      20220519 0027492 0000000 0000000 0871500 0000000 0000000000                20220421  20200227    0871500000000          00000000  0000000               00000000                000000000000000000000000       00000000               0000000  7218B01
01CP1F2-9W20752            Bush Industries Inc.     1 Mason Drive                                     Jamestown                NY14702              7166652000999999999 3324030804000006009201602152016021520200219 048 074-02615UCA       F50L      20220519 0027492 0000000 0000000 0871500 0000000 0000000000                20220421  20200227    0871500000000          00000000  0000000               00000000                000000000000000000000000       00000000               0000000  7218B01
01CP1F2-9W20747            Bush Industries Inc.     1 Mason Drive                                     Jamestown                NY14702              7166652000999999999 3324030804000006009201602152016021520200219 048 074-02615UCA       F50L      20220519 0027492 0000000 0000000 0871500 0000000 0000000000                20220421  20200227    0871500000000          00000000  0000000               00000000                000000000000000000000000       00000000               0000000  7218B01
01P1F2-9H20246             Bush Industries Inc.     1 Mason Drive                                     Jamestown                NY14702              7166652000999999999 3324030804000006009201602152016021520200219 048 074-02615UCA       P50L      20220519 0030779 0000000 0000000 0947145 0000000 0000000000                20220421  20200227    0947145000000          00000000  0000000               00000000                000000000000000000000000       00000000               0000000  7218B01
01P1F2-9H20190             Bush Industries Inc.     1 Mason Drive                                     Jamestown                NY14702              7166652000999999999 3324030804000006009201602152016021520200219 048 074-02615UCA       P50L      20220519 0030779 0000000 0000000 0947145 0000000 0000000000                20220421  20200227    0947145000000          00000000  0000000               00000000                000000000000000000000000       00000000               0000000  7218B01
01CUG1F2-9R20688           C & R MOLDS, INC.        2737 PALMA DRIVE                                  VENTURA                  CA93003              8056587098999999999   36167294000006074201705262017052620220526 060 058 00217UCA       F80L      20220426 0059131 0000000 0118262 0000000 0000000 0000000000                20220421              0000000000000          00000000  0000000               00000000                000000000000000000000000       00000000               0000000  7318B20
01CP1F2-9W21072            CABOT CORPORATION        PO BOX 5001                                       PAMPA                    TX79066    80666131526782971300999999999 3433461701000006044201604182016041820210418 060 072-01216UCA       F40L      20220518 0029897 0000000 0000000 0754110 0000000 0000000000                20220421  20210824    0754110000000          00000000  0000000               00000000                000000000000000000000000       00000000               0000000  7218B01
01CT1B2-982291             CABOT CORPORATION        PO BOX 5001                                       PAMPA                    TX79066    80666131526782971300999999999 3433461701000006044201604182016041820210418 060 072-01215UCA       BX40      20220518 0043068 0000000 0000000 0682380 0000000 0000000000                20220421  20210824    0682380000000          00000000  0000000               00000000                000000000000000000000000       00000000               0000000  7218B01
01P1F2-9H20973             CALCEAN MINERALS AND MATE140 THOMAS DRIVE                                  GADSDEN                  AL35904    7203011010          999999999   35734194000006095201609222016092220210922 060 066-00616UCA       P50L      20220422 0033570 0000000 0000000 0958950 0000000 0000000000                20220421  20210928    0958950000000          00000000  0000000               00000000                000000000000000000000000       00000000               0000000  7218B01
01P1F2-9H22143             CALPINE CONTAINERS, INC. 380 W. SPRUCE AVE                                 CLOVIS                   CA93611              5595197199999999999  582392609000006039201712132017121320221213 060 052 00817UCA       P50L      20220513 0037174 0000000 0297392 1003995 0000000 0000000000                20220421              1003995000000          00000000  0000000               00000000                000000000000000000000000       00000000               0000000  7218B01
01P1F2-9H22090             CALPINE CONTAINERS, INC. 380 W. SPRUCE AVE                                 CLOVIS                   CA93611              5595197199999999999 5823926035000006039201707102017071020220710 060 057 00317UCA       P50L      20220510 0013502 0000000 0040506 1002795 0000000 0000000000                20220421              1002795000000          00000000  0000000               00000000                000000000000000000000000       00000000               0000000  7218B01
01172656                   CALPINE CONTAINERS, INC. 380 W. SPRUCE AVE                                 CLOVIS                   CA93611              5595197199999999999 5823926035000006039201707102017071020220710 060 057 00317RGHT      ATT       20220510 0013572 0000000 0040716 0079084 0000000 0000000000                20220421              0079084000000          00000000  0000000               00000000                000000000000000000000000       00000000               0000000  7218B01
01split asset from 23570   CALPINE CONTAINERS, INC. 380 W. SPRUCE AVE                                 CLOVIS                   CA93611              5595197199999999999 5823926035000006039201707102017071020220710 060 057 003  UCA       P50L      20220510 0022189 0000000 0066567 0000000 0000000 0000000000                20220421              0000000000000          00000000  0000000               00000000                000000000000000000000000       00000000               0000000  7218B01
01P1F2-9H22076             CALPINE CONTAINERS, INC. 380 W. SPRUCE AVE                                 CLOVIS                   CA93611              5595197199999999999 5823926036000006039201707102017071020220710 060 057 00317UCA       P50L      20220510 0035067 0000000 0105201 0981895 0000000 0000000000                20220421              0981895000000          00000000  0000000               00000000                000000000000000000000000       00000000               0000000  7218B01
01P1F2-9H21019             CALPINE CONTAINERS, INC. 380 W. SPRUCE AVE                                 CLOVIS                   CA93611              5595197199999999999 5823926036000006039201707102017071020220710 060 057 00317UCA       P50L      20220510 0035067 0000000 0105201 0981895 0000000 0000000000                20220421              0981895000000          00000000  0000000               00000000                000000000000000000000000       00000000               0000000  7218B01
01P1F2-9H21015             CALPINE CONTAINERS, INC. 380 W. SPRUCE AVE                                 CLOVIS                   CA93611              5595197199999999999 5823926036000006039201707102017071020220710 060 057 00317UCA       P50L      20220510 0035067 0000000 0105201 0981895 0000000 0000000000                20220421              0981895000000          00000000  0000000               00000000                000000000000000000000000       00000000               0000000  7218B01
01P1F2-9H22077             CALPINE CONTAINERS, INC. 380 W. SPRUCE AVE                                 CLOVIS                   CA93611              5595197199999999999 5823926036000006039201707102017071020220710 060 057 00317UCA       P50L      20220510 0035067 0000000 0105201 0981895 0000000 0000000000                20220421              0981895000000          00000000  0000000               00000000                000000000000000000000000       00000000               0000000  7218B01
01P1F2-9H22089             CALPINE CONTAINERS, INC. 380 W. SPRUCE AVE                                 CLOVIS                   CA93611              5595197199999999999 5823926036000006039201707102017071020220710 060 057 00317UCA       P50L      20220510 0035067 0000000 0105201 0981895 0000000 0000000000                20220421              0981895000000          00000000  0000000               00000000                000000000000000000000000       00000000               0000000  7218B01
01170579                   CALPINE CONTAINERS, INC. 380 W. SPRUCE AVE                                 CLOVIS                   CA93611              5595197199999999999 5823926036000006039201707102017071020220710 060 057 00317RGHT      ATT       20220510 0013516 0000000 0040548 0079084 0000000 0000000000                20220421              0079084000000          00000000  0000000               00000000                000000000000000000000000       00000000               0000000  7218B01
01170577                   CALPINE CONTAINERS, INC. 380 W. SPRUCE AVE                                 CLOVIS                   CA93611              5595197199999999999 5823926036000006039201707102017071020220710 060 057 00317RGHT      ATT       20220510 0013516 0000000 0040548 0079084 0000000 0000000000                20220421              0079084000000          00000000  0000000               00000000                000000000000000000000000       00000000               0000000  7218B01
01170578                   CALPINE CONTAINERS, INC. 380 W. SPRUCE AVE                                 CLOVIS                   CA93611              5595197199999999999 5823926036000006039201707102017071020220710 060 057 00317RGHT      ATT       20220510 0013516 0000000 0040548 0079084 0000000 0000000000                20220421              0079084000000          00000000  0000000               00000000                000000000000000000000000       00000000               0000000  7218B01
01170581                   CALPINE CONTAINERS, INC. 380 W. SPRUCE AVE                                 CLOVIS                   CA93611              5595197199999999999 5823926036000006039201707102017071020220710 060 057 00317RGHT      ATT       20220510 0013516 0000000 0040548 0079084 0000000 0000000000                20220421              0079084000000          00000000  0000000               00000000                000000000000000000000000       00000000               0000000  7218B01
01170582                   CALPINE CONTAINERS, INC. 380 W. SPRUCE AVE                                 CLOVIS                   CA93611              5595197199999999999 5823926036000006039201707102017071020220710 060 057 00317RGHT      ATT       20220510 0013516 0000000 0040548 0079084 0000000 0000000000                20220421              0079084000000          00000000  0000000               00000000                000000000000000000000000       00000000               0000000  7218B01
01P1F2-9H22016             CALPINE CONTAINERS, INC. 380 W. SPRUCE AVE                                 CLOVIS                   CA93611              5595197199999999999 5823926037000006039201712132017121320221213 060 052 00817UCA       P50L      20220513 0036564 0000000 0292512 0987495 0000000 0000000000                20220421              0987495000000          00000000  0000000               00000000                000000000000000000000000       00000000               0000000  7218B01
01P1F2-9H22181             CALPINE CONTAINERS, INC. 380 W. SPRUCE AVE                                 CLOVIS                   CA93611              5595197199999999999 5823926037000006039201712132017121320221213 060 052 00817UCA       P50L      20220513 0036564 0000000 0292512 0987495 0000000 0000000000                20220421              0987495000000          00000000  0000000               00000000                000000000000000000000000       00000000               0000000  7218B01
01P1F1-9G21145             CALPINE CONTAINERS, INC. 380 W. SPRUCE AVE                                 CLOVIS                   CA93611              5595197199999999999 5823926038000006039201712132017121320221213 060 052 00817UCA       P35       20220513 0032868 0000000 0262944 0889955 0000000 0000000000                20220421              0889955000000          00000000  0000000               00000000                000000000000000000000000       00000000               0000000  7218B01
01CP1F2-9W26916            CAPE COD EXPRESS, INC.   1 EXPRESS DR                                      WAREHAM                  MA02571              5082911600999999999   37874459000006063201802092018020920230209 060 050 01018UCA       F50L      20220509 0046452 0000000 0464520 0000000 0000000 0000000000                20220421              0000000000000          00000000  0000000               00000000                000000000000000000000000       00000000               0000000  7318B20
01CP1F2-9W26915            CAPE COD EXPRESS, INC.   1 EXPRESS DR                                      WAREHAM                  MA02571              5082911600999999999   37874459000006063201802092018020920230209 060 050 01018UCA       F50L      20220509 0046452 0000000 0464520 0000000 0000000 0000000000                20220421              0000000000000          00000000  0000000               00000000                000000000000000000000000       00000000               0000000  7318B20
01CP1F2-9W26914            CAPE COD EXPRESS, INC.   1 EXPRESS DR                                      WAREHAM                  MA02571              5082911600999999999   37874459000006063201802092018020920230209 060 050 01018UCA       F50L      20220509 0046452 0000000 0464520 0000000 0000000 0000000000                20220421              0000000000000          00000000  0000000               00000000                000000000000000000000000       00000000               0000000  7318B20
01CP1F2-9W26902            CAPE COD EXPRESS, INC.   1 EXPRESS DR                                      WAREHAM                  MA02571              5082911600999999999   37874459000006063201802092018020920230209 060 050 01018UCA       F50L      20220509 0046452 0000000 0464520 0000000 0000000 0000000000                20220421              0000000000000          00000000  0000000               00000000                000000000000000000000000       00000000               0000000  7318B20
01CP1F2-9P8589             CAPITOL CONTAINER, INC.  P O BOX 211087                                    MONTGOMERY               AL36121    3342775644          999999999    5875911000006020201208132012081320170813 060 116-05612NISS      F50L      20170713 0046382 0000000 0000000 0000000 0000000 0000000000                20220421              0000000000000          00000000  0000000               00000000                000000000000000000000000       00000000               0000000  7318B20
011312635-T1               CAPITOL CONTAINER, INC.  P O BOX 211087                                    MONTGOMERY               AL36121    3342775644          999999999    5875911000006020201208132012081320170813 060 116-05612CASC      ATT       20170713 0019300 0000000 0000000 0000000 0000000 0000000000                20220421              0000000000000          00000000  0000000               00000000                000000000000000000000000       00000000               0000000  7318B20
01AP1F2-9U21544            CARPET STORE INC.        2860 22ND AVE N                                   ST. PETERSBURG           FL33713    7273219590          999999999   37068915000006101201705312017053120220531 060 058 00217UCA       A50L      20220430 0048067 0000000 0096134 0000000 0000000 0000000000                20220421              0000000000000          00000000  0000000               00000000                000000000000000000000000       00000000               0000000  7318B20
01SM1H2-9Y1097             CARTER FUEL SYSTEMS, LLC 600 EKCA LANE                                     BROWNSVILLE              TX78521    9565442722          999999999   36944674000006021201709132017091320220913 060 055 00517UCA       1X35      20220513 0068600 0000000 0343000 0707035 0000000 0000000068                20220421              0707035000000          00000000  0000000               00000000                000000000000000000000000       00000000               0000000  7218B01
01AP1F1-9T20736            CELLOFOAM NORTH AMERICA I1977 WEAVER COURT                                 CONYERS                  GA30013    77092936889187787780999999999   38457893000006070201803082018030820220330 048 049-00118UCA       A30L      20220430 0030500 0000000 0000000 0810442 0000000 0000000023                20220421  20220308    0810442000000          00000000  0000000               00000000                000000000000000000000000       00000000               0000000  7218B01
01AP1F2-9U21458            CER-O-GLASS TECHNOLOGIES,P.O. BOX 1730                                     COLUMBIA                 TN38401    93156041749313885900999999999 3245708502000006026201802142018021420220214 048 050-00218UCA       A50L      20220514 0041311 0000000 0000000 1109160 0000000 0000000000                20220421  20220125    1109160000000          00000000  0000000               00000000                000000000000000000000000       00000000               0000000  7218B01
01CUG1F2-9R20543           CERTEX USA INC.          1721 W. CULVER ST.                                PHOENIX                  AZ85007              6022710476999999999   36406880000006103201702072017020720220207 060 062-00217UCA       F80L      20220507 0042770 0000000 0000000 1046730 0000000 0000000000                20220421  20220118    1046730000000          00000000  0000000               00000000                000000000000000000000000       00000000               0000000  7218B01
01P1F2-9H22734             CFP, LLC.                PO BOX 23309                                      JACKSON                  MS39225    60193258096017606000999999999   38428669000006095201803072018030720230307 060 049 01118UCA       P50L      20220507 0046728 0000000 0514008 0000000 0000000 0000000000                20220421              0000000000000          00000000  0000000               00000000                000000000000000000000000       00000000               0000000  7318B20
01P1F2-9H22223             CFP, LLC.                PO BOX 23309                                      JACKSON                  MS39225    60193258096017606000999999999   38428669000006095201803072018030720230307 060 049 01118UCA       P50L      20220507 0046728 0000000 0514008 0000000 0000000 0000000000                20220421              0000000000000          00000000  0000000               00000000                000000000000000000000000       00000000               0000000  7318B20
01CJ1B1-991225             CHACEWATER, INC.         5625 GADDY LA                                     KELSEYVILLE              CA95451    5309137204          999999999   37873071000006103201710252017102520221025 060 053 00717UCA       BC30      20220425 0048517 0000000 0339619 0000000 0000000 0000000000                20220421              0000000000000          00000000  0000000               00000000                000000000000000000000000       00000000               0000000  7318B20
01UG1F2-9L20848            CHAMPION HOME BUILDERS, I200 VENTURE LANE                                  BENTON                   KY12025    73136446337313644607999999999   34890746000006064201610192016101920221019 072 066 00616UCA       P60L      20220519 0045798 0000000 0274788 0000000 0000000 0000000000                20220421              0000000000000          00000000  0000000               00000000                000000000000000000000000       00000000               0000000  7318B20
01UG1F2-9L20849            CHAMPION HOME BUILDERS, I200 VENTURE LANE                                  BENTON                   KY12025    73136446337313644607999999999   34890746000006064201610192016101920221019 072 066 00616UCA       P60L      20220519 0045798 0000000 0274788 0000000 0000000 0000000000                20220421              0000000000000          00000000  0000000               00000000                000000000000000000000000       00000000               0000000  7318B20
01UG1F2-9L20850            CHAMPION HOME BUILDERS, I200 VENTURE LANE                                  BENTON                   KY12025    73136446337313644607999999999   34890746000006064201610192016101920221019 072 066 00616UCA       P60L      20220519 0045798 0000000 0274788 0000000 0000000 0000000000                20220421              0000000000000          00000000  0000000               00000000                000000000000000000000000       00000000               0000000  7318B20
01UG1F2-9L21305            CHAMPION HOME BUILDERS, I2073 Evergreen Road                               Dresden                  TN38225    73136446337313644607999999999   36846592000006064201705102017051020220510 060 059 00117UCA       P60L      20220410 0037700 0000000 0037700 1059110 0000000 0000000000                20220421              1059110000000          00000000  0000000               00000000                000000000000000000000000       00000000               0000000  7218B01
01NA05183Z                 CHAR-BROIL LLC           PO BOX 1240                                       COLUMBUS                 GA31902              7065717000999999999   37181722000006020201707032017070320220703 060 057 00317FLEX      VNA       20220503 0123540 0000000 0370620 0000000 0000000 0000000000                20220421              0000000000000          00000000  0000000               00000000                000000000000000000000000       00000000               0000000  7318B20
01CP1F2-9W26481            CHAR-BROIL LLC           PO BOX 1240                                       COLUMBUS                 GA31902              7065717000999999999   37685358000006020201801082018010820230108 060 051 00917UCA       F50L      20220508 0047056 0000000 0423504 0000000 0000000 0000000000                20220421              0000000000000          00000000  0000000               00000000                000000000000000000000000       00000000               0000000  7318B20
01CP1F2-9W26459            CHAR-BROIL LLC           PO BOX 1240                                       COLUMBUS                 GA31902              7065717000999999999   37685358000006020201801082018010820230108 060 051 00917UCA       F50L      20220508 0047056 0000000 0423504 0000000 0000000 0000000000                20220421              0000000000000          00000000  0000000               00000000                000000000000000000000000       00000000               0000000  7318B20
01CP1F2-9W26460            CHAR-BROIL LLC           PO BOX 1240                                       COLUMBUS                 GA31902              7065717000999999999   37685358000006020201801082018010820230108 060 051 00917UCA       F50L      20220508 0047056 0000000 0423504 0000000 0000000 0000000000                20220421              0000000000000          00000000  0000000               00000000                000000000000000000000000       00000000               0000000  7318B20
01CP1F2-9W26486            CHAR-BROIL LLC           PO BOX 1240                                       COLUMBUS                 GA31902              7065717000999999999   37685358000006020201801082018010820230108 060 051 00917UCA       F50L      20220508 0047056 0000000 0423504 0000000 0000000 0000000000                20220421              0000000000000          00000000  0000000               00000000                000000000000000000000000       00000000               0000000  7318B20
01CP1F2-9W26489            CHAR-BROIL LLC           PO BOX 1240                                       COLUMBUS                 GA31902              7065717000999999999   37685358000006020201801082018010820230108 060 051 00917UCA       F50L      20220508 0047056 0000000 0423504 0000000 0000000 0000000000                20220421              0000000000000          00000000  0000000               00000000                000000000000000000000000       00000000               0000000  7318B20
01PTL2277437-1R3           CHAR-BROIL LLC           PO BOX 1240                                       COLUMBUS                 GA31902              7065717000999999999   37685358000006020201801082018010820230108 060 051 00917CASC      ATT       20220508 0017463 0000000 0157167 0000000 0000000 0000000000                20220421              0000000000000          00000000  0000000               00000000                000000000000000000000000       00000000               0000000  7318B20
01PTL2295343-1R3           CHAR-BROIL LLC           PO BOX 1240                                       COLUMBUS                 GA31902              7065717000999999999   37685358000006020201801082018010820230108 060 051 00917CASC      ATT       20220508 0017463 0000000 0157167 0000000 0000000 0000000000                20220421              0000000000000          00000000  0000000               00000000                000000000000000000000000       00000000               0000000  7318B20
01PTL2295343-2R3           CHAR-BROIL LLC           PO BOX 1240                                       COLUMBUS                 GA31902              7065717000999999999   37685358000006020201801082018010820230108 060 051 00917CASC      ATT       20220508 0017463 0000000 0157167 0000000 0000000 0000000000                20220421              0000000000000          00000000  0000000               00000000                000000000000000000000000       00000000               0000000  7318B20
01PTL2295343-3R3           CHAR-BROIL LLC           PO BOX 1240                                       COLUMBUS                 GA31902              7065717000999999999   37685358000006020201801082018010820230108 060 051 00917CASC      ATT       20220508 0017463 0000000 0157167 0000000 0000000 0000000000                20220421              0000000000000          00000000  0000000               00000000                000000000000000000000000       00000000               0000000  7318B20
01PTL2295343-4R3           CHAR-BROIL LLC           PO BOX 1240                                       COLUMBUS                 GA31902              7065717000999999999   37685358000006020201801082018010820230108 060 051 00917CASC      ATT       20220508 0017463 0000000 0157167 0000000 0000000 0000000000                20220421              0000000000000          00000000  0000000               00000000                000000000000000000000000       00000000               0000000  7318B20
01CJ1B1-991300             CHECK POINT SYSTEMS, INC.1510 4TH ST SE                                    CANTON                   OH44707    3304567776          999999999   37621071000006067201710302017103020221230 062 053 00917UCA       BC30      20220430 0035940 0000000 0323460 0792263 0000000 0000000000                20220421              0792263000000          00000000  0000000               00000000                000000000000000000000000       00000000               0000000  7218B01
01CJ1B1-991299             CHECK POINT SYSTEMS, INC.1510 4TH ST SE                                    CANTON                   OH44707    3304567776          999999999   37621071000006067201710302017103020221230 062 053 00917UCA       BC30      20220430 0035940 0000000 0323460 0792263 0000000 0000000000                20220421              0792263000000          00000000  0000000               00000000                000000000000000000000000       00000000               0000000  7218B01
01CJ1B1-991302             CHECK POINT SYSTEMS, INC.1510 4TH ST SE                                    CANTON                   OH44707    3304567776          999999999   37621071000006067201710302017103020221230 062 053 00917UCA       BC30      20220430 0035940 0000000 0323460 0792263 0000000 0000000000                20220421              0792263000000          00000000  0000000               00000000                000000000000000000000000       00000000               0000000  7218B01
01CJ1B1-991301             CHECK POINT SYSTEMS, INC.1510 4TH ST SE                                    CANTON                   OH44707    3304567776          999999999   37621071000006067201710302017103020221230 062 053 00917UCA       BC30      20220430 0035940 0000000 0323460 0792263 0000000 0000000000                20220421              0792263000000          00000000  0000000               00000000                000000000000000000000000       00000000               0000000  7218B01
