011N6BF0LY1HN811892        1919 TRUCKING LLC        1919 E. 52ND ST                                   INDIANAPOLIS             IN46205              3176414673999999999 1000003497000002210201712072017121020230210 062 052 01017NSSN      6221      20220510 0050521 0000000 0505210 0805119 0000000 0000000000                20220421              0805119000000          00000000  0000000               00000000                000000000000000000000000       00000000               0000000  74L5B30
011N6BF0LY4HN805147        1919 TRUCKING LLC        1919 E. 52ND ST                                   INDIANAPOLIS             IN46205              3176414673999999999 1000003498000002210201712072017121020230210 062 052 01017NSSN      6221      20220510 0050521 0000000 0505210 0805119 0000000 0000000000                20220421              0805119000000          00000000  0000000               00000000                000000000000000000000000       00000000               0000000  74L5B30
011N6AA1R78HN529957        5 SEASONS MECHANICAL LLC 6971 PEACHTREE INDUSTRIAL                         PEACHTREE                GA30092571877083730786787720942999999999 1000002940000002479201704142017051020220510 060 059 00117NSSN      3611      20220410 0052970 0000000 0052970 0660750 0000000 0000000000                20220421              0660750000000          00000000  0000000               00000000                000000000000000000000000       00000000               0000000  7425B30
011N6AA1R74HN527946        5 SEASONS MECHANICAL LLC 6971 PEACHTREE INDUSTRIAL                         PEACHTREE                GA30092571877083730786787720942999999999 1000002942000002479201704142017051020220510 060 059 00117NSSN      3611      20220410 0046309 0000000 0046309 0577660 0000000 0000000000                20220421              0577660000000          00000000  0000000               00000000                000000000000000000000000       00000000               0000000  7425B30
011N6BF0KMXGN810821        5 SEASONS MECHANICAL LLC 6971 PEACHTREE INDUSTRIAL                         PEACHTREE                GA30092571877083730786787720942999999999 1000003462000002479201711032017111020221110 060 053 00716NSSN      6011      20220510 0043703 0000000 0305921 0696453 0000000 0000000000                20220421              0696453000000          00000000  0000000               00000000                000000000000000000000000       00000000               0000000  74L5B30
011N6AF0KY0JN807769        512 BREWING COMPANY, LLC 407 RADAM                                         Austin                   TX78745              5129228093999999999 1000004933000000266201905092019051020220710 038 035 00318NSSN      6171      20220510 0094208 0000000 0282624 0334454 0000000 0000000000                20220421              0334454000000          00000000  0000000               00000000                000000000000000000000000       00000000               0000000  74L5B30
013N6CM0KN0HK699139        9 MILES EAST SARATOGA LLC64 EXCELSIOR AVE                                  SARATOGA SPRINGS         NY12866              5182239872999999999 1000002722000003568201612292017011020220110 060 063-00317NSSN      6721      20220510 0033330 0000000 0000000 0566838 0000000 0000000000                20220421  20220223    0000000000000          00000000  0000000               00000000                000000000000000000000000       00000000               0000000  74L5B30
013N6CM0KN9HK702443        9 MILES EAST SARATOGA LLC64 EXCELSIOR AVE                                  SARATOGA SPRINGS         NY12866              5182239872999999999 1000003365000003568201709302017101020221010 060 054 00617NSSN      6711      20220510 0031594 0000000 0189564 0509588 0000000 0000000000                20220421              0509588000000          00000000  0000000               00000000                000000000000000000000000       00000000               0000000  74L5B30
011N6BF0KMXGN815100        A I THOMAS, LLC          220 Ponte Vedra Park Dr  Suite 140                Ponte Vedra              FL32082    90452468639043730198999999999 1000002688000001226201612122017011020230110 072 063 00916NSSN      6021      20220510 0046564 0000000 0419076 0481050 0000000 0000000043                20220421              0481050000000          00000000  0000000               00000000                000000000000000000000000       00000000               0000000  74L5B30
011N6BF0KM2GN815091        A I THOMAS, LLC          220 Ponte Vedra Park Dr  Suite 140                Ponte Vedra              FL32082    90452468639043730198999999999 1000002689000001226201612122017011020230110 072 063 00916NSSN      6021      20220510 0046564 0000000 0419076 0481050 0000000 0000000043                20220421              0481050000000          00000000  0000000               00000000                000000000000000000000000       00000000               0000000  74L5B30
011N6BF0KM0GN815641        A I THOMAS, LLC          220 Ponte Vedra Park Dr  Suite 140                Ponte Vedra              FL32082    90452468639043730198999999999 1000002733000001226201701102017011020230110 072 063 00916NSSN      6021      20220510 0046891 0000000 0422019 0480990 0000000 0000000043                20220421              0480990000000          00000000  0000000               00000000                000000000000000000000000       00000000               0000000  74L5B30
011N6BF0KM7HN801270        A I THOMAS, LLC          220 Ponte Vedra Park Dr  Suite 140                Ponte Vedra              FL32082    90452468639043730198999999999 1000002819000001226201702162017031020230310 072 061 01117NSSN      6021      20220510 0048610 0000000 0534710 0498630 0000000 0000000043                20220421              0498630000000          00000000  0000000               00000000                000000000000000000000000       00000000               0000000  74L5B30
011N6AA1EJ8HN547117        A.D.A. ENGINEERING, INC. 8550 NW 33 ST            Apt 202                  Miami                    FL33122              3055514608999999999 1000003190000002748201708042017081020220810 060 056 00417NSSN      3801      20220510 0057479 0000000 0229916 0915992 0000000 0000000000                20220421              0915992000000          00000000  0000000               00000000                000000000000000000000000       00000000               0000000  7425B30
011N6AA1F45KN526466        AAR TESTING LABORATORIES,7126 180TH AVE NE        Apt C101                 Redmond                  WA98052              4258815812999999999 1000005659000000256202003112020041020230410 036 024 01219NSSN      5361      20220510 0097154 0000000 1165848 2378543 0000000 0000000000                20220421              2378543000000          00000000  0000000               00000000                000000000000000000000000       00000000               0000000  7425B30
011N6AF0LY9FN800518        AC HEATING & AIR, LLC    660 HARBOR ST                                     CONNEAUT                 OH44030              4402286355999999999 1000002812000003813201702282017031020230310 072 061 01115NSSN      6271      20220510 0048330 0000000 0531630 0507734 0000000 0000000000                20220421              0507734000000          00000000  0000000               00000000                000000000000000000000000       00000000               0000000  74L5B30
013N6CM0KN4JK701335        AC/DC SYNERGY GROUP, INC.623 S CHESTNUT STE B                              Tomball                  TX77375    28162209652815161114999999999 1000004649000003511201901312019021020230410 050 038 01218NSSN      6721      20220510 0043316 0000000 0519792 0442122 0000000 0000000000                20220421              0442122000000          00000000  0000000               00000000                000000000000000000000000       00000000               0000000  74L5B30
011N6AA1EJ7HN537839        ACCELERATED COMMUNICATION3311 GULF BREEZE PKWY #18                         GULF BREEZE              FL32563              8507339000999999999 1000002944000001596201704122017051020210510 048 059-01117NSSN      3801      20220510 0057679 0000000 0000000 1226645 0000000 0000000000                20220421  20220210    0000000000000          00000000  0000000               00000000                000000000000000000000000       00000000               0000000  7425B30
011N6BF0KM6GN809049        ADRIAN WIKE dba DELI STYL1840 SUNNYBROOK RD                                Greenville               NC27834              2527587827999999999 1000002263000002957201605312016061020210610 060 070-01016NSSN      6021      20220510 0028839 0000000 0000000 0459580 0000000 0000000000                20220421  20210521    0000000000000          00000000  0000000               00000000                000000000000000000000000       00000000               0000000  74L5B30
011N6BF0KM5GN813271        ADVANCED THERAPEUTICS INC4500 S. GARNETT RD                                TULSA                    OK74146              3017256690999999999 1000002843000002578201703162017041020220410 060 060 00016NSSN      6011      20220310 0044046 0000000 0000000 0688225 0000000 0000000000                20220421              0688225000000          00000000  0000000               00000000                000000000000000000000000       00000000               0000000  74L5B30
013N1CN8DV4LL843292        AGGRESSIVE LEGAL SERVICES4110 TRUXEL RD           SUITE 150                SACRAMENTO               CA95834    91628116949163623553999999999 1000005491000000270202001032020011020220310 026 027-00120NSSN      1011      20220210 0040410 0000000 0000000 0000000 0000000 0000000000                20220421              0000000000000          00000000  0000000               00000000                000000000000000000000000       00000000               0000000  7425B30
013N1CN8DV4LL839422        AGGRESSIVE LEGAL SERVICES4110 TRUXEL RD           SUITE 150                SACRAMENTO               CA95834    91628116949163623553999999999 1000005683000000270202003122020041020220710 027 024 00320NSSN      1011      20220510 0040556 0000000 0121668 0859488 0000000 0000000043                20220421              0859488000000          00000000  0000000               00000000                000000000000000000000000       00000000               0000000  7425B30
013N6CM0KN4JK694693        AGLC INVESTMENT,CORP     18625 SW 107TH           Apt 12                   Miami                    FL33157              7862607748999999999 1000003729000002748201803262018041020230410 060 048 01218NSSN      6711      20220510 0033391 0000000 0400692 0527913 0000000 0000000000                20220421              0527913000000          00000000  0000000               00000000                000000000000000000000000       00000000               0000000  74L5B30
011N6BF0KM6HN800353        AIR ENTERPRISES LLC      735 GLASER PK                                     Akron                    OH44306              3307949770999999999 1000002803000002121201702212017031020210510 050 061-01117NSSN      6011      20220510 0058697 0000000 0000000 0767282 0000000 0000000000                20220421  20210910    0000000000000          00000000  0000000               00000000                000000000000000000000000       00000000               0000000  74L5B30
011N6BF0KM3HN801864        AIR ENTERPRISES LLC      735 GLASER PK                                     Akron                    OH44306              3307949770999999999 1000002814000002121201702212017031020210510 050 061-01117NSSN      6011      20220510 0058451 0000000 0000000 0764063 0000000 0000000000                20220421  20210910    0000000000000          00000000  0000000               00000000                000000000000000000000000       00000000               0000000  74L5B30
011N6BF0KYXHN804506        AIR FLOW DESIGNS INC     250 JASMINE                                       Casselberry              FL32707              4078313600999999999 1000002945000001226201704122017051020220510 060 059 00117NSSN      6121      20220410 0045622 0000000 0045622 0024701 0000000 0000000000                20220421              0024701000000          00000000  0000000               00000000                000000000000000000000000       00000000               0000000  74L5B30
011N6BF0KY9HN802424        AIR FLOW DESIGNS INC     250 JASMINE                                       Casselberry              FL32707              4078313600999999999 1000002970000001226201704122017051020220510 060 059 00117NSSN      6121      20220410 0045622 0000000 0045622 0024701 0000000 0000000000                20220421              0024701000000          00000000  0000000               00000000                000000000000000000000000       00000000               0000000  74L5B30
013N6CM0KN8HK707651        AIR FLOW DESIGNS INC     250 JASMINE                                       Casselberry              FL32707              4078313600999999999 1000002971000001226201704122017051020220510 060 059 00117NSSN      6721      20220410 0030057 0000000 0030057 0016274 0000000 0000000000                20220421              0016274000000          00000000  0000000               00000000                000000000000000000000000       00000000               0000000  74L5B30
011N6BF0KY1HN802241        AIR FLOW DESIGNS INC     250 JASMINE                                       Casselberry              FL32707              4078313600999999999 1000002973000001226201704252017051020220510 060 059 00117NSSN      6121      20220410 0045622 0000000 0045622 0024701 0000000 0000000000                20220421              0024701000000          00000000  0000000               00000000                000000000000000000000000       00000000               0000000  74L5B30
011N6BF0KY4HN801942        AIR FLOW DESIGNS INC     250 JASMINE                                       Casselberry              FL32707              4078313600999999999 1000002974000001226201704252017051020220510 060 059 00117NSSN      6121      20220410 0045622 0000000 0045622 0024701 0000000 0000000000                20220421              0024701000000          00000000  0000000               00000000                000000000000000000000000       00000000               0000000  74L5B30
013N6CM0KN9HK695834        AIR FLOW DESIGNS INC     250 JASMINE                                       Casselberry              FL32707              4078313600999999999 1000002976000001226201704122017051020220510 060 059 00117NSSN      6721      20220410 0030057 0000000 0030057 0016274 0000000 0000000000                20220421              0016274000000          00000000  0000000               00000000                000000000000000000000000       00000000               0000000  74L5B30
011N6BF0KY6HN800954        AIR FLOW DESIGNS INC     250 JASMINE                                       Casselberry              FL32707              4078313600999999999 1000003046000001226201705092017051020220510 060 059 00117NSSN      6121      20220410 0045622 0000000 0045622 0024701 0000000 0000000000                20220421              0024701000000          00000000  0000000               00000000                000000000000000000000000       00000000               0000000  74L5B30
011N6BF0KY5HN805868        AIR FLOW DESIGNS INC     250 JASMINE                                       Casselberry              FL32707              4078313600999999999 1000003047000001226201705092017051020220510 060 059 00117NSSN      6121      20220410 0045622 0000000 0045622 0024701 0000000 0000000000                20220421              0024701000000          00000000  0000000               00000000                000000000000000000000000       00000000               0000000  74L5B30
013N6CM0KN1HK709340        AIR FLOW DESIGNS INC     250 JASMINE                                       Casselberry              FL32707              4078313600999999999 1000003048000001226201705092017051020220510 060 059 00117NSSN      6721      20220410 0029881 0000000 0029881 0016179 0000000 0000000000                20220421              0016179000000          00000000  0000000               00000000                000000000000000000000000       00000000               0000000  74L5B30
011N6BF0KM6JN814579        AIRTEAM, LTD.            6119 WESTVIEW DR                                  Houston                  TX77055              7139568326999999999 1000004986000002269201905242019061020220610 036 034 00218NSSN      6021      20220510 0064304 0000000 0128608 1563196 0000000 0000000000                20220421              1563196000000          00000000  0000000               00000000                000000000000000000000000       00000000               0000000  74L5B30
011N6BF0KM6JN809026        AIRTEAM, LTD.            6119 WESTVIEW DR                                  Houston                  TX77055              7139568326999999999 1000005135000002269201907182019081020220810 036 032 00418NSSN      6021      20220510 0063151 0000000 0252604 1559601 0000000 0000000000                20220421              1559601000000          00000000  0000000               00000000                000000000000000000000000       00000000               0000000  74L5B30
011N6BF0KM4JN814242        AIRTEAM, LTD.            6119 WESTVIEW DR                                  Houston                  TX77055              7139568326999999999 1000005136000002269201907182019081020220810 036 032 00418NSSN      6021      20220510 0063151 0000000 0252604 1559601 0000000 0000000000                20220421              1559601000000          00000000  0000000               00000000                000000000000000000000000       00000000               0000000  74L5B30
011N6BF0KM9JN814334        AIRTEAM, LTD.            6119 WESTVIEW DR                                  Houston                  TX77055              7139568326999999999 1000005137000002269201907182019081020220810 036 032 00418NSSN      6021      20220510 0063151 0000000 0252604 1559601 0000000 0000000000                20220421              1559601000000          00000000  0000000               00000000                000000000000000000000000       00000000               0000000  74L5B30
013N6CM0KNXEK700941        AKISHA NETWORKS INC      5868A-1 WESTHEIMER                                HOUSTON                  TX77021              7138407424999999999 1000001586000002688201506182015071020210710 072 081-00914NSSN      6721      20220310 0036695 0000000 0000000 0362993 0000000 0000000000                20220421  20210924    0000000000000          00000000  0000000               00000000                000000000000000000000000       00000000               0000000  74L5B30
013N6CM0KN2EK702070        AKISHA NETWORKS INC      5868A-1 WESTHEIMER                                HOUSTON                  TX77021              7138407424999999999 1000001615000002688201506182015071020210710 072 081-00914NSSN      6721      20220310 0036073 0000000 0000000 0356842 0000000 0000000000                20220421  20210924    0000000000000          00000000  0000000               00000000                000000000000000000000000       00000000               0000000  74L5B30
013N6CM0KN0HK716876        ALL GREEK LLC            2000 E RIO SALADO PK     #1229                    TEMPE                    AZ85281    48027869224805577482999999999 1000003489000002879201712012017121020211210 048 052-00417NSSN      6721      20220510 0039826 0000000 0000000 0840753 0000000 0000000000                20220421  20211214    0000000000000          00000000  0000000               00000000                000000000000000000000000       00000000               0000000  74L5B30
011N6BF0LY8KN802839        ALL PHASE CARPENTRY INC  102 SWEET MARTHA DR                               Mooresville              NC28115              7042520851999999999 1000004836000002960201904012019041020220610 038 036 00219NSSN      6211      20220510 0073170 0000000 0146340 1416880 0000000 0000000000                20220421              1416880000000          00000000  0000000               00000000                000000000000000000000000       00000000               0000000  74L5B30
013N6CM0KN1HK706115        ALLIANCE COMMERCIAL PEST 1 STEVEN AV                                       TINTON FALLS             NJ07724    73249600067327473200999999999 1000002907000002411201703312017041020210610 050 060-01017NSSN      6711      20220510 0033656 0000000 0000000 0734425 0000000 0000000000                20220421  20210607    0000000000000          00000000  0000000               00000000                000000000000000000000000       00000000               0000000  74L5B30
013N6CM0KN4HK713169        ALLIANCE COMMERCIAL PEST 1 STEVEN AV                                       TINTON FALLS             NJ07724    73249600067327473200999999999 1000003565000002411201712072017121020220610 054 052 00217NSSN      6711      20220510 0034007 0000000 0068014 0772084 0000000 0000000000                20220421              0772084000000          00000000  0000000               00000000                000000000000000000000000       00000000               0000000  74L5B30
013N6CM0KN6JK692945        ALLIANCE COMMERCIAL PEST 1 STEVEN AV                                       TINTON FALLS             NJ07724    73249600067327473200999999999 1000003842000001282201804202018051020221110 054 047 00718NSSN      6711      20220510 0031379 0000000 0219653 0697760 0000000 0000000000                20220421              0697760000000          00000000  0000000               00000000                000000000000000000000000       00000000               0000000  74L5B30
013N6CM0KN4JK692569        ALLIANCE COMMERCIAL PEST 1 STEVEN AV                                       TINTON FALLS             NJ07724    73249600067327473200999999999 1000003846000001282201804252018051020221110 054 047 00718NSSN      6711      20220510 0030877 0000000 0216139 0686592 0000000 0000000000                20220421              0686592000000          00000000  0000000               00000000                000000000000000000000000       00000000               0000000  74L5B30
013N6CM0KNXJK694388        ALLSTATE SALES GROUP, INC670 NORTH BEERS ST       BUILDING 3               HOLMDEL                  NJ07733              7323355588999999999 1000003848000001282201804302018051020220510 048 047 00118NSSN      6711      20220410 0038901 0000000 0038901 0811322 0000000 0000000000                20220421              0811322000000          00000000  0000000               00000000                000000000000000000000000       00000000               0000000  74L5B30
013N6CM0KNXHK714469        ALLSTATE SALES GROUP, INC670 NORTH BEERS ST       BUILDING 3               HOLMDEL                  NJ07733              7323355588999999999 1000003850000001282201804302018051020220510 048 047 00117NSSN      6711      20220410 0037538 0000000 0037538 0782893 0000000 0000000000                20220421              0782893000000          00000000  0000000               00000000                000000000000000000000000       00000000               0000000  74L5B30
013N6CM0KN8HK708167        ALLSTATE SALES GROUP, INC670 NORTH BEERS ST       BUILDING 3               HOLMDEL                  NJ07733              7323355588999999999 1000003869000001282201804302018051020220510 048 047 00117NSSN      6721      20220410 0037468 0000000 0037468 0781422 0000000 0000000000                20220421              0781422000000          00000000  0000000               00000000                000000000000000000000000       00000000               0000000  74L5B30
013N6CM0KN4HK708053        ALLSTATE SALES GROUP, INC670 NORTH BEERS ST       BUILDING 3               HOLMDEL                  NJ07733              7323355588999999999 1000003871000001282201804302018051020220510 048 047 00117NSSN      6721      20220410 0039146 0000000 0039146 0816436 0000000 0000000000                20220421              0816436000000          00000000  0000000               00000000                000000000000000000000000       00000000               0000000  74L5B30
013N6CM0KN1JK699222        ALLSTATE SALES GROUP, INC670 NORTH BEERS ST       BUILDING 3               HOLMDEL                  NJ07733              7323355588999999999 1000003933000001282201805292018061020220610 048 046 00218NSSN      6711      20220510 0038561 0000000 0077122 0804230 0000000 0000000000                20220421              0804230000000          00000000  0000000               00000000                000000000000000000000000       00000000               0000000  74L5B30
013N6CM0KN2JK699360        ALLSTATE SALES GROUP, INC670 NORTH BEERS ST       BUILDING 3               HOLMDEL                  NJ07733              7323355588999999999 1000003934000001282201805292018061020220610 048 046 00218NSSN      6711      20220510 0038561 0000000 0077122 0804230 0000000 0000000000                20220421              0804230000000          00000000  0000000               00000000                000000000000000000000000       00000000               0000000  74L5B30
011N6BD0CT1JN722887        ALLSTATE SALES GROUP, INC670 NORTH BEERS ST       BUILDING 3               HOLMDEL                  NJ07733              7323355588999999999 1000003935000001282201805292018061020220610 048 046 00218NSSN      3111      20220510 0039971 0000000 0079942 0833648 0000000 0000000000                20220421              0833648000000          00000000  0000000               00000000                000000000000000000000000       00000000               0000000  7425B30
013N6CM0KN2JK699410        ALLSTATE SALES GROUP, INC670 NORTH BEERS ST       BUILDING 3               HOLMDEL                  NJ07733              7323355588999999999 1000003936000001282201805292018061020220610 048 046 00218NSSN      6711      20220510 0038561 0000000 0077122 0804230 0000000 0000000000                20220421              0804230000000          00000000  0000000               00000000                000000000000000000000000       00000000               0000000  74L5B30
013N6CM0KN7JK699421        ALLSTATE SALES GROUP, INC670 NORTH BEERS ST       BUILDING 3               HOLMDEL                  NJ07733              7323355588999999999 1000003997000001282201806152018071020220710 048 045 00318NSSN      6711      20220510 0038951 0000000 0116853 0812373 0000000 0000000000                20220421              0812373000000          00000000  0000000               00000000                000000000000000000000000       00000000               0000000  74L5B30
013N6CM0KN7HK705194        ALPHA MECHANICAL, INC.   1866 FRIENDSHIP DR                                EL CAJON                 CA92020              8582783500999999999 1000003311000002585201709182017101020221010 060 054 00617NSSN      6721      20220510 0034024 0000000 0204144 0539644 0000000 0000000000                20220421              0539644000000          00000000  0000000               00000000                000000000000000000000000       00000000               0000000  74L5B30
011N6AD0FV8HN738734        AMERICAN DRONE SERVICES  75 S WASHINGTON ST #202                           DENVER                   CO80209    48020173727207728123999999999 1000003424000003671201711072017111020221110 060 053 00717NSSN      3361      20220510 0048210 0000000 0337470 0647988 0000000 0000000000                20220421              0647988000000          00000000  0000000               00000000                000000000000000000000000       00000000               0000000  7425B30
011N6BF0KYXJN815866        AMERICAN EAGLE SYSTEMS, I1715 LITTLE ORCHARD ST                            SAN JOSE                 CA95125              4089688982999999999 1000005283000003381201909182019101020221010 036 030 00618NSSN      6121      20220510 0061335 0000000 0368010 1460136 0000000 0000000000                20220421              1460136000000          00000000  0000000               00000000                000000000000000000000000       00000000               0000000  74L5B30
013N6CM0KN8KK711285        AMERICAN EAGLE SYSTEMS, I1715 LITTLE ORCHARD ST                            SAN JOSE                 CA95125              4089688982999999999 1000005284000003381201909182019101020221010 036 030 00619NSSN      6621      20220510 0046799 0000000 0280794 1114100 0000000 0000000000                20220421              1114100000000          00000000  0000000               00000000                000000000000000000000000       00000000               0000000  7425B30
013N6CM0KN9KK702174        AMERICAN EAGLE SYSTEMS, I1821 S BASCOM AVE        Suite 249                CAMPBELL                 CA95008              4155154608999999999 1000004990000003381201906012019061020220610 036 034 00219NSSN      6621      20220510 0046664 0000000 0093328 1116013 0000000 0000000000                20220421              1116013000000          00000000  0000000               00000000                000000000000000000000000       00000000               0000000  7425B30
011N6BF0KM7HN809286        AND GO CONCEPTS LLC      20 SHERWOOD RD                                    READING                  MA01867    78145474854803328709999999999 1000003771000002879201804022018041020230410 060 048 01217NSSN      6021      20220510 0049972 0000000 0599664 0605238 0000000 0000000000                20220421              0605238000000          00000000  0000000               00000000                000000000000000000000000       00000000               0000000  74L5B30
01KNMAT2MT4HP501133        APPALACHIAN FIRE ALARM SO200 PROSPERITY DRIVE                              KNOXVILLE                TN37923    8652473683          999999999 1000002783000003714201612312017011020230110 072 063 00917NSSN      2231      20220510 0037779 0000000 0340011 0390293 0000000 0000000000                20220421              0390293000000          00000000  0000000               00000000                000000000000000000000000       00000000               0000000  7425B30
011N6BF0LYXFN802055        AQUATIC SOLUTIONS LLC    4821 WINCHESTER BLVD     SUITE 103                FREDERICK                MD21703              3013717252999999999 1000002364000003051201607222016081020220810 072 068 00415NSSN      6231      20220510 0055768 0000000 0223072 0352963 0000000 0000000000                20220421              0352963000000          00000000  0000000               00000000                000000000000000000000000       00000000               0000000  74L5B30
011N6AF0LY3GN811158        ARANDA'S PLUMBING & HEATI600 CORTEZ ST                                     Santa Fe                 NM87505              5059837391999999999 1000002536000002699201608312016091020221110 074 067 00716NSSN      6251      20220510 0053950 0000000 0377650 0351240 0000000 0000000000                20220421              0351240000000          00000000  0000000               00000000                000000000000000000000000       00000000               0000000  74L5B30
011N6AF0LY4GN807572        ARANDA'S PLUMBING & HEATI600 CORTEZ ST                                     Santa Fe                 NM87505              5059837391999999999 1000002537000002699201609292016101020221210 074 066 00816NSSN      6251      20220510 0054334 0000000 0434672 0353740 0000000 0000000000                20220421              0353740000000          00000000  0000000               00000000                000000000000000000000000       00000000               0000000  74L5B30
011N6AD0EV2GN786634        ARANDA'S PLUMBING & HEATI600 CORTEZ ST                                     Santa Fe                 NM87505              5059837391999999999 1000002538000002699201608312016091020221110 074 067 00716NSSN      3241      20220510 0045614 0000000 0319298 0296970 0000000 0000000000                20220421              0296970000000          00000000  0000000               00000000                000000000000000000000000       00000000               0000000  7425B30
011N6AD0EV2GN786634        ARANDA'S PLUMBING & HEATI600 CORTEZ ST                                     Santa Fe                 NM87505              5059837391999999999 1000002543000002699201608312016091020221110 074 067 00716NSSN      3241      20220510 0045614 0000000 0319298 0296970 0000000 0000000000                20220421              0296970000000          00000000  0000000               00000000                000000000000000000000000       00000000               0000000  7425B30
011N6BF0LY3GN813223        ARANDA'S PLUMBING & HEATI600 CORTEZ ST                                     Santa Fe                 NM87505              5059837391999999999 1000002546000002699201609292016101020221210 074 066 00816NSSN      6211      20220510 0052993 0000000 0423944 0345010 0000000 0000000000                20220421              0345010000000          00000000  0000000               00000000                000000000000000000000000       00000000               0000000  74L5B30
013N6CM0KN9FK720020        ARBOR PACIFIC INC        P O BOX 86293                                     PORTLAND                 WA97286    20695315092069531509999999999 1000002038000003022201601142016021020200210 048 074-02615NSSN      6711      20200110 0037166 0000000 0000000 0736628 0000000 0000000000                20220421              0736628000000          00000000  0000000               00000000                000000000000000000000000       00000000     20170213  0000000  74L5B30
013N6CM0KN6GK693845        ARCOLA SERVICES GROUP INC7690 LAKESHORE BV                                 MADISON                  OH44057              4407014400999999999 1000002763000003813201702032017021020220410 062 062 00016NSSN      6721      20220310 0036872 0000000 0000000 0606946 0000000 0000000000                20220421              0606946000000          00000000  0000000               00000000                000000000000000000000000       00000000               0000000  74L5B30
013N6CM0KN3GK698288        ARCOLA SERVICES GROUP INC7690 LAKESHORE BV                                 MADISON                  OH44057              4407014400999999999 1000002794000003813201702152017031020220510 062 061 00116NSSN      6721      20220410 0037941 0000000 0037941 0640355 0000000 0000000000                20220421              0640355000000          00000000  0000000               00000000                000000000000000000000000       00000000               0000000  74L5B30
013N6CM0KN5GK695294        ARCOLA SERVICES GROUP INC7690 LAKESHORE BV                                 MADISON                  OH44057              4407014400999999999 1000002975000003813201705032017051020220710 062 059 00316NSSN      6721      20220510 0034066 0000000 0102198 0570145 0000000 0000000000                20220421              0570145000000          00000000  0000000               00000000                000000000000000000000000       00000000               0000000  74L5B30
011N6AF0LY6JN811100        ARIZONA APPLIANCE SERVICE1042 WILLOW CREEK RD     Apt A101                 PRESCOTT                 AZ86301              6027377543999999999 1000004112000002879201807052018071020220710 048 045 00318NSSN      6251      20220510 0067442 0000000 0202326 1308668 0000000 0000000000                20220421              1308668000000          00000000  0000000               00000000                000000000000000000000000       00000000               0000000  74L5B30
011N6BF0KMXGN816358        ARM DELIVERIES INC       6413 GILMORE ST                                   Gwynn Oak                MD21207              3019691634999999999 1000002869000003430201703252017041020220610 062 060 00216NSSN      6021      20220510 0048859 0000000 0097718 0771860 0000000 0000000000                20220421              0771860000000          00000000  0000000               00000000                000000000000000000000000       00000000               0000000  74L5B30
011N6AA1R71HN514183        ARTISTRY IN PLANTS, LLC  1612 MARYLAND AV                                  Durham                   NC27705              9192255573999999999 1000002908000002094201703312017041020220410 060 060 00017NSSN      3611      20220310 0045745 0000000 0000000 0268530 0000000 0000000000                20220421              0268530000000          00000000  0000000               00000000                000000000000000000000000       00000000               0000000  7425B30
011N6AA1R77HN518979        ARTISTRY IN PLANTS, LLC  1612 MARYLAND AV                                  Durham                   NC27705              9192255573999999999 1000002922000002094201703312017041020220410 060 060 00017NSSN      3611      20220310 0045745 0000000 0000000 0268530 0000000 0000000000                20220421              0268530000000          00000000  0000000               00000000                000000000000000000000000       00000000               0000000  7425B30
013N6CM0KN3GK696802        ATCO PEST CONTROL INC    1250 PETALUMA BLVD N                              PETALUMA                 CA94952    41530648224158982282999999999 1000002761000003022201701252017021020220210 060 062-00216NSSN      6721      20220510 0051899 0000000 0000000 0833713 0000000 0000000000                20220421  20220308    0000000000000          00000000  0000000               00000000                000000000000000000000000       00000000               0000000  74L5B30
013N6CM0KN0HK693048        ATCO PEST CONTROL INC    1250 PETALUMA BLVD N                              PETALUMA                 CA94952    41530648224158982282999999999 1000003184000003731201704302017051020220510 060 059 00117NSSN      6721      20220410 0051753 0000000 0051753 0866169 0000000 0000000000                20220421              0866169000000          00000000  0000000               00000000                000000000000000000000000       00000000               0000000  74L5B30
011N6AF0KY2HN812076        ATCO PEST CONTROL INC    1250 PETALUMA BLVD N                              PETALUMA                 CA94952    41530648224158982282999999999 1000003676000003394201803012018031020230310 060 049 01117NSSN      6191      20220510 0050115 0000000 0551265 0818193 0000000 0000000000                20220421              0818193000000          00000000  0000000               00000000                000000000000000000000000       00000000               0000000  7425B30
011N6AA1E55KN507183        ATCO PEST CONTROL INC    1250 PETALUMA BLVD N                              PETALUMA                 CA94952    41530648224158982282999999999 1000005213000003394201908232019091020220910 036 031 00519NSSN      3881      20220510 0089161 0000000 0445805 2255810 0000000 0000000000                20220421              2255810000000          00000000  0000000               00000000                000000000000000000000000       00000000               0000000  7425B30
011N6DD0EV2KN771198        ATI SECURITY, INC.       P.O. BOX 28245                                    SANTA FE                 NM87592    50547305085054692558999999999 1000005467000000663201911272019121020221210 036 028 00819NSSN      3221      20220510 0053501 0000000 0428008 0557400 0000000 0000000000                20220421              0557400000000          00000000  0000000               00000000                000000000000000000000000       00000000               0000000  7425B30
013N6CM0KN3JK701147        ATLANTIC HOME TECHNOLOGIE11482 COLOMBIA PARK DR   Apt 2                    Jacksonville             FL32258              9042241112999999999 1000004023000000516201806222018071020220710 048 045 00318NSSN      6721      20220510 0040623 0000000 0121869 0547109 0000000 0000000000                20220421              0547109000000          00000000  0000000               00000000                000000000000000000000000       00000000               0000000  74L5B30
013N6CM0KN3JK700435        ATLANTIC HOME TECHNOLOGIE11482 COLOMBIA PARK DR   Apt 2                    Jacksonville             FL32258              9042241112999999999 1000004026000000516201806222018071020220710 048 045 00318NSSN      6721      20220510 0040623 0000000 0121869 0547109 0000000 0000000000                20220421              0547109000000          00000000  0000000               00000000                000000000000000000000000       00000000               0000000  74L5B30
013N6CM0KN6JK700266        ATLANTIC HOME TECHNOLOGIE11482 COLOMBIA PARK DR   Apt 2                    Jacksonville             FL32258              9042241112999999999 1000004045000000516201806222018071020220710 048 045 00318NSSN      6721      20220510 0040623 0000000 0121869 0547109 0000000 0000000000                20220421              0547109000000          00000000  0000000               00000000                000000000000000000000000       00000000               0000000  74L5B30
011N6BF0KM9JN812549        ATLANTIC HOME TECHNOLOGIE11482 COLOMBIA PARK DR   Apt 2                    Jacksonville             FL32258              9042241112999999999 1000004110000000516201807182018081020220810 048 044 00418NSSN      6021      20220510 0059255 0000000 0237020 0798050 0000000 0000000000                20220421              0798050000000          00000000  0000000               00000000                000000000000000000000000       00000000               0000000  74L5B30
011N6BF0KM2JN812425        ATLANTIC HOME TECHNOLOGIE11482 COLOMBIA PARK DR   Apt 2                    Jacksonville             FL32258              9042241112999999999 1000004111000000516201807182018081020220810 048 044 00418NSSN      6021      20220510 0059255 0000000 0237020 0798050 0000000 0000000000                20220421              0798050000000          00000000  0000000               00000000                000000000000000000000000       00000000               0000000  74L5B30
011N6AF0LY3GN805277        Air Management Systems In292 SE Park Ave                                   Baxley                   GA315139123          9123668585999999999 1000002953000003353201704182017051020220510 060 059 00116NSSN      6271      20220410 0064826 0000000 0064826 0364084 0000000 0000000000                20220421              0364084000000          00000000  0000000               00000000                000000000000000000000000       00000000               0000000  74L5B30
013N1CE2CP2HL367857        Alliance Business Technol5520 DERRY ST                                     HARRRISBURG              PA17111              7176958611999999999 1000003663000002543201802212018031020220310 048 049-00117NSSN      1161      20220510 0027067 0000000 0000000 0575629 0000000 0000000000                20220421  20220309    0000000000000          00000000  0000000               00000000                000000000000000000000000       00000000               0000000  7425B30
013N1CE2CP3HL381525        Alliance Business Technol5520 DERRY ST                                     HARRRISBURG              PA17111              7176958611999999999 1000003678000002543201802212018031020220310 048 049-00117NSSN      1161      20220510 0027067 0000000 0000000 0575629 0000000 0000000000                20220421  20220309    0000000000000          00000000  0000000               00000000                000000000000000000000000       00000000               0000000  7425B30
013N1CE2CP0HL377531        Alliance Business Technol5520 DERRY ST                                     HARRRISBURG              PA17111              7176958611999999999 1000003679000002543201802272018031020220310 048 049-00117NSSN      1161      20220510 0027067 0000000 0000000 0575629 0000000 0000000000                20220421  20220309    0000000000000          00000000  0000000               00000000                000000000000000000000000       00000000               0000000  7425B30
013N1CE2CP9HL381836        Alliance Business Technol5520 DERRY ST                                     HARRRISBURG              PA17111              7176958611999999999 1000003681000002543201802212018031020220310 048 049-00117NSSN      1161      20220510 0027067 0000000 0000000 0575629 0000000 0000000000                20220421  20220309    0000000000000          00000000  0000000               00000000                000000000000000000000000       00000000               0000000  7425B30
013N6CM0KN9HK698247        B&M Home Services LLC    259 UNION HILL RD                                 Somerville               AL35670              2566659500999999999 1000003274000003395201708102017081020221010 062 056 00617NSSN      6721      20220510 0035587 0000000 0213522 0581013 0000000 0000000000                20220421              0581013000000          00000000  0000000               00000000                000000000000000000000000       00000000               0000000  74L5B30
013N6CM0KN3HK713101        B'HATZLACHA ENTERPRISES, 4916 J PARKWAY                                    Sacramento               CA95823              9167435803999999999 1000003495000003670201712012017121020230310 063 052 01117NSSN      6721      20220510 0039502 0000000 0434522 0226048 0000000 0000000000                20220421              0226048000000          00000000  0000000               00000000                000000000000000000000000       00000000               0000000  74L5B30
013N6CM0KN6FK712988        BAXTER APPLIANCE LLC     2718 NW 22ND PL                                   CAPE CORAL               FL33993              2392093712999999999 1000001851000001132201510162015111020220210 075 077-00215NSSN      6721      20220410 0032991 0000000 0000000 0328845 0000000 0000000000                20220421  20220303    0000000000000          00000000  0000000               00000000                000000000000000000000000       00000000               0000000  74L5B30
011N6BF0KM7JN803042        BEDDING & MORE, LLC      1958 LILAC DR                                     WESTBURY                 NY11590              7189719649999999999 1000004358000003723201809282018101020220110 039 042-00318NSSN      6021      20220510 0068381 0000000 0000000 1684743 0000000 0000000000                20220421  20211214    0000000000000          00000000  0000000               00000000                000000000000000000000000       00000000               0000000  74L5B30
011N6AF0LY0GN816320        BERKELEY CLUB BEVERAGES, 4 HOWARD ST                                       Bath                     WV25411              3042582313999999999 1000002877000001146201703242017041020220410 060 060 00016NSSN      6271      20220310 0053337 0000000 0000000 0856813 0000000 0000000000                20220421              0856813000000          00000000  0000000               00000000                000000000000000000000000       00000000               0000000  74L5B30
011N6BF0LY4GN812100        BEST ELECTRICIANS, INC   448 MAIN ST                                       FAIRHAVEN                MA02719              5084442038999999999 1000002737000003646201612302017011020230310 074 063 01116NSSN      6211      20220510 0047403 0000000 0521433 0428910 0000000 0000000000                20220421              0428910000000          00000000  0000000               00000000                000000000000000000000000       00000000               0000000  74L5B30
013N6CM0KN0JK701686        BEST SEAFOOD INC         10206 NE 156TH PL                                 Bothell                  WA98011    20640993452064099345999999999 1000004542000003022201812262019011020220110 036 039-00318NSSN      6711      20211210 0048419 0000000 0000000 0000000 0000000 0000000000                20220421              0000000000000          00000000  0000000               00000000                000000000000000000000000       00000000               0000000  74L5B30
011N6BF0LY6GN814060        BEST VALUE AIR CONDITIONI132 BUSINESS CENTER DR                            ORMOND BEACH             FL32174    38667760553866776055999999999 1000002492000002218201609162016101020221010 072 066 00616NSSN      6221      20220510 0040370 0000000 0242220 0419055 0000000 0000000000                20220421              0419055000000          00000000  0000000               00000000                000000000000000000000000       00000000               0000000  74L5B30
011N6BF0LY3GN809138        BFP PLUMBING SERVICES INC363 W EVANS AVE                                   DENVER                   CO80223    30334034003033403400999999999 1000002434000003798201608112016091020210910 060 067-00716NSSN      6221      20220510 0063299 0000000 0000000 0981377 0000000 0000000000                20220421  20210923    0000000000000          00000000  0000000               00000000                000000000000000000000000       00000000               0000000  74L5B30
011N6AF0LY1GN809909        BFP PLUMBING SERVICES INC363 W EVANS AVE                                   DENVER                   CO80223    30334034003033403400999999999 1000002436000003798201608112016091020210910 060 067-00716NSSN      6251      20220510 0063346 0000000 0000000 0982108 0000000 0000000000                20220421  20210923    0000000000000          00000000  0000000               00000000                000000000000000000000000       00000000               0000000  74L5B30
011N6BF0LYXGN808276        BFP PLUMBING SERVICES INC363 W EVANS AVE                                   DENVER                   CO80223    30334034003033403400999999999 1000002439000003798201608112016091020210910 060 067-00716NSSN      6221      20220510 0063244 0000000 0000000 0980522 0000000 0000000000                20220421  20210923    0000000000000          00000000  0000000               00000000                000000000000000000000000       00000000               0000000  74L5B30
011N6AF0LY6GN809694        BFP PLUMBING SERVICES INC363 W EVANS AVE                                   DENVER                   CO80223    30334034003033403400999999999 1000002440000003798201608112016091020210910 060 067-00716NSSN      6251      20220510 0062926 0000000 0000000 0975603 0000000 0000000000                20220421  20210923    0000000000000          00000000  0000000               00000000                000000000000000000000000       00000000               0000000  74L5B30
011N6AF0LYXGN809830        BFP PLUMBING SERVICES INC363 W EVANS AVE                                   DENVER                   CO80223    30334034003033403400999999999 1000002445000003798201608112016091020210910 060 067-00716NSSN      6251      20220510 0063196 0000000 0000000 0979789 0000000 0000000000                20220421  20210923    0000000000000          00000000  0000000               00000000                000000000000000000000000       00000000               0000000  74L5B30
011N6AF0LY9GN809785        BFP PLUMBING SERVICES INC363 W EVANS AVE                                   DENVER                   CO80223    30334034003033403400999999999 1000002446000003798201608112016091020210910 060 067-00716NSSN      6251      20220510 0063708 0000000 0000000 0987720 0000000 0000000000                20220421  20210923    0000000000000          00000000  0000000               00000000                000000000000000000000000       00000000               0000000  74L5B30
011N6AF0LY1GN809098        BFP PLUMBING SERVICES INC363 W EVANS AVE                                   DENVER                   CO80223    30334034003033403400999999999 1000002447000003798201608112016091020210910 060 067-00716NSSN      6251      20220510 0062872 0000000 0000000 0974766 0000000 0000000000                20220421  20210923    0000000000000          00000000  0000000               00000000                000000000000000000000000       00000000               0000000  74L5B30
011N6BF0KM2JN802896        BINACORP INC             7007 CARROLL RD                                   SAN DIEGO                CA92121    85855404048585540404999999999 1000003638000002432201802122018031020220310 048 049-00118NSSN      6011      20220210 0046625 0000000 0000000 0984296 0000000 0000000000                20220421              0984296000000          00000000  0000000               00000000                000000000000000000000000       00000000               0000000  74L5B30
011N6BF0KM9JN801762        BINACORP INC             7007 CARROLL RD                                   SAN DIEGO                CA92121    85855404048585540404999999999 1000003648000002432201802122018031020220310 048 049-00118NSSN      6011      20220210 0046913 0000000 0000000 0990380 0000000 0000000000                20220421              0990380000000          00000000  0000000               00000000                000000000000000000000000       00000000               0000000  74L5B30
011N6AA1E5XJN544986        BIXBY TELEPHONE CO       6 E BRECKENRIDGE                                  BIXBY                    OK74008    91836602099183668000999999999 1000004958000002193201905172019061020220610 036 034 00218NSSN      3821      20220510 0069615 0000000 0139230 1609957 0000000 0000000000                20220421              1609957000000          00000000  0000000               00000000                000000000000000000000000       00000000               0000000  7425B30
011N6AA1CK6KN522901        BIXBY TELEPHONE CO       6 E BRECKENRIDGE                                  BIXBY                    OK74008    91836602099183668000999999999 1000004965000002193201905172019061020220610 036 034 00219NSSN      3711      20220510 0074339 0000000 0148678 1158366 0000000 0000000000                20220421              1158366000000          00000000  0000000               00000000                000000000000000000000000       00000000               0000000  7425B30
011N6AA1CK9KN523105        BIXBY TELEPHONE CO       6 E BRECKENRIDGE                                  BIXBY                    OK74008    91836602099183668000999999999 1000004967000002193201905172019061020220610 036 034 00219NSSN      3711      20220510 0074339 0000000 0148678 1158366 0000000 0000000000                20220421              1158366000000          00000000  0000000               00000000                000000000000000000000000       00000000               0000000  7425B30
01KNMAT2MT8LP531809        BIXBY TELEPHONE CO       6 E BRECKENRIDGE                                  BIXBY                    OK74008    91836602099183668000999999999 1000005527000002193202001272020021020230210 036 026 01020NSSN      2231      20220510 0052226 0000000 0522260 0901803 0000000 0000000000                20220421              0901803000000          00000000  0000000               00000000                000000000000000000000000       00000000               0000000  7425B30
01KNMAT2MTXLP531939        BIXBY TELEPHONE CO       6 E BRECKENRIDGE                                  BIXBY                    OK74008    91836602099183668000999999999 1000005528000002193202001272020021020230210 036 026 01020NSSN      2231      20220510 0052226 0000000 0522260 0901803 0000000 0000000000                20220421              0901803000000          00000000  0000000               00000000                000000000000000000000000       00000000               0000000  7425B30
01KNMAT2MT9LP531866        BIXBY TELEPHONE CO       6 E BRECKENRIDGE                                  BIXBY                    OK74008    91836602099183668000999999999 1000005529000002193202001272020021020230210 036 026 01020NSSN      2231      20220510 0052226 0000000 0522260 0901803 0000000 0000000000                20220421              0901803000000          00000000  0000000               00000000                000000000000000000000000       00000000               0000000  7425B30
011N6AA1CD3LN506190        BIXBY TELEPHONE CO       6 E BRECKENRIDGE                                  BIXBY                    OK74008    91836602099183668000999999999 1000005704000002193202003302020041020230410 036 024 01220NSSN      3721      20220510 0093637 0000000 1123644 1989887 0000000 0000000000                20220421              1989887000000          00000000  0000000               00000000                000000000000000000000000       00000000               0000000  7425B30
011N6AF0KY1LN802910        BIXBY TELEPHONE CO       6 E BRECKENRIDGE                                  BIXBY                    OK74008    91836602099183668000999999999 1000005705000002193202003302020041020230410 036 024 01220NSSN      6161      20220510 0073039 0000000 0876468 1217495 0000000 0000000000                20220421              1217495000000          00000000  0000000               00000000                000000000000000000000000       00000000               0000000  74L5B30
011N6BF0KY9GN809551        BK Security and Home AutoP. O. BOX 3402                                    WINCHESTER               VA22604              5406620084999999999 1000002437000001146201608122016091020220910 072 067 00516NSSN      6121      20220510 0044200 0000000 0221000 0434591 0000000 0000000000                20220421              0434591000000          00000000  0000000               00000000                000000000000000000000000       00000000               0000000  74L5B30
015N1DR2MN9JC616820        BLACK SHEEP INTERIORS LLC2901 REYNOLDS WALK TRL                            Greensboro               GA30642              4046229001999999999 1000003703000003489201803032018031020230310 060 049 01118NSSN      2531      20220510 0063088 0000000 0693968 0352153 0000000 0000000000                20220421              0352153000000          00000000  0000000               00000000                000000000000000000000000       00000000               0000000  7425B30
013N6CM0KN6HK713402        BLH CONSTRUCTION COMPANY 21031 VENTURA BV #200                             Woodland Hills           CA91364              8189052436999999999 1000003325000003561201709192017101020221010 060 054 00617NSSN      6711      20220510 0037030 0000000 0222180 0594869 0000000 0000000000                20220421              0594869000000          00000000  0000000               00000000                000000000000000000000000       00000000               0000000  74L5B30
011N6BF0KM6HN804466        BLH CONSTRUCTION COMPANY 21031 VENTURA BV #200                             Woodland Hills           CA91364              8189052436999999999 1000003327000003561201709192017101020221010 060 054 00617NSSN      6011      20220510 0054474 0000000 0326844 0875074 0000000 0000000000                20220421              0875074000000          00000000  0000000               00000000                000000000000000000000000       00000000               0000000  74L5B30
011N6AA1CK9HN558820        BLH CONSTRUCTION COMPANY 21031 VENTURA BV #200                             Woodland Hills           CA91364              8189052436999999999 1000003356000003561201709292017101020221010 060 054 00617NSSN      3711      20220510 0049026 0000000 0294156 0787569 0000000 0000000000                20220421              0787569000000          00000000  0000000               00000000                000000000000000000000000       00000000               0000000  7425B30
013N6CM0KN3HK699684        BLU-RAY LLC              701 5TH AVE              SUITE 4200               SEATTLE                  WA981047047          2064471367999999999 1000003195000003022201708022017081020220810 060 056 00417NSSN      6721      20220510 0040473 0000000 0161892 0660775 0000000 0000000000                20220421              0660775000000          00000000  0000000               00000000                000000000000000000000000       00000000               0000000  74L5B30
011N6BF0KY0GN808028        BLUNDIN BUILDERS INC     213 HIGHLAND AVE                                  AMBLER                   PA19002                        999999999 1000002450000002272201608252016091020220910 072 067 00516NSSN      6121      20220510 0043940 0000000 0219700 0456098 0000000 0000000000                20220421              0456098000000          00000000  0000000               00000000                000000000000000000000000       00000000               0000000  74L5B30
015BZAF0AAXGN852007        BMS MANAGEMENT COMPANY   5718 AIRPORT FW                                   HALTOM CITY              TX76117              8777301948999999999 1000002061000002593201602262016031020210310 060 073-01316NSSN      6541      20220510 0066943 0000000 0000000 1071081 0000000 0000000000                20220421  20210922    0000000000000          00000000  0000000               00000000                000000000000000000000000       00000000               0000000  74L5B30
015BZAF0AA4GN850981        BMS MANAGEMENT COMPANY   5718 AIRPORT FW                                   HALTOM CITY              TX76117              8777301948999999999 1000002062000002593201602262016031020210310 060 073-01316NSSN      6541      20220510 0067609 0000000 0000000 1081731 0000000 0000000000                20220421  20210922    0000000000000          00000000  0000000               00000000                000000000000000000000000       00000000               0000000  74L5B30
015BZAF0AA4GN850737        BMS MANAGEMENT COMPANY   5718 AIRPORT FW                                   HALTOM CITY              TX76117              8777301948999999999 1000002063000002593201602262016031020210310 060 073-01316NSSN      6541      20220510 0066766 0000000 0000000 1068252 0000000 0000000000                20220421  20210922    0000000000000          00000000  0000000               00000000                000000000000000000000000       00000000               0000000  74L5B30
015BZAF0AA7GN852000        BMS MANAGEMENT COMPANY   5718 AIRPORT FW                                   HALTOM CITY              TX76117              8777301948999999999 1000002067000002593201602262016031020210310 060 073-01316NSSN      6541      20220510 0066943 0000000 0000000 1071081 0000000 0000000000                20220421  20210922    0000000000000          00000000  0000000               00000000                000000000000000000000000       00000000               0000000  74L5B30
015BZAF0AA4GN851578        BMS MANAGEMENT COMPANY   5718 AIRPORT FW                                   HALTOM CITY              TX76117              8777301948999999999 1000002148000002593201603292016041020210410 060 072-01216NSSN      6541      20220510 0067004 0000000 0000000 1069497 0000000 0000000000                20220421  20210922    0000000000000          00000000  0000000               00000000                000000000000000000000000       00000000               0000000  74L5B30
015BZAF0AAXGN852024        BMS MANAGEMENT COMPANY   5718 AIRPORT FW                                   HALTOM CITY              TX76117              8777301948999999999 1000002156000002593201603292016041020210410 060 072-01216NSSN      6541      20220510 0066954 0000000 0000000 1068700 0000000 0000000000                20220421  20210922    0000000000000          00000000  0000000               00000000                000000000000000000000000       00000000               0000000  74L5B30
013N6CM0KN3GK693382        BR CAKES LLC             19283B MARTINAZZI AV                              Tualatin                 OR97062              5034865193999999999 1000003039000003836201705122017061020220610 060 058 00216NSSN      6711      20220510 0032473 0000000 0064946 0517500 0000000 0000000000                20220421              0517500000000          00000000  0000000               00000000                000000000000000000000000       00000000               0000000  74L5B30
015N1AT2MV6JC847520        BUFFALO ULTRASOUND, INC. 388 EVANS ST                                      WILLIAMSVILLE            NY14221              7166312262999999999 1000004515000002965201812172019011020220110 036 039-00318NSSN      2221      20220510 0052098 0000000 0000000 1235493 0000000 0000000000                20220421  20220126    0000000000000          00000000  0000000               00000000                000000000000000000000000       00000000               0000000  7425B30
01KNMAT2MV2KP519168        BUFFALO ULTRASOUND, INC. 388 EVANS ST                                      WILLIAMSVILLE            NY14221              7166312262999999999 1000004919000002965201905022019051020220510 036 035 00119NSSN      2221      20220410 0060972 0000000 0060972 1413548 0000000 0000000000                20220421              1413548000000          00000000  0000000               00000000                000000000000000000000000       00000000               0000000  7425B30
011N6BF0LY9HN811039        BUTLER'S CONSTRUCTION AND3869 PLACITA DEL RICO AV                          LAS VEGAS                NV89120              7023358113999999999 1000003632000003048201802102018021020220410 050 050 00017NSSN      6211      20220310 0053102 0000000 0000000 1121035 0000000 0000000000                20220421              1121035000000          00000000  0000000               00000000                000000000000000000000000       00000000               0000000  74L5B30
011N6BF0LY1HN811505        BUTLER'S CONSTRUCTION AND3869 PLACITA DEL RICO AV                          LAS VEGAS                NV89120              7023358113999999999 1000003633000003048201802102018021020220410 050 050 00017NSSN      6211      20220310 0054240 0000000 0000000 1145055 0000000 0000000000                20220421              1145055000000          00000000  0000000               00000000                000000000000000000000000       00000000               0000000  74L5B30
011N6BF0KYXHN812430        Blue Mountain Air Compres2185 CARBAUGH AVE                                 CHAMBERSBURG             PA17201              7174235262999999999 1000003666000002081201802222018031020220510 050 049 00117NSSN      6121      20220410 0058211 0000000 0058211 0774589 0000000 0000000000                20220421              0774589000000          00000000  0000000               00000000                000000000000000000000000       00000000               0000000  74L5B30
013N6CM0KN4LK699363        Brian Rocquemore DBA RVS 10310 LOMBARD CT                                  Stockton                 CA95209              2096894762999999999 1000005852000003394202007022020071020220710 024 021 00320NSSN      6611      20220510 0058663 0000000 0175989 1168888 0000000 0000000043                20220421              1168888000000          00000000  0000000               00000000                000000000000000000000000       00000000               0000000  7425B30
011N6AF0LY4HN806455        Bryan L Gettys DBA GETTYS90 DEARDORFF DR                                   ETTERS                   PA17319              7179324043999999999 1000003405000002543201710232017111020221110 060 053 00717NSSN      6251      20220510 0040815 0000000 0285705 0666364 0000000 0000000000                20220421              0666364000000          00000000  0000000               00000000                000000000000000000000000       00000000               0000000  74L5B30
011N6BD0CT1HN710619        C & V TECHNOPLAST        2475 PASEO DE LAS AMERICASTE D                    SAN DIEGO                CA92154              9494563845999999999 1000002968000000266201704242017051020220510 060 059 00117NSSN      3111      20220410 0036295 0000000 0036295 0568900 0000000 0000000000                20220421              0568900000000          00000000  0000000               00000000                000000000000000000000000       00000000               0000000  7425B30
015N1DR2MN4KC583145        CAM-FUL INDUSTRIES, INC. PO BOX 279                                        Pineville                NC28134              7045560301999999999 1000004413000003295201810302018111020221110 048 041 00719NSSN      2511      20220510 0066228 0000000 0463596 0057571 0000000 0000000000                20220421              0057571000000          00000000  0000000               00000000                000000000000000000000000       00000000               0000000  7425B30
013N6CM0KN8KK693399        CAM-FUL INDUSTRIES, INC. PO BOX 279                                        Pineville                NC28134              7045560301999999999 1000004415000003295201810312018111020221110 048 041 00719NSSN      6621      20220510 0051245 0000000 0358715 0045147 0000000 0000000000                20220421              0045147000000          00000000  0000000               00000000                000000000000000000000000       00000000               0000000  7425B30
011N6AA1E64KN502534        CAM-FUL INDUSTRIES, INC. PO BOX 279                                        Pineville                NC28134              7045560301999999999 1000004488000003295201812012018121020221210 048 040 00819NSSN      3831      20220510 0067122 0000000 0536976 0058349 0000000 0000000000                20220421              0058349000000          00000000  0000000               00000000                000000000000000000000000       00000000               0000000  7425B30
011N6AF0LY6HN804853        CAPITAL EQUIPMENT AND HAN1100 COTTONWOOD AV                                Hartland                 WI53029              2623695500999999999 1000002955000003709201704172017051020220510 060 059 00117NSSN      6281      20220410 0052523 0000000 0052523 0879035 0000000 0000000000                20220421              0879035000000          00000000  0000000               00000000                000000000000000000000000       00000000               0000000  74L5B30
011N6AF0LY4HN804916        CAPITAL EQUIPMENT AND HAN1100 COTTONWOOD AV                                Hartland                 WI53029              2623695500999999999 1000003081000003709201705222017061020220610 060 058 00217NSSN      6281      20220510 0052503 0000000 0105006 0878712 0000000 0000000000                20220421              0878712000000          00000000  0000000               00000000                000000000000000000000000       00000000               0000000  74L5B30
011N6AF0LY1HN804808        CAPITAL EQUIPMENT AND HAN1100 COTTONWOOD AV                                Hartland                 WI53029              2623695500999999999 1000003083000003709201705222017061020220610 060 058 00217NSSN      6281      20220510 0052503 0000000 0105006 0878712 0000000 0000000000                20220421              0878712000000          00000000  0000000               00000000                000000000000000000000000       00000000               0000000  74L5B30
011N6AF0LYXHN804967        CAPITAL EQUIPMENT AND HAN1100 COTTONWOOD AV                                Hartland                 WI53029              2623695500999999999 1000003213000003709201708032017081020220810 060 056 00417NSSN      6281      20220510 0052746 0000000 0210984 0882775 0000000 0000000000                20220421              0882775000000          00000000  0000000               00000000                000000000000000000000000       00000000               0000000  74L5B30
011N6AF0LY0HN804766        CAPITAL EQUIPMENT AND HAN1100 COTTONWOOD AV                                Hartland                 WI53029              2623695500999999999 1000003224000003709201708032017081020220810 060 056 00417NSSN      6281      20220510 0052746 0000000 0210984 0882775 0000000 0000000000                20220421              0882775000000          00000000  0000000               00000000                000000000000000000000000       00000000               0000000  74L5B30
011N6AF0LY0JN800836        CAPITAL EQUIPMENT AND HAN1100 COTTONWOOD AV                                Hartland                 WI53029              2623695500999999999 1000003711000003709201803102018031020230310 060 049 01118NSSN      6281      20220510 0054202 0000000 0596222 0907130 0000000 0000000000                20220421              0907130000000          00000000  0000000               00000000                000000000000000000000000       00000000               0000000  74L5B30
011N6AA1E69JN513639        CARAVAN INNOVATIONS, LLC 1180 8TH AV              Apt 231                  Palmetto                 FL34221    7273206586          999999999 1000003784000001472201804092018041020230410 060 048 01218NSSN      3831      20220510 0053523 0000000 0642276 0839575 0000000 0000000000                20220421              0839575000000          00000000  0000000               00000000                000000000000000000000000       00000000               0000000  7425B30
011N6BF0KY1HN807780        CARLTON HEATING AND AIR C6622 OLD WAKE FORREST RD                          RALEIGH                  NC276163015          9197903810999999999 1000003387000002094201710122017111020221110 060 053 00717NSSN      6121      20220510 0058607 0000000 0410249 0341830 0000000 0000000000                20220421              0341830000000          00000000  0000000               00000000                000000000000000000000000       00000000               0000000  74L5B30
011N6BF0LY9HN810750        CARLTON HEATING AND AIR C6622 OLD WAKE FORREST RD                          RALEIGH                  NC276163015          9197903810999999999 1000003388000002094201710122017111020221110 060 053 00717NSSN      6221      20220510 0061025 0000000 0427175 0355930 0000000 0000000000                20220421              0355930000000          00000000  0000000               00000000                000000000000000000000000       00000000               0000000  74L5B30
013N6CM0KN0FK735277        CASCADIA GARDENS LLC     5373 GUIDE MERIDIAN      Apt F4                   Bellingham               WA98226    2537326475          999999999 1000002130000003550201602292016031020220310 072 073-00115NSSN      6721      20220510 0033003 0000000 0000000 0337211 0000000 0000000000                20220421  20220310    0000000000000          00000000  0000000               00000000                000000000000000000000000       00000000               0000000  74L5B30
013N6CM0KNXHK712561        CASIOLA LLC              PO BOX 22414                                      Orlando                  FL32830    86352190933214440734999999999 1000003169000001085201707222017081020220810 060 056 00417NSSN      6711      20220510 0034538 0000000 0138152 0550404 0000000 0000000000                20220421              0550404000000          00000000  0000000               00000000                000000000000000000000000       00000000               0000000  74L5B30
013N6CM0KN2HK716538        CASIOLA LLC              PO BOX 22414                                      Orlando                  FL32830    86352190933214440734999999999 1000003482000001085201711302017121020221210 060 052 00817NSSN      6721      20220510 0031507 0000000 0252056 0502100 0000000 0000000000                20220421              0502100000000          00000000  0000000               00000000                000000000000000000000000       00000000               0000000  74L5B30
013N6CM0KN5KK696440        CASIOLA LLC              PO BOX 22414                                      Orlando                  FL32830    86352190933214440734999999999 1000004626000001085201901202019021020230210 048 038 01019NSSN      6611      20220510 0033410 0000000 0334100 0672971 0000000 0000000000                20220421              0672971000000          00000000  0000000               00000000                000000000000000000000000       00000000               0000000  7425B30
013N6CM0KN0KK696720        CASIOLA LLC              PO BOX 22414                                      Orlando                  FL32830    86352190933214440734999999999 1000004627000001085201901202019021020230210 048 038 01019NSSN      6611      20220510 0033410 0000000 0334100 0672971 0000000 0000000000                20220421              0672971000000          00000000  0000000               00000000                000000000000000000000000       00000000               0000000  7425B30
011N6BF0KY0HN801212        CASTLEKEEPERS, LTD.      6606 22ND PL                                      HYATTSVILLE              MD20782    30141259513014223442999999999 1000002808000003430201702282017031020220610 063 061 00217NSSN      6121      20220510 0054602 0000000 0109204 0485185 0000000 0000000000                20220421              0485185000000          00000000  0000000               00000000                000000000000000000000000       00000000               0000000  74L5B30
011N6BF0KY0HN808757        CB Richard Ellis-Raleigh 555 FAYETTEVILLE SQ      Apt 800                  RALEIGH                  NC27601              9198318200999999999 1000003442000003569201711082017111020221110 060 053 00717NSSN      6111      20220510 0056450 0000000 0395150 0323036 0000000 0000000000                20220421              0323036000000          00000000  0000000               00000000                000000000000000000000000       00000000               0000000  74L5B30
011N6AF0LY7JN816919        CBN ENTERPRISES LLC      2 ENCK CIRCLE                                     Enola                    PA17025              7177125115999999999 1000005096000003924201906122019071020220710 036 033 00318NSSN      6281      20220510 0063924 0000000 0191772 1237042 0000000 0000000000                20220421              1237042000000          00000000  0000000               00000000                000000000000000000000000       00000000               0000000  74L5B30
011N6AF0LY2LN803885        CBN ENTERPRISES LLC      2 ENCK CIRCLE                                     Enola                    PA17025              7177125115999999999 1000005695000003924202003182020041020230410 036 024 01220NSSN      6261      20220510 0066915 0000000 0802980 1390978 0000000 0000000000                20220421              1390978000000          00000000  0000000               00000000                000000000000000000000000       00000000               0000000  74L5B30
011N6BF0LY9JN802623        CHAUHAN, LLC             123 12TH AVE NORTH AV                             NASHVILLE                TN37203              6152428426999999999 1000003975000000380201805252018061020210610 036 046-01018NSSN      6141      20220510 0061972 0000000 0000000 1540288 0000000 0000000000                20220421  20210715    0000000000000          00000000  0000000               00000000                000000000000000000000000       00000000               0000000  74L5B30
013N6CM0KNXJK699476        CHROME HEATING & AIR COND521 J PLACE              SUITE 625                PLANO                    TX750748577          9728983292999999999 1000004472000003659201811282018121020221210 048 040 00818NSSN      6711      20220510 0044681 0000000 0357448 0869618 0000000 0000000000                20220421              0869618000000          00000000  0000000               00000000                000000000000000000000000       00000000               0000000  74L5B30
013N6CM0KN2HK714207        CLEAR COMMUNICATIONS INC 813 SILVER SPRINGS AVE UN                         SILVER SPRING            MD20910              3014958989999999999 1000003349000003430201709302017101020221010 060 054 00617NSSN      6711      20220510 0044224 0000000 0265344 0727958 0000000 0000000000                20220421              0727958000000          00000000  0000000               00000000                000000000000000000000000       00000000               0000000  74L5B30
013N6CM0KN2HK713669        CLEAR COMMUNICATIONS INC 813 SILVER SPRINGS AVE UN                         SILVER SPRING            MD20910              3014958989999999999 1000003350000003430201709302017101020221010 060 054 00617NSSN      6711      20220510 0044224 0000000 0265344 0727958 0000000 0000000000                20220421              0727958000000          00000000  0000000               00000000                000000000000000000000000       00000000               0000000  74L5B30
011N6AF0LY6JN800954        CLEARWATER SERVICES INC  1411 VERNON ODOM BV                               Akron                    OH44320              3308364946999999999 1000003667000002122201802162018031020220310 048 049-00118NSSN      6281      20220510 0076476 0000000 0000000 0629947 0000000 0000000000                20220421  20220301    0000000000000          00000000  0000000               00000000                000000000000000000000000       00000000               0000000  74L5B30
013N6CM0KN8JK692137        CLIMATE PRO, L.L.C.      17709 7TH AVE W                                   Bothell                  WA98012              4254660584999999999 1000003629000003022201802022018021020230210 060 050 01018NSSN      6721      20220510 0037968 0000000 0379680 0600275 0000000 0000000000                20220421              0600275000000          00000000  0000000               00000000                000000000000000000000000       00000000               0000000  74L5B30
011N6BF0KY8KN801465        CLOVER CONTRACTING, INC. 11170 LEE HWY            Apt A                    FAIRFAX                  VA22030              7032852700999999999 1000005350000003658201910242019111020221110 036 029 00719NSSN      6131      20220510 0061605 0000000 0431235 1026821 0000000 0000000000                20220421              1026821000000          00000000  0000000               00000000                000000000000000000000000       00000000               0000000  74L5B30
011N6AA1ED2MN530477        COALITION FOR THE HOMELES2000 CRAWFORD ST         Apt 700                  Houston                  TX77002              7137397514999999999 1000006478000002030202111102021111020221210 013 005 00821NSSN      3841      20220510 0300521 0000000 2404168 3333457 0000000 0000000000                20220421              3333457000000          00000000  0000000               00000000                000000000000000000000000       00000000               0000000  7425B30
015N1AT3CA8MC814804        COALITION FOR THE HOMELES2000 CRAWFORD ST         Apt 700                  Houston                  TX77002              7137397514999999999 1000006482000002030202111102021111020221210 013 005 00821NSSN      2251      20220510 0185978 0000000 1487824 2062913 0000000 0000000000                20220421              2062913000000          00000000  0000000               00000000                000000000000000000000000       00000000               0000000  7425B30
011N6BF0LY1HN805087        COMFORT SERVICE INC      129 TECHNICAL CT                                  GARNER                   NC27529    91932929449198961203999999999 1000003120000002094201706072017071020220710 060 057 00317NSSN      6221      20220510 0052467 0000000 0157401 0306020 0000000 0000000043                20220421              0306020000000          00000000  0000000               00000000                000000000000000000000000       00000000               0000000  74L5B30
011N4AA6AP9HC447717        COMMERCIAL SERVICES INC  730 MOOWAA ST.           STE 1                    HONOLULU                 HI968174429          8087352005999999999 1000003822000009009201804202018051020220510 048 047 00117NSSN      1671      20220410 0054340 0000000 0054340 1133333 0000000 0000000000                20220421              1133333000000          00000000  0000000               00000000                000000000000000000000000       00000000               0000000  7425B30
011N6AA1F44JN502383        COMMUNICATIONS CONVEYOR C306 WEST OVERLY DR                                Lake Dallas              TX75065              8005333794999999999 1000004266000002225201808312018091020210910 036 043-00718NSSN      5321      20220510 0089155 0000000 0000000 2096685 0000000 0000000000                20220421  20211014    0000000000000          00000000  0000000               00000000                000000000000000000000000       00000000               0000000  7425B30
011N6AF0KY0JN812230        COMMUNICATIONS CONVEYOR C306 WEST OVERLY DR                                Lake Dallas              TX75065              8005333794999999999 1000004311000003855201809212018101020211010 036 042-00618NSSN      6191      20220510 0078656 0000000 0000000 1937914 0000000 0000000000                20220421  20211014    0000000000000          00000000  0000000               00000000                000000000000000000000000       00000000               0000000  7425B30
011N6AF0KY4JN811873        COMMUNICATIONS CONVEYOR C306 WEST OVERLY DR                                Lake Dallas              TX75065              8005333794999999999 1000004387000003855201810232018111020211110 036 041-00518NSSN      6191      20220510 0078876 0000000 0000000 1931032 0000000 0000000000                20220421  20211014    0000000000000          00000000  0000000               00000000                000000000000000000000000       00000000               0000000  7425B30
011N6AF0KY7KN800576        COMMUNICATIONS CONVEYOR C306 WEST OVERLY DR                                Lake Dallas              TX75065              8005333794999999999 1000004808000003855201903292019041020220410 036 036 00019NSSN      6191      20220510 0074935 0000000 0000000 1849145 0000000 0000000000                20220421  20220401    0000000000000          00000000  0000000               00000000                000000000000000000000000       00000000               0000000  7425B30
011N6AF0KY9KN800532        COMMUNICATIONS CONVEYOR C306 WEST OVERLY DR                                Lake Dallas              TX75065              8005333794999999999 1000005337000003855201910032019101020221010 036 030 00619NSSN      6191      20220510 0074967 0000000 0449802 1920169 0000000 0000000000                20220421              1920169000000          00000000  0000000               00000000                000000000000000000000000       00000000               0000000  7425B30
013N6CM0KNXJK704689        COMMUNITY ACTION CORPORAT204 E 1ST STREET                                  ALICE                    TX78332              3616640145999999999 1000004344000000266201809292018101020221010 048 042 00618NSSN      6711      20220510 0048176 0000000 0289056 0020657 0000000 0000000000                20220421              0020657000000          00000000  0000000               00000000                000000000000000000000000       00000000               0000000  74L5B30
011N6BD0CT9HN769577        CONNECTICUT ENVIRONMENTAL222 MAIN STREET #246                              FARMINGTON               CT06032              8662443254999999999 1000003481000001633201710312017111020211110 048 053-00517NSSN      3111      20220410 0042958 0000000 0000000 0885255 0000000 0000000000                20220421  20211103    0000000000000          00000000  0000000               00000000                000000000000000000000000       00000000               0000000  7425B30
011N6BD0CT1JN759566        CONNECTICUT ENVIRONMENTAL222 MAIN STREET #246                              FARMINGTON               CT06032              8662443254999999999 1000004262000001633201808162018091020220910 048 043 00518NSSN      3111      20220510 0046209 0000000 0231045 0929355 0000000 0000000000                20220421              0929355000000          00000000  0000000               00000000                000000000000000000000000       00000000               0000000  7425B30
013N6CM0KN6KK690405        COPITEX BUSINESS MACHINES212 TOSCA DR                                      STOUGHTON                MA02072              7813444788999999999 1000004787000002555201903212019041020230410 048 036 01219NSSN      6621      20220510 0029999 0000000 0359988 0639030 0000000 0000000000                20220421              0639030000000          00000000  0000000               00000000                000000000000000000000000       00000000               0000000  74L5B30
011N6BF0LY4HN810669        COURIER CORPORATION OF HA815C WAIAKAMILO RD       PO Box 30507             Honolulu                 HI96820              8085322600999999999 1000003624000009010201801292018021020230410 062 050 01217NSSN      6221      20220510 0051508 0000000 0618096 0847175 0000000 0000000000                20220421              0847175000000          00000000  0000000               00000000                000000000000000000000000       00000000               0000000  74L5B30
013N6CM0KN8HK707181        CUT FLOWER EXCHANGE OF PA1050 COLWELL LANE                                 CONSHOHOCKEN             PA19428    61082514006106084005999999999 1000003208000002272201708102017081020220810 060 056 00417NSSN      6721      20220510 0047578 0000000 0190312 0252901 0000000 0000000000                20220421              0252901000000          00000000  0000000               00000000                000000000000000000000000       00000000               0000000  74L5B30
011N6AF0KY6JN809610        Carlos Santiago DBA SANTI1750 N VALENTINE AV                               Fresno                   CA93722              5593043159999999999 1000004662000003654201902062019021020230210 048 038 01018NSSN      6151      20220510 0064714 0000000 0647140 0306648 0000000 0000000000                20220421              0306648000000          00000000  0000000               00000000                000000000000000000000000       00000000               0000000  74L5B30
011N6AF0KY2JN811578        Carlos Santiago DBA SANTI1750 N VALENTINE AV                               Fresno                   CA93722              5593043159999999999 1000004665000003654201902062019021020230210 048 038 01018NSSN      6151      20220510 0063934 0000000 0639340 0302948 0000000 0000000000                20220421              0302948000000          00000000  0000000               00000000                000000000000000000000000       00000000               0000000  74L5B30
011N6BF0KY1GN812590        DAILY SAW SERVICE, INC.  13000 ARTIC CIRCLE                                SANTA FE SPRINGS         CA90670              3235641791999999999 1000002768000002530201702102017021020230210 072 062 01016NSSN      6111      20220510 0039712 0000000 0397120 0408000 0000000 0000000000                20220421              0408000000000          00000000  0000000               00000000                000000000000000000000000       00000000               0000000  74L5B30
011N6AA1R76JN507705        DAILY SAW SERVICE, INC.  13000 ARTIC CIRCLE                                SANTA FE SPRINGS         CA90670              3235641791999999999 1000004452000003916201811022018111020221110 048 041 00718NSSN      3611      20220510 0043187 0000000 0302309 0887152 0000000 0000000000                20220421              0887152000000          00000000  0000000               00000000                000000000000000000000000       00000000               0000000  7425B30
011N6BF0KY5GN815525        DAVID KEMP DBA PEST PROOF92 BRIAR LANE                                     FRONT ROYAL              VA22630              7038534109999999999 1000002839000002220201703062017031020220310 060 061-00116NSSN      6121      20220310 0040846 0000000 0000000 0677375 0000000 0000000000                20220421  20220324    0000000000000          00000000  0000000               00000000                000000000000000000000000       00000000               0000000  74L5B30
013N6CM0KNXFK705333        DAY AND NITE PLUMBING AND16614 13TH AVE           Apt W                    LYNNWOOD                 WA98037    42577564644257756464999999999 1000001718000003022201507292015081020210810 072 080-00815NSSN      6721      20220510 0037114 0000000 0000000 0369944 0000000 0000000000                20220421  20210908    0000000000000          00000000  0000000               00000000                000000000000000000000000       00000000               0000000  74L5B30
013N6CM0KN0FK718320        DAY AND NITE PLUMBING AND16614 13TH AVE W                                  LYNNWOOD                 WA98037    42577564644257756464999999999 1000002173000003022201604042016041020220410 072 072 00015NSSN      6721      20220310 0037245 0000000 0000000 0370962 0000000 0000000000                20220421              0370962000000          00000000  0000000               00000000                000000000000000000000000       00000000               0000000  74L5B30
013N6CM0KN2GK701679        DAY AND NITE PLUMBING AND16614 13TH AVE W                                  LYNNWOOD                 WA98037    42577564644257756464999999999 1000002555000003022201610182016111020221110 072 065 00716NSSN      6721      20220510 0036538 0000000 0255766 0377468 0000000 0000000000                20220421              0377468000000          00000000  0000000               00000000                000000000000000000000000       00000000               0000000  74L5B30
011N6BF0LY2HN808922        DEBRA SUE ROUNTREE DBA RO104 W. GREEN ST                                   ROBERSONVILLE            NC27871              2525636493999999999 1000003340000002957201709282017101020221010 060 054 00617NSSN      6231      20220510 0071868 0000000 0431208 0806529 0000000 0000000000                20220421              0806529000000          00000000  0000000               00000000                000000000000000000000000       00000000               0000000  74L5B30
013N6CM0KN6JK691665        DIGITAL COPIER ASSOCIATES5000 PHILADELPHIA WAY    SUITE A                  Lanham                   MD20706              3015771021999999999 1000003715000003430201803162018041020230410 060 048 01218NSSN      6721      20220510 0039525 0000000 0474300 0493034 0000000 0000000000                20220421              0493034000000          00000000  0000000               00000000                000000000000000000000000       00000000               0000000  74L5B30
013N6CM0KN3JK693521        DIGITAL COPIER ASSOCIATES5000 PHILADELPHIA WAY    SUITE A                  Lanham                   MD20706              3015771021999999999 1000003716000003430201803162018041020230410 060 048 01218NSSN      6721      20220510 0039525 0000000 0474300 0493034 0000000 0000000000                20220421              0493034000000          00000000  0000000               00000000                000000000000000000000000       00000000               0000000  74L5B30
013N6CM0KN8JK691490        DIGITAL COPIER ASSOCIATES5000 PHILADELPHIA WAY    SUITE A                  Lanham                   MD20706              3015771021999999999 1000003724000003430201803162018041020230410 060 048 01218NSSN      6721      20220510 0039525 0000000 0474300 0493034 0000000 0000000000                20220421              0493034000000          00000000  0000000               00000000                000000000000000000000000       00000000               0000000  74L5B30
011N6AF0KY1GN817042        DISASTER RESTORATION INTE2890 N SUNNYSIDE AVE     SUITE 114                Fresno                   CA93727              5592921100999999999 1000003158000003654201707212017081020220810 060 056 00416NSSN      6181      20220510 0050870 0000000 0203480 0292758 0000000 0000000000                20220421              0292758000000          00000000  0000000               00000000                000000000000000000000000       00000000               0000000  74L5B30
013N6CM0KN4KK697756        DISYS, LLC               8270 GREENSBORO DR       Apt 1000                 McLean                   VA22102    70365050277037527900999999999 1000004966000002221201904222019051020220610 037 035 00219NSSN      6611      20220510 0052700 0000000 0105400 0831437 0000000 0000000000                20220421              0831437000000          00000000  0000000               00000000                000000000000000000000000       00000000               0000000  7425B30
013N6CM0KN3JK696600        DKNG ALLIANCE LLC        3529 NORTON AVE                                   Everett                  WA98201              4252931933999999999 1000003930000003022201805172018061020220610 048 046 00218NSSN      6721      20220510 0032845 0000000 0065690 0621530 0000000 0000000000                20220421              0621530000000          00000000  0000000               00000000                000000000000000000000000       00000000               0000000  74L5B30
01JN8AY2NC2H9501303        DMH INDUSTRIES INC.      6300 KINGSTON PIKE                                KNOXVILLE                TN37919              8655847464999999999 1000002767000003714201701272017021020220210 060 062-00217NSSN      2621      20220510 0070628 0000000 0000000 1162600 0000000 0000000000                20220421  20220308    0000000000000          00000000  0000000               00000000                000000000000000000000000       00000000               0000000  7425B30
011N6AF0LY1JN803714        DSL NORTHWEST INC        2828 E CHAMBER ST                                 Phoenix                  AZ85040              4252640383999999999 1000003721000000256201803132018041020220410 048 048 00018NSSN      6271      20220310 0071599 0000000 0000000 0945195 0000000 0000000000                20220421              0945195000000          00000000  0000000               00000000                000000000000000000000000       00000000               0000000  74L5B30
011N6AF0LY3JN804248        DSL NORTHWEST INC        2828 E CHAMBER ST                                 Phoenix                  AZ85040              4252640383999999999 1000003722000000256201803132018041020220410 048 048 00018NSSN      6241      20220310 0068477 0000000 0000000 0903978 0000000 0000000000                20220421              0903978000000          00000000  0000000               00000000                000000000000000000000000       00000000               0000000  74L5B30
011N6AF0LY9JN804383        DSL NORTHWEST INC        2828 E CHAMBER ST                                 Phoenix                  AZ85040              4252640383999999999 1000003906000000256201805012018051020220510 048 047 00118NSSN      6251      20220410 0066729 0000000 0066729 1353590 0000000 0000000000                20220421              1353590000000          00000000  0000000               00000000                000000000000000000000000       00000000               0000000  74L5B30
011N6AF0LY2JN804063        DSL NORTHWEST INC        2828 E CHAMBER ST                                 Phoenix                  AZ85040              4252640383999999999 1000003907000000256201805012018051020220510 048 047 00118NSSN      6251      20220410 0066729 0000000 0066729 1353590 0000000 0000000000                20220421              1353590000000          00000000  0000000               00000000                000000000000000000000000       00000000               0000000  74L5B30
011N6AF0LY9JN807994        DSL NORTHWEST INC        2828 E CHAMBER ST                                 Phoenix                  AZ85040              4252640383999999999 1000004203000000256201807312018081020220810 048 044 00418NSSN      6291      20220510 0071151 0000000 0284604 1443313 0000000 0000000000                20220421              1443313000000          00000000  0000000               00000000                000000000000000000000000       00000000               0000000  74L5B30
011N6AF0LY7JN818136        DSL NORTHWEST INC        2828 E CHAMBER ST                                 Phoenix                  AZ85040              4252640383999999999 1000004486000000256201811132018121020221210 048 040 00818NSSN      6291      20220510 0073553 0000000 0588424 1470158 0000000 0000000000                20220421              1470158000000          00000000  0000000               00000000                000000000000000000000000       00000000               0000000  74L5B30
011N6AF0LY0GN815099        Daniel M Dismukes dba PRE4739 WEBB DR                                      ANDOVER                  OH44003              4402287675999999999 1000003124000003813201707052017071020220710 060 057 00316NSSN      6261      20220510 0054919 0000000 0164757 0896646 0000000 0000000000                20220421              0896646000000          00000000  0000000               00000000                000000000000000000000000       00000000               0000000  74L5B30
