25005006662HURST                     DAVIDA K                3907 19TH AVE W                                   BRADENTON                FL3420513015N1AZ2MG3JN1984252018MURANO    11/28/201811/28/202112/28/201812/01/202100006187303600360044445000041697120000618730000000000021333600002133360L                         
25005006666DWYER                     SANDRA O                11003 CEDAR ELM DR                                SAN ANTONIO              TX782304345JN1BJ1CP3JW1830612018ROGUE SPOR12/21/201812/21/202101/24/201912/24/202100002741203600360025705000021449000000274120000000000012852500001285250L                         
25005006708PACE                      SHAWN S                 16817 E NICKLAUS DR                               FOUNTAIN HILLS           AZ8526862221N4BL4CV6KC1303062019ALTIMA    01/02/201901/02/202201/15/201901/05/202200003751503600360027560000026398330000375150000000000015433660001543366LPACE, SCOTT C            
25005006710PACE                      SHAWN S                 16817 E NICKLAUS DR                               FOUNTAIN HILLS           AZ8526862221N4BL4CV2KN3080542019ALTIMA    01/02/201901/02/202201/15/201901/05/202200003751503600360027560000026398330000375150000000000015433600001543360LPACE, SCOTT C            
25005006711CORONADO                  MONIQUE                 1419 N 17TH AVE                                   MELROSE PARK             IL6016033613N1AB7AP0KY2703302019SENTRA    12/22/201812/22/202101/22/201912/01/202100001938203600360019375000016830000000193820000000000009881250000930219L                         
25005006720SUTTON                    FRANKLIN                492 FLATWATER DR                                  BLUFFTON                 SC2991093655N1AT2MT2KC7387462019ROGUE     01/28/201901/28/202202/08/201912/22/202100003635603600360035460000031700000000363560000000000018793800001843529LSUTTON, SARAH G          
25005006723KARENGET                  CHRISTI M               4123 DURHAM CT                                    EAGAN                    MN5512221555N1AT2MV6KC7309432019ROGUE     02/01/201902/01/202202/26/2019          00003816003600360029205000027143000000381600000000000016354800001675548L                         
25005006731HOLZER                    DAVID                   1319 E 31ST ST                                    BROOKLYN                 NY1121054145N1DR2MM8KC5933592019PATHFINDER02/13/201902/13/202203/12/2019          00006377803600360044045000040616130000637780000000000021403400002394073LSERHOFER, ROCHELLE       
25005006732BOOK                      IRA M                   1626 EUCLID DR                                    LANCASTER                PA1760150373N1AB7AP4KY2058362019SENTRA    02/15/201902/15/202203/19/201902/16/202200002932503600360021690000020713300000293250000000000011061900001106190LBOOK, DEBORAH D          
25005006735ALBRECHT                  WILLIAM                 83 E 2ND ST                                       MOORESTOWN               NJ080573316KNMAT2MV5KP5096232019ROGUE     01/10/201901/10/202204/05/201912/17/202100003319703600360027930000026327170000331970000000000014523600001478659L                         
25005006737AITKEN                    ANDREA L                586 N 2280 E                                      SAINT GEORGE             UT8479014801N4BL4BV3KC1159912019ALTIMA    02/28/201902/28/202204/03/2019          00003475903600360025060000023882100000347590000000000012780600001403016L                         
25005006741MURGALO                   JOSEPH A                1618 TRIANGLE PALM TER                            NAPLES                   FL341193397JN1BJ1CP6KW2198612019ROGUE SPOR03/02/201903/02/202204/01/201902/23/202200003500303600360024470000024092000000350030000000000012969100001296910L                         
25005006744CITY OF ENGLEWOOD                                 333 W NATIONAL RD                                 ENGLEWOOD                OH4532214611N4AZ1CP9JC3069532018LEAF      03/11/201903/11/202203/26/2019          00006587103600360037680000035129000000658710000000000013941600001394160L                         
25005006745VROMAN                    MARK                    19558 ANDER RD                                    ST ONGE                  SD57779    5N1AZ2MS0KN1094332019MURANO    03/16/201903/16/202204/26/2019          00006104703600360044275000044275000000610470000000000024351250002438526LVROMAN, JO L             
25005006746PEARSON                   JERRY R                 6040 W WOODS DR                                   EMPIRE                   MI4963095945N1AZ2MS0KN1131602019MURANO    03/16/201903/16/202204/22/201902/11/202200004895503600360041015000036407000000489550000000000021468400002275650L                         
25005006747HARRELL                   DAISY F                 433 NFL DR                                        BAXLEY                   GA3151378055N1AZ2MJ7KN1178752019MURANO    03/08/201903/08/202203/27/201902/22/202200004137003600360037255000033800000000413700000000000020490250002049025L                         
25005006748NELSON                    ROBERT F                1458 OCEANIA DR S                                 NAPLES                   FL341138493JN8AT2MT4KW5048572019ROGUE     03/14/201903/14/202204/01/2019          00005140503600360031925000032718000000514050000000000017558750001755875LNELSON, LEONOR R         
25005006758UNRUH                     TERRY A                 61 SAN LEMENTE CI                                 ODESSA                   TX79765    5N1AZ2MS2KN1130322019MURANO    04/25/201904/25/202204/30/201902/25/202200006193403600360048915000046582000000619340000000000026414100002699044L                         
25005006760LEYBA                     ROSA A                  501 SWINGING SPEAR RD                             ROSWELL                  NM8820167283N1AB7AP5KY2348272019SENTRA    04/03/201904/03/202205/17/2019          00004139703600360022400000022919980000413970000000000011424000001096749L                         