MELISSA        ALVIAR                   PO BOX 4086                                                             EDINBURG               TX7854040863N1AB7AP9FY358346R0000004055612/14/201512/11/201507/28/20220740790000014029202/10/202200102400000600001N          020412871                                                      
YVONNE A       HOLOGITAS                589 NORFOLK ST APT 1                                                    MATTAPAN               MA021262364JN8AT2MV2GW135134R0000004488112/01/201611/27/201603/25/20230740760000058345301/25/202300102400000620001N          025553410 DIMITRIOS D    HOLOGITAS                             
TREVOR R       MARTIN                   1413 LULLWATER CIR                                                      NEWNAN                 GA3026367031N4AL3AP9HC246358R0000005256406/12/201806/07/201809/21/20240720750000134201806/21/202400102400000650001N          036165432                                                      
NICHOLAS DAVID FRYMET                   7853 AUTUMN RIDGE AVE                                                   CHANHASSEN             MN553178451JN8AT2MV0GW144687R0000002582307/23/201907/22/201908/05/20250730730000099248408/05/202500102400000670001U          036315446                                                      
MARIETOU       DEMBELE                  330 FRANKLIN AVE                    APT A10                             ROCKAWAY               NJ07866    JN1BJ1CR3JW253546R0000006848103/19/202003/12/202009/26/20260720780000313344003/26/202600102400000680001U          027773635                                                      
RAFAEL         GONZALEZ                 4408 EASTLAND CT                                                        CHARLOTTE              NC2821221593N1AB8BV1LY260832R0000003603101/04/202112/26/202007/09/20260670670000161630007/09/202600102400000690001N          033985241 JOSE A         ARAUJO                                
BEVERLY F      NOLES                    144 AUTUMN GLEN DR                                                      CARROLLTON             GA3011719395N1AT3BA7MC783160R0000001737507/16/202107/15/202107/27/20260600600000090302107/27/202600102400000700001N          029763833                                                      
GABRIELLE A    KERSEY                   152 BEAR CAMP RD                                                        IRWINTON               GA3104225133N1CP5DV3ML547710R0000004367911/15/202111/15/202102/13/20280750750000250801102/13/202800102400000710001N          036275449                                                      
SEAN T         DRISCOLL                 2205 ARBOR VIEW CIRCLE                                                  DIBERVILLE             MS39540    1N4AL3AP0GC214316R0000001968311/20/201711/13/201711/28/20230720720000015754511/28/202300102400000910001U          014752602 KAITLYN E      DRISCOLL                              
JUDITH W       ISAAC                    1840 RIPPLE WAY                     APT 311                             CHARLOTTE              NC28262    3N1AB7AP5EY213271R0000002140705/26/201705/26/201706/09/20230730730000032801706/09/202300102400001200001U          029123768 ROLANDE        ISAAC                                 
RUBEN          HERNANDEZ                1204 LN. JOY AV                                                         FORT PIERCE            FL34945    5N1DR2MN8JC654474R0000006800006/11/201806/05/201810/20/20240720760000217660806/20/202400102400001540001N          036895509                                                      
ELITE MARINE AC LLC                     1957 S ANDREWS AVE                                                      FORT LAUDERDALE        FL3331628581N6BF0KM3KN803797R0000005214501/09/201912/31/201803/01/20240630630000124667703/01/202400102400001550001N          019742831                                                      
REBECCA F      RUDDEROW                 1302 EVERGREEN DR                                                       CARDIFF                CA9200710165N1AT2MT6GC811687R0000003586907/23/201907/17/201908/01/20250730730000138178908/01/202500102400001560001U          025853439                                                      
ALLEN D        MARCH JR                 142 GEORGIA RD                                                          PENNSVILLE             NJ0807024513N1CP5CU8KL527037R0000004770303/13/202003/11/202003/25/20260720720000209459903/25/202600102400001570001N          024343288                                                      
KATHY R        KELLEY                   142 MILE HILL RD                                                        JOHNSTOWN              PA159094005KNMAT2MV4LP517780R0000003461712/29/202012/28/202012/27/20250600600000000000012/27/202500102400001580001U12/15/2021033165169 JEFFREY A      KELLEY                                
RANDAL J       TRABER                   2253 RALSTON RD                                                         ROCKINGHAM             VA2280202715N1AT2MV9HC834304R0000004506605/26/201705/26/201707/24/20230740740000076612207/24/202300102400001790001N          020342864                                                      
WILLIAM J      STAUB JR                 305 IDYLLWOOD DR                                                        INWOOD                 WV2542830805N1AT2MM7GC829026R0000004481506/06/201605/30/201606/14/20220730730000017945706/14/202200102400002010001N          036665491                                                      
COX STEEL SERVICES INC                  1 BRIAN DANIEL CT                                                       REISTERSTOWN           MD2113646351N6AA1F40HN500818R0000007665705/26/201705/26/201706/09/20230730730000000000006/09/202300102400002030001N02/07/20220149411026COX STEEL SERVICES INC                               
WILLIAM L      HOUCK                    105 DALE DR                                                             TROY                   AL3607930125N1AT3BB1MC683094R0000004109101/08/202112/24/202001/07/20270730730000187047901/07/202700102400002090001N          009322160                                                      
THOMAS C       GARRIS                   PO BOX 2182                                                             FLAGLER BEACH          FL3213621823N1AB7AP6HY256375R0000002175905/29/201705/26/201706/10/20220610610000008638206/10/202200102400002170001U          025483406                                                      