0000001JN8AS5MT8DW547170RCCB077280530105201400000000010520140003888201052019000600002013NISSAN         Rogue S        MARIA          GMORALES                  2003 S ORANGE AVE                                           SANTA ANA                CA92707    MARIAAREVAL023@ME.COM                                       NMAC                          NISSAN EXTENDED SERVICES NA, GP                                                 PO BOX 685004                 FRANKLIN       TN37068    5163 SURF CITY NISSAN              17331 BEACH BLVD              HUNTINGTON BEACCA92647    C042020227145006000RS100N     00000402500       
00000023N1AB7AP6EY332415RWND107295630427201600000000042720160008284302142022001000002014NISSAN         Sentra S       SERGIO          XOLO SEBA                121 N FIRST ST                                              WILMINGTON               IL60481                                                                NMAC                          NISSAN EXTENDED SERVICES NA, GP                                                 PO BOX 685004                 FRANKLIN       TN37068    3510 GERALD NISSAN OF N AURORA     213 HANSEN BLVD               NORTH AURORA   IL60542    C042020226309070800RS000N     05050401844       
00000031N4AL3AP6FC126661RWND107480680513201600000000051320160007623706302022001000002015NISSAN         Altima 2.5     JUSTIN          NICEWONDER               11517 RIDGETOP DRIVE                                        WALTON                   KY41094                                                                NMACR                         NISSAN EXTENDED SERVICES NA, GP                                                 PO BOX 685004                 FRANKLIN       TN37068    3333 KERRY NISSAN, INC.            8053 BURLINGTON PIKE          FLORENCE       KY41042    C042020228593718191RS000N     00000403337       
00000043N1AB7AP2GL665047RCCD108041720718201600000000071820160006840607182022000750002016NISSAN         Sentra S       HERIBERTO       MENDOZA                  303 E 35TH ST  APT 3                                        LOS ANGELES              CA90011                                                                NISSAN MOTOR ACCEPTANCE CORP  NISSAN EXTENDED SERVICES NA, GP                                                 PO BOX 685004                 FRANKLIN       TN37068    249  NISSAN OF DOWNTOWN L.A.       714 W OLYMPIC BLVD S.1112     LOS ANGELES    CA90015    C042020222137484501RS100N     00000402855       
00000053N1AB7AP4GY218593RCCD108189410802201600000000080220160006803508022022000750002016NISSAN         Sentra S       RAUL            VALDEZ                   1745 NORVAL ST                                              POMONA                   CA91766                                                                NISSAN MOTOR                  NISSAN EXTENDED SERVICES NA, GP                                                 PO BOX 685004                 FRANKLIN       TN37068    300  METRO NISSAN OF MONTCLAIR     9440 AUTOPLEX ST              MONTCLAIR      CA91763    C042020229096255575RS100N     00000402000       
00000065N1DR2MM0HC610759RCCD108566410910201600000000091020160005688509102022000750002017NISSAN         Pathfinder S   HORACIO         GALVAN                   555 W KINZIE #3604                                          CHICAGO                  IL60654    GALHERH78@YAHOO.COM                                         NISSAN MOTOR ACCEPTANCE CORP. NISSAN EXTENDED SERVICES NA, GP                                                 PO BOX 685004                 FRANKLIN       TN37068    2160 BERMAN NIS OF CHICAGO INC     3456 N KEDZIE AVE             CHICAGO        IL60618    C042020227732826200RS100N     05050402750       
00000075N1DR2MM0HC610759MZNT105910940910201600000000091020160005688509102022000600122017NISSAN         Pathfinder S   HORACIO         GALVAN                   555 W KINZIE #3604                                          CHICAGO                  IL60654    GALHERH78@YAHOO.COM                                         NISSAN MOTOR ACCEPTANCE CORP. NISSAN EXTENDED SERVICES NA, GP                                                 PO BOX 685004                 FRANKLIN       TN37068    2160 BERMAN NIS OF CHICAGO INC     3456 N KEDZIE AVE             CHICAGO        IL60618    C042020227732826200MC000N     05050400750       
00000081N4AL3AP2GC288630RBCD108691730924201600000000092420160006614409242022000750002016NISSAN         Altima 2.5     PAMELA          NNAJI                    144 JEFFERSON AVE                                           SLIDELL                  LA70460                                                                                              NISSAN EXTENDED SERVICES NA, GP                                                 PO BOX 685004                 FRANKLIN       TN37068    3687 GRAY-DANIELS NISSAN BRAND     108 GRAY DANIELS BLVD         BRANDON        MS39042    C042020226019483050RS100N     00000401277       
00000091N4AL3AP0GC180328RCCD108912691020201600000000102020160006544510072022000750002016NISSAN         Altima 2.5     JOE             LARIOS                   296 SARATOGA CIRCLE                                         KAPOLEI                  HI96707                                                                                              NISSAN EXTENDED SERVICES NA, GP                                                 PO BOX 685004                 FRANKLIN       TN37068    98003NEW CITY NISSAN               2295 NORTH KING ST            HONOLULU       HI96819    C042020228085249111RS100N     05050401895       
00000103N1CN7AP8FL952231RWND109298531207201600000000120720160006894403312023001000002015NISSAN         Versa 1.6 S    BLANCA          MONTES                   8710 N COLRAIN CT                                           KANSAS CITY              MO64154                                                                NMAC                          NISSAN EXTENDED SERVICES NA, INC                                                PO BOX 685004                 FRANKLIN       TN37068    5408 FENTON NIS TIFFANY SPRING     PO BOX 901584                 KANSAS CITY    MO64190    C042020228164594800RS000N     05050402495       
00000115N1AZ2MG5GN165872RCCD109388161219201600000000121920160006334612192022000750002016NISSAN         Murano S       MELISSA         GONZALES                 1923 PALMETTO ST                                            LAFITTE                  LA70067                                                                    NMAC                      NISSAN EXTENDED SERVICES NA, GP                                                 PO BOX 685004                 FRANKLIN       TN37068    2324 GERI LYNN NISSAN              1772 MARTIN LUTHER KING       HOUMA          LA70360    C042020229852191111RS100N     00000401535       
00000121N4AL3AP5GC279789RCCD109581891227201600000000122720160006449712272022000750002016NISSAN         Altima 2.5     AMY             SALINAS                  1728 S 2ND ST                                               MILWAUKEE                WI53204                                                                                              NISSAN EXTENDED SERVICES NA, GP                                                 PO BOX 685004                 FRANKLIN       TN37068    5522 ROSEN NISSAN                  5505 S 27TH STREET            MILWAUKEE      WI53221    C042020224142829300RS100N     05050402500       
00000131N4AL3APXHN317135RCCE109709290107201700000000010720170009218101072023001000002017NISSAN         Altima 2.5     FARM            SAECHAO                  417 E PARK AVE                                              MONTGOMERY               AL36110                                                                    NMAC                      NISSAN EXTENDED SERVICES NA, GP                                                 PO BOX 685004                 FRANKLIN       TN37068    908  JACK INGRAM MOTORS, INC.      PO BOX 240309                 MONTGOMERY     AL36124    C042020223342775700RS100N     00000401785       
00000143N1CN7AP5HL807960RCCD109983750227201700000000022720170006141302272023000750002017NISSAN         Versa 1.6 S    MARGARITA       MARTINEZ SOTO            67322 MISSION CT                                            CATHEDRAL CITY           CA92234                                                                Nissan Motor Acceptance CorporNISSAN EXTENDED SERVICES NA, GP                                                 PO BOX 685004                 FRANKLIN       TN37068    5236 PALM SPRINGS NISSAN           68-177 KYLE ROAD              CATHEDRAL CITY CA92234    C042020227603282828RS100N     00000402299       
00000155N1AZ2MH2HN141796RCCD110083060305201700000000030520170005981503052023000750002017NISSAN         Murano S       MAHENDRA        KURBAN                   923 PENNSYLVANIA AVE                                        SCHENECTADY              NY12303                                                                    NMAC                      NISSAN EXTENDED SERVICES NA, GP                                                 PO BOX 685004                 FRANKLIN       TN37068    5156 GREAT NECK NISSAN, LLC        250 NORTHERN BLVD             GREAT NECK     NY11021    C042020225164827700RS100N     00000403500       
00000163N1CN7AP4HL849567RCCO110182360320201700000000032020170006034303202024000700002017NISSAN         Versa 1.6 S    PHYLLIS         ADAMS                    406 DUKES AVE                                               GREENWOOD                SC29646    Fireball@Aol.Com                                            NISSAN MOTOR ACCEPTANCE       NISSAN EXTENDED SERVICES NA, GP                                                 PO BOX 685004                 FRANKLIN       TN37068    5312 NISSAN OF GREER               13770 E WADE HAMPTON BLVD     GREER          SC29651    C042020228648777678RS100N     05050402950       
0000017JN8AT2MT6HW381233RCCE110490790421201700000000042120170005880504212023001000002017NISSAN         Rogue S        CRAIG           GROSS                    10168 PORTSMOUTH RD                                         MANASSAS                 VA20109    GROSSCRAIG2@GMAIL.COM                                       NMAC                          NISSAN EXTENDED SERVICES NA, GP                                                 PO BOX 685004                 FRANKLIN       TN37068    3031 SHEEHY NISSAN OF MANASSAS     9010 LIBERIA AVE              MANASSAS       VA20110    C042020227033615161RS100N     00000402000       
00000181N4AL3AP9HN320205RBCI110554470417201700000000041720170006086604172022000750002017NISSAN         Altima 2.5     VICTORIA        MOREY                    1500 W THORNTON PKWY #72                                    THORNTON                 CO80260                                                                                              NISSAN EXTENDED SERVICES NA, GP                                                 PO BOX 685004                 FRANKLIN       TN37068    5356 EMPIRE LAKEWOOD NISSAN        14707 W. COLFAX AVE           LAKEWOOD       CO80401    C042020223032328881RS100N     05050402200       
00000191N4AL3AP7HC163608RCCE110588850429201700000000042920170003603104292023001000002017NISSAN         Altima 2.5     CLINT           OWENS                    505 N PALM AVE                                              BROKEN ARROW             OK74012                                                                    NMAC                      NISSAN EXTENDED SERVICES NA, GP                                                 PO BOX 685004                 FRANKLIN       TN37068    3007 JACKIE COOPER NISSAN          9898 S MEMORIAL DR            TULSA          OK74133    C042020229182499393RS100N     05050401519       
00000203N1CE2CPXFL446187RWND110685950513201700000000051320170008150408202022001000002015NISSAN         Versa Note S   MARIELA         PORTILLO                 8456 COLUMBUS AVE                                           NORTH HILLS              CA91343    NONE@AOL.COM                                                                              NISSAN EXTENDED SERVICES NA, GP                                                 PO BOX 685004                 FRANKLIN       TN37068    5248 NISSAN OF MISSION HILLS       11000 SEPULVEDA BLVD          MISSION HILLS  CA91345    C042020228188384444RS000N     00000402190       
00000215N1AT2MV4HC831360RCNE110848670529201700000000052920170006307805292023001000002017NISSAN         Rogue S        CHRISTINE       DETTMAN                  824 MARION AVENUE                                           SOUTH MILWAUKEE          WI53172    dcdd8848@yahoo.com                                                                        NISSAN EXTENDED SERVICES NA, GP                                                 PO BOX 685004                 FRANKLIN       TN37068    5522 ROSEN NISSAN                  5505 S 27TH STREET            MILWAUKEE      WI53221    C042020224142829300RS000N     05050402495       
0000022JN8AT2MT1HW130104RCND110827840529201700000000052920170005881805292023000750002017NISSAN         Rogue S        JESSICA         EDWARDS                  217 PVT RD 5283                                             BUNA                     TX77612    Jessicaedwards36@Gmail.Com                                  NMAC                          NISSAN EXTENDED SERVICES NA, GP                                                 PO BOX 685004                 FRANKLIN       TN37068    3529 MIKE SMITH NISSAN             PO BOX 3564                   BEAUMONT       TX77704    C042020224098337100RS000N     05050402425       
0000023KNMAT2MT5HP572356RCCB110941500610201700000000061020170005774806102022000600002017NISSAN         Rogue S        MARTIN          RODRIGUEZ                1205 PLAZA DEL SOL # D                                      LOS ANGELES              CA90033                                                                NISSAN MOTOR ACCEPTANCE CORP  NISSAN EXTENDED SERVICES NA, GP                                                 PO BOX 685004                 FRANKLIN       TN37068    5380 NISSAN OF DUARTE              1434 BUENA VISTA STREET       DUARTE         CA91010    C042020226263053000RS100N     00000404100       
00000241N4AL3AP1HN330954RCCE110950170612201700000000061220170005834506122023001000002017NISSAN         Altima 2.5     SEAN            BOBB                     356 SALEM LANE WA                                           CONYERS                  GA30013                                                                NISSAN MOTOR ACCEPTANCE CORP  NISSAN EXTENDED SERVICES NA, GP                                                 PO BOX 685004                 FRANKLIN       TN37068    3987 CONYERS NISSAN                1420 IRIS DR SW               CONYERS        GA30094    C042020227709227600RS100N     00000404000       
00000251N4AA6APXHC406870MZNW107504780616201700000000061620170005403606162025000800362017NISSAN         Maxima 3.5 S   GEORGINA        SEKYI                    8507 WOODFORD BRIDGE DR                                     CHARLOTTE                NC28216                                                                NMAC                          NISSAN EXTENDED SERVICES NA, GP                                                 PO BOX 685004                 FRANKLIN       TN37068    4000 EAST CHARLOTTE NISSAN         6901 E INDEPENDENCE BLVD      CHARLOTTE      NC28227    C042020227045354012MC000N     05050401100       
00000261N4AA6APXHC406870RCCS110982320616201700000000061620170005403609162023001000002017NISSAN         Maxima 3.5 S   GEORGINA        SEKYI                    8507 WOODFORD BRIDGE DR                                     CHARLOTTE                NC28216                                                                NMAC                          NISSAN EXTENDED SERVICES NA, GP                                                 PO BOX 685004                 FRANKLIN       TN37068    4000 EAST CHARLOTTE NISSAN         6901 E INDEPENDENCE BLVD      CHARLOTTE      NC28227    C042020227045354012RS100N     05050402995       
0000027JN1BJ1CR3HW103026RCCE111037900623201700000000062320170001215406232023001000002017NISSAN         Rogue Spt/QashqKAREN           WATSON                   17172 MENDOTA                                               DETROIT                  MI48221                                                                NISSAN MOTOR ACCEPTANCE CORP  NISSAN EXTENDED SERVICES NA, GP                                                 PO BOX 685004                 FRANKLIN       TN37068    5516 ALL PRO NISSAN / DEARBORN     24501 MICHIGAN AVENUE         DEARBORN       MI48124    C042020223137493200RS100N     05050402452       
00000283N1CN7AP0GL912775RWND111246010714201700000000071420170005763412142023001000002016NISSAN         Versa 1.6 S    IDAMAE          JOHNSON                  8355 PONNEL LN                                              HOUSTON                  TX77088    IJOHNSON36@GAMIL.COM                                        NMAC                          NISSAN EXTENDED SERVICES NA, GP                                                 PO BOX 685004                 FRANKLIN       TN37068    5345 FRED HAAS NISSAN              24202 TOMBALL PKWY  SH249     TOMBALL        TX77375    C042020222815166700RS000N     05050401450       
00000291N4AL3AP3HC264158RCCI111285080701201700000000070120170005727907012022000750002017NISSAN         Altima 2.5     NICHOLAS        FLEMING                  2223 SIMS RD                                                SHELBYVILLE              TN37160                                                                Nissan Motor Acceptance CorporNISSAN EXTENDED SERVICES NA, GP                                                 PO BOX 685004                 FRANKLIN       TN37068    5411 NEWTON NISSAN SOUTH, INC.     2801 HIGHWAY 231 N            SHELBYVILLE    TN37160    C042020229316846811RS100N     05050401250       
00000303N1AB7AP0HY289551RCCD111447830806201700000000080620170003980508062023000750002017NISSAN         Sentra S       ISAAC           DAVILA HERNANDE          9114 SILVER VISTA                                           SAN ANTONIO              TX78254                                                                SSFCU                         NISSAN EXTENDED SERVICES NA, GP                                                 PO BOX 685004                 FRANKLIN       TN37068    3287 ANCIRA NISSAN, INC.           10835 IH 10 W                 SAN ANTONIO    TX78230    C042020222105585001RS100N     05050402062       
00000313N1AB7AP0HY306221RCCI111496010812201700000000081220170005521208122022000750002017NISSAN         Sentra S       JACOBO          CARDOZA                  350 CAPITOL VILLAGE CIR                                     SAN JOSE                 CA95136                                                                                              NISSAN EXTENDED SERVICES NA, GP                                                 PO BOX 685004                 FRANKLIN       TN37068    5222 PREMIER NISSAN                1120 W CAPITOL EXPRESSWAY     SAN JOSE       CA95136    C042020224089781234RS100N     00000404100       
00000321N4AL3AP2HC260795MZNW107814370805201700000000080520170006851008052025000800102017NISSAN         Altima 2.5     DAWN            MOORE                    13903 NORTH RIDGE DR                                        HULBERT                  OK74441                                                                NMAC                          NISSAN EXTENDED SERVICES NA, GP                                                 PO BOX 685004                 FRANKLIN       TN37068    2832 NELSON NISSAN                 800 W QUEENS ST               BROKEN ARROW   OK74012    C042020229182586581MC000N     05050400899       
00000331N4AA6AP9HC431694RCCD111631100829201700000000082920170006838208292023000750002017NISSAN         Maxima 3.5 S   QUOC            LAM                      7627 E 37TH ST N APT 1405                                   WICHITA                  KS67226                                                                NMAC                          NISSAN EXTENDED SERVICES NA, GP                                                 PO BOX 685004                 FRANKLIN       TN37068    5434 MCGAVOCK NISSAN WICHITA       10625 E KELLOGG DRIVE         WICHITA        KS67207    C042020223166816900RS100N     00000402704       
00000341N4AL3AP3HC275029RCCI111745410904201700000000090420170006112609042022000750002017NISSAN         Altima 2.5     NICHOLAS        BOSTIC                   7425 KIRKWALL DR                                            RICHMOND                 VA23235                                                                                              NISSAN EXTENDED SERVICES NA, GP                                                 PO BOX 685004                 FRANKLIN       TN37068    5245 LOYALTY NISSAN                PO BOX 2189                   CHESTER        VA23831    C042020228044141700RS100N     00000402499       
0000035KNMAT2MT7HP597341RCNE111737450901201700000000090120170005611509012023001000002017NISSAN         Rogue S        SHERIECE        MOSES                    5867 N LONDON                                               KANSAS CITY              MO64151    SHERIECEMOSES@YAHOO.COM                                         NMAC                      NISSAN EXTENDED SERVICES NA, GP                                                 PO BOX 685004                 FRANKLIN       TN37068    3644 MCCARTHY OLATHE NISSAN        683 N RAWHIDE RD              OLATHE         KS66061    C042020229133247364RS000N     00000402877       
0000036JN8AS5MV4FW770908RWND111862900926201700000000092620170006565309292022001000002015NISSAN         Rogue Select S KATELYN         STAPLETON                164A PARK ST                                                MALONE                   NY12953    katelyn.stapleton1989@gmail.com                             NISSAN MOTOR ACCEPTANCE CORPORNISSAN EXTENDED SERVICES NA, GP                                                 PO BOX 685004                 FRANKLIN       TN37068    5518 HUTTIG NISSAN                 822 STATE ROUTE 3             PLATTSBURGH    NY12901    C042020225185611210RS000N     00000402439       
00000371N4AL3AP7HC237853RCCD111885300928201700000000092820170005046609282023000750002017NISSAN         Altima 2.5     LYNN            BRUNSON                  1797 PROSPECT PL APT 2R                                     BROOKLYN                 NY11233                                                                                              NISSAN EXTENDED SERVICES NA, GP                                                 PO BOX 685004                 FRANKLIN       TN37068    5456 NISSAN OF NEW ROCHELLE        2533 PALMER AVE               NEW ROCHELLE   NY10801    C042020229145767600RS100N     00000404000       
00000385N1AZ2MG1HN115794MZNT108076880922201700000000092220170005424709222023000600172017NISSAN         Murano S       KOOK            AN                       34277 HOURGLASS ST                                          TEMECULA                 CA92592                                                                                              NISSAN EXTENDED SERVICES NA, GP                                                 PO BOX 685004                 FRANKLIN       TN37068    5472 TEMECULA NISSAN               41895 MOTOR CAR PKWY          TEMECULA       CA92591    C042020229519728400MC000N     00000400519       
00000395N1AZ2MG1HN115794RCNF111828790922201700000000092220170005424705232024001000002017NISSAN         Murano S       KOOK            AN                       34277 HOURGLASS ST                                          TEMECULA                 CA92592                                                                                              NISSAN EXTENDED SERVICES NA, GP                                                 PO BOX 685004                 FRANKLIN       TN37068    5472 TEMECULA NISSAN               41895 MOTOR CAR PKWY          TEMECULA       CA92591    C042020229519728400RS000N     00000402823       
00000405N1DR2MN9HC676929RCCB111854530925201700000000092520170005207709252022000600002017NISSAN         Pathfinder S   BERNARDINA      HERNANDEZ RIOS           14006 WAXAHACHIE ST                                         HOUSTON                  TX77015                                                                NISSAN MOTOR ACCEPTANCE CORP  NISSAN EXTENDED SERVICES NA, GP                                                 PO BOX 685004                 FRANKLIN       TN37068    5399 BAYTOWN NISSAN                5755 EAST FREEWAY             BAYTOWN        TX77521    C042020222814217442RS100N     05050403000       
0000041JN8AT2MV2HW281549RCND111908930930201700000000093020170000416909302023000750002017NISSAN         Rogue S        JAVIER          RAMIREZ-TARAZON          1360 FREMONT PL APT R                                       ELIZABETH                NJ07208                                                                NILT                          NISSAN EXTENDED SERVICES NA, GP                                                 PO BOX 685004                 FRANKLIN       TN37068    3246 ROUTE 22 NISSAN, INC.         56 ROUTE 22 EAST              HILLSIDE       NJ07205    C042020229089648700RS000N     05050403285       
0000042KNMAT2MT7HP569913RCCD111946401004201700000000100420170000003810042023000750002017NISSAN         Rogue S        JUDY            HARRIS                   110 THAD LITTLE RD                                          AYDEN                    NC28513    grammyj51@yahoo.com                                         NISSAN MOTOR ACCEPTANCE CORP  NISSAN EXTENDED SERVICES NA, GP                                                 PO BOX 685004                 FRANKLIN       TN37068    3814 GREENVILLE NISSAN             991 GREENVILLE BLVD SW        GREENVILLE     NC27834    A042020222527561738RS100N     05050301454       
00000433N1AB7AP1HY314280RCNI112073631022201700000000102220170005315610222022000750002017NISSAN         Sentra S       HANNAH          BRECKENRIDGE             239 BONITA AVE                                              SAN JOSEN JOSE           CA95116                                                                                              NISSAN EXTENDED SERVICES NA, GP                                                 PO BOX 685004                 FRANKLIN       TN37068    5222 PREMIER NISSAN                1120 W CAPITOL EXPRESSWAY     SAN JOSE       CA95136    C042020224089781234RS000N     00000404100       
00000441N4AA6APXHC439562MZNT108228711010201700000000101020170004906210102023000600352017NISSAN         Maxima 3.5 S   MELISSA         BARABIN CAMPOS           370 RICK HEINRICH CIR                                       SACRAMENTO               CA95835                                                                JP MORGAN CHASE BANK          NISSAN EXTENDED SERVICES NA, GP                                                 PO BOX 685004                 FRANKLIN       TN37068    3773 NISSAN OF ELK GROVE           8590 LAGUNA GROVE DR          ELK GROVE      CA95757    C042020229164055000MC000N     00000400800       
0000045JN1BJ1CP1HW022749RCCI112026201016201700000000101620170005370210162022000750002017NISSAN         Rogue Spt/QashqLEYDI           RODRIGUEZ AGUIL          10919 FONDREN RD APT 104                                    HOUSTON                  TX77096    Leparoa@Yahoo.Com                                           NMAC                          NISSAN EXTENDED SERVICES NA, GP                                                 PO BOX 685004                 FRANKLIN       TN37068    3837 STERLING MCCALL NISSAN        12230 SOUTHWEST FWY           STAFFORD       TX77477    C042020222812438600RS100N     05050402807       
0000046JN1BJ1CP9HW021820RCCB112205241109201700000000110920170005130111092022000600002017NISSAN         Rogue Spt/QashqJUANA           GUERRA                   5519 AVENUE P                                               GALVESTON                TX77551                                                                Nissan Motor Acceptance CorporNISSAN EXTENDED SERVICES NA, GP                                                 PO BOX 685004                 FRANKLIN       TN37068    5345 FRED HAAS NISSAN              24202 TOMBALL PKWY  SH249     TOMBALL        TX77375    C042020222815166700RS100N     05050403325       
00000471N4AL3AP8HC295177RCCI112236261112201700000000111220170007444811112022000750002017NISSAN         Altima 2.5     MARTIN          ALVAREZ                  1652 GLENVIEW DR                                            PERRIS                   CA92571                                                                Nissan Motor Acceptance CorporNISSAN EXTENDED SERVICES NA, GP                                                 PO BOX 685004                 FRANKLIN       TN37068    3753 RIVERSIDE NISSAN              8330 INDIANA AVE              RIVERSIDE      CA92504    C042020229516889420RS100N     00000402500       
00000483N1AB7AP4HY379365RCCD112341351124201700000000112420170006099511242023000750002017NISSAN         Sentra S       SHAREKA         GINGLES                  902 DOGWOOOD DR                                             GASTONIA                 NC28054    MRS.GINGLES11@GMAIL.COM                                     NISSAN MOTOR ACCEPTANCE CORP  NISSAN EXTENDED SERVICES NA, GP                                                 PO BOX 685004                 FRANKLIN       TN37068    5241 GASTONIA NISSAN               2275 E FRANKLIN BLVD          GASTONIA       NC28054    C042020227048670000RS100N     05050401904       
00000493N1AB7AP0HY328784MYNT108483331106201700000000110620170004714811062023000600452017NISSAN         Sentra S       MARK            MEINECKE                 8100 BANDLEY DR LOT 189                                     FOUNTAIN                 CO80817                                                                                              NISSAN EXTENDED SERVICES NA, GP                                                 PO BOX 685004                 FRANKLIN       TN37068    5017 WOODMEN NISSAN                6840 VINCENT DR               COLORADO SPRINGCO80918    C042020227192341000MC000N     05050401200       
0000050JN8AT2MT1HW400934RCCE112498461222201700000000122220170003704212222023001000002017NISSAN         Rogue S        GARDNER         ASHTON JR                725 TEAL ST                                                 MERRITT ISLAND           FL32952    Islandgirl57@Att.Net                                        SPACE COAST CREDIT UNION      NISSAN EXTENDED SERVICES NA, INC                                                PO BOX 685004                 FRANKLIN       TN37068    2868 MIKE ERDMAN NISSAN            4640 HIGHWAY 520              COCOA          FL32926    C042020223214532050RS100A     02525402065       
0000051JN8AZ2NE1H9161012FENS112543131228201700000000122820170005114512282024001200122017INFINITI       QX80 Base      TYRONE          STEPHENSON               3704 WATERFORD MILL RD                                      BOWIE                    MD20721                                                                                              NISSAN EXTENDED SERVICES NA, GP                                                 PO BOX 685004                 FRANKLIN       TN37068    71481JBA INFINITI/ELLICOTT CTY     8431 BALTIMORE NATL PIKE      ELLICOTT CITY  MD21043    C042020224104801000SC000N     05050403640       
00000521N4AL3AP8HN361165RCCI112721150119201800000000011920180005043301192023000750002017NISSAN         Altima 2.5     DANIEL          RUSSO                    1857 PUTNAM AVE 3R                                          RIDGEWOOD                NY11385                                                                Nissan Motor Acceptance CorporNISSAN EXTENDED SERVICES NA, GP                                                 PO BOX 685004                 FRANKLIN       TN37068    3811 NISSAN OF QUEENS              93-25 ROCKAWAY BLVD           OZONE PARK     NY11417    C042020227188358300RS100N     00000402737       
00000531N4AL3AP6HC494518RCCE112729400120201800000000012020180004991201202024001000002017NISSAN         Altima 2.5     BOBBIE          RATCLIFF                 7609 Shorewood Blvd                                         NEW ORLEANS              LA70128                                                                    NMAC                      NISSAN EXTENDED SERVICES NA, GP                                                 PO BOX 685004                 FRANKLIN       TN37068    3888 PREMIER NISSAN/METAIRIE       6636 VETERANS MEMORIAL BL     METAIRIE       LA70003    C042020225044555800RS100N     00000401200       
00000545N1AL0MN3FC514851FEND112740060127201800000000012720180009268906232022009999992015INFINITI       QX60 Base      VICTOR          PADILLA                  1945 S OCEAN DR APT 310                                     HALLANDALE BEACH         FL33009    VHPADILLA@YAHOO.COM                                                                       NISSAN EXTENDED SERVICES NA, INC                                                PO BOX 685004                 FRANKLIN       TN37068    70052WARREN HENRY INFINITI         2300 NE 151ST STREET          NORTH MIAMI    FL33181    C042020223056906006SC000A     02525402189       
00000555N1DR2MN4HC650822RCCC112919720221201800000000022120180008757102212023001000002017NISSAN         Pathfinder S   RENEA           BARD                     668 MESILLA DR                                              KISSIMMEE                FL34758                                                                NMAC                          NISSAN EXTENDED SERVICES NA, INC                                                PO BOX 685004                 FRANKLIN       TN37068    5303 SUTHERLIN NISSAN ORLANDO      8125 EAST COLONIAL DR         ORLANDO        FL32817    C042020224076579500RS100A     02525402335       
0000056JN1BJ1CP0HW012715RCCE113223550330201800000000033020180006263103302024001000002017NISSAN         Rogue Spt/QashqAZUCENA         AYVAR                    3621 JUNE ST APT B                                          SAN BERNARDINO           CA92407                                                                Nissan Motor Acceptance CorporNISSAN EXTENDED SERVICES NA, GP                                                 PO BOX 685004                 FRANKLIN       TN37068    5159 FONTANA NISSAN                16444 S HIGHLAND AVE          FONTANA        CA92336    C042020229095742288RS100N     00000401287       
0000057JN8AT2MV0GW135374RWND113286720404201800000000040420180007409408112023001000002016NISSAN         Rogue S        JOHNNY          MAYNE                    PO BOX 314                                                  ROCKHOLDS                KY40759    VANSHIRLEY37@GMAIL.COM                                      NMAC                          NISSAN EXTENDED SERVICES NA, GP                                                 PO BOX 685004                 FRANKLIN       TN37068    3733 LEGACY NISSAN                 PO BOX 1420                   LONDON         KY40743    C042020226068787220RS000N     00000401000       
00000581N4AL3AP9HC168373RWND113401310421201800000000042120180009004812312023001000002017NISSAN         Altima 2.5     KELVIN          MAYES                    1136 BRIDGEWATER DR                                         SAVANNAH                 GA31419    NOEMAIL@EMAIL.COM                                           NMAC                          NISSAN EXTENDED SERVICES NA, GP                                                 PO BOX 685004                 FRANKLIN       TN37068    5366 GRAINGER NISSAN, INC.         1550 CHATHAM PARKWAY          GARDEN CITY    GA31408    C042020229123585858RS000N     00000402534       
0000059JN8AT2MT4JW466917RCCD113437920402201800000000040220180005810104012024000750002018NISSAN         Rogue S        YOLANDA         BANDA                    PO BOX 4303                                                 BEEVILLE                 TX78104                                                                SSFCU                         NISSAN EXTENDED SERVICES NA, GP                                                 PO BOX 685004                 FRANKLIN       TN37068    3287 ANCIRA NISSAN, INC.           10835 IH 10 W                 SAN ANTONIO    TX78230    C042020222105585001RS100N     05050402495       
0000060KNMAT2MT5JP561007RCCE113420510423201800000000042320180004430604232024001000002018NISSAN         Rogue S        REUBEN          TREJO                    6715 VALOR LN                                               MIDLAND                  TX79706                                                                                              NISSAN EXTENDED SERVICES NA, GP                                                 PO BOX 685004                 FRANKLIN       TN37068    5086 NISSAN OF MIDLAND             4800 WEST LOOP 250            MIDLAND        TX79707    C042020224326949558RS100N     05050402895       
00000611N4AL3AP1JC109145RCC5113658180525201800000000052520180009510205252023001200002018NISSAN         Altima 2.5 S   SHERRY          DAVIS                    297 CONTINENTAL RD                                          RATLIFF CITY             OK73481    sherrymd17@gmail.com                                        NMAC                          NISSAN EXTENDED SERVICES NA, GP                                                 PO BOX 685004                 FRANKLIN       TN37068    5349 FENTON NISSAN OF ARDMORE      1625 N ROCKFORD               ARDMORE        OK73401    C042020225802231500RS100N     05050402701       
00000623N6CM0KN4JK699716MZNT109525280604201800000000060420180005260306042024000600152018NISSAN         NV200 S        CLARA           FELIPE                   12140 SW 200 ST APT 1122                                    MIAMI                    FL33177                                                                NISSAN MOTOR ACCEPTANCE CORPORNISSAN EXTENDED SERVICES NA, INC                                                PO BOX 685004                 FRANKLIN       TN37068    19074BILL SEIDLE'S NISSAN INC.     10500 NW 12TH ST              MIAMI          FL33172    C042020223056338000MC000A     02525401290       
00000631N4AL3AP3JC246040RCCV113865620602201800000000060220180004550206022022000480002018NISSAN         Altima 2.5 S   ANTHONY         ESSEX                    2225 Pershing Road                                          BIRMINGHAM               AL35214                                                                                              NISSAN EXTENDED SERVICES NA, GP                                                 PO BOX 685004                 FRANKLIN       TN37068    2000 SERRA NISSAN                  1500 CENTER POINT PKWY        BIRMINGHAM     AL35215    C042020222058562544RS100N     00000404000       
00000645N1AT2MTXJC719537RCND113879480621201800000000062120180000642205302024000750002018NISSAN         Rogue S        DALFEL          FUENMAYOR                11743 N Point Blvd #1037                                    TOMBALL                  TX77377    ROBERTBOB@GMAIL.COM                                         Nissan Motor Acceptance CorporNISSAN EXTENDED SERVICES NA, GP                                                 PO BOX 685004                 FRANKLIN       TN37068    2869 BAKER NISSAN NORTH            19630 NORTHWEST FWY           HOUSTON        TX77065    C042020222818905656RS000N     05050403500       
00000655N1AT2MTXJC795078RBCE113865870619201800000000061920180004507306192024001000002018NISSAN         Rogue S        APRIL           MARTINEZ                 618 POWERS RD                                               DOVER                    AR72837                                                                    NMAC                      NISSAN EXTENDED SERVICES NA, GP                                                 PO BOX 685004                 FRANKLIN       TN37068    5530 ORR NISSAN / RUSSELLVILLE     3115 EAST MAIN                RUSSELLVILLE   AR72802    C042020224799684566RS100N     00000403500       
00000661N4AL3AP0JC129905RCCD113887530622201800000000062220180004612006222024000750002018NISSAN         Altima 2.5 S   DARNELL         PEARSON                  5834 W ERIE                                                 CHICAGO                  IL60644    DARNELL17PEARSON@YAHOO.COM                                  NISSAN MOTOR ACCEPTANCE CORP. NISSAN EXTENDED SERVICES NA, GP                                                 PO BOX 685004                 FRANKLIN       TN37068    2160 BERMAN NIS OF CHICAGO INC     3456 N KEDZIE AVE             CHICAGO        IL60618    C042020227732826200RS100N     05050402750       
00000671N4AL3AP2JC272287RCCE113918850625201800000000062520180004711206252024001000002018NISSAN         Altima 2.5 S   KATRINA ASHLEE  ADKINS                   1418 E WASHINGTON ST                                        GREENSBORO               NC27401                                                                NMAC                          NISSAN EXTENDED SERVICES NA, GP                                                 PO BOX 685004                 FRANKLIN       TN37068    3576 CROWN NISSAN                  3900 W WENDOVER AVE           GREENSBORO     NC27407    C042020223362929191RS100N     05050402700       
00000685N1DR2MN2JC625388MZNS109686230627201800000000062720180004669106272023000500272018NISSAN         Pathfinder S   RUDY            ANDERSON                 1220 PINERIDGE ST                                           CONWAY                   SC29527                                                                                              NISSAN EXTENDED SERVICES NA, GP                                                 PO BOX 685004                 FRANKLIN       TN37068    3248 GRAND STRAND NISSAN, INC.     4701 HIGHWAY 501              MYRTLE BEACH   SC29579    C042020228432362191MC000N     05050401000       
00000691N4AL3AP1JC156708MZNW109699280704201800000000070420180002545107042026000800102018NISSAN         Altima 2.5 S   JESUS           GOMEZMARTINEZ            8596 THEODORE AVE                                           SACRAMENTO               CA95823                                                                SCHOOLS FEDERAL CREDIT UNION  NISSAN EXTENDED SERVICES NA, GP                                                 PO BOX 685004                 FRANKLIN       TN37068    3773 NISSAN OF ELK GROVE           8590 LAGUNA GROVE DR          ELK GROVE      CA95757    C042020229164055000MC000N     00000401800       
00000701N4AL3AP5JC266919RCCE114060090711201800000000071120180007426607112024001000002018NISSAN         Altima 2.5 S   HENRY           BLACK                    1416 BROOKHILL DR.                                          FORT MYERS               FL33916                                                                NISSAN MOTOR ACCEPTANCE CORP  NISSAN EXTENDED SERVICES NA, INC                                                PO BOX 685004                 FRANKLIN       TN37068    3686 SUTHERLIN NISSAN              13985 S TAMIAMI TRL           FORT MYERS     FL33912    C042020222394158600RS100A     02525402065       
00000711N4AL3AP4JC180520RCCC114081040714201800000000071420180009141307142023001000002018NISSAN         Altima 2.5 S   SHIGEMI         ALAS                     7405 E 133RD TERR                                           GRANDVIEW                MO64030                                                                    NMAC                      NISSAN EXTENDED SERVICES NA, INC                                                PO BOX 685004                 FRANKLIN       TN37068    5410 FENTON NIS LEE'S SUMMIT       PO BOX 901584                 KANSAS CITY    MO64190    C042020228166004000RS100N     05050404100       
0000072JN8AT2MT8JW470548RCCD114078680714201800000000071420180007064207142024000750002018NISSAN         Rogue S        JUAN            DAVILA                   1369 N WILLOW AVE                                           RIALTO                   CA92376                                                                NISSAN MOTOR ACCEPTANCE CORP  NISSAN EXTENDED SERVICES NA, GP                                                 PO BOX 685004                 FRANKLIN       TN37068    5380 NISSAN OF DUARTE              1434 BUENA VISTA STREET       DUARTE         CA91010    C042020226263053000RS100N     00000404100       
0000073JN1FV7ELXJM630600MKNS109786400721201800000000072120180004358207212023000500002018INFINITI       Q60 Red Sport 4TINA            ROSS                     7555 ST RT 80E ST                                           ARLINGTON                KY42021                                                                INFINITI FINANCIAL SERVICES   NISSAN EXTENDED SERVICES NA, GP                                                 PO BOX 685004                 FRANKLIN       TN37068    72234INFINITI OF COOL SPRINGS      211 COMTIDE CT.               FRANKLIN       TN37067    C042020226157717171MB000N     05050403299       
00000741N4AL3AP0JC234668RCCE114116670719201800000000071920180005439107192024001000002018NISSAN         Altima 2.5 S   MARITZA         PERPULY                  8163 S COVER VIEW RD                                        TUCSON                   AZ857362811                                                            NISSAN MOTOR ACCEPTANCE CORPORNISSAN EXTENDED SERVICES NA, GP                                                 PO BOX 685004                 FRANKLIN       TN37068    225  THOROUGHBRED NISSAN           5163 E 22ND ST                TUCSON         AZ85711    C042020225206186500RS100N     02525402599       
00000751N4AL3AP0JC234668MZNT109778240719201800000000071920180005439107192024000604152018NISSAN         Altima 2.5 S   MARITZA         PERPULY                  8163 S COVER VIEW RD                                        TUCSON                   AZ857362811                                                            NISSAN MOTOR ACCEPTANCE CORPORNISSAN EXTENDED SERVICES NA, GP                                                 PO BOX 685004                 FRANKLIN       TN37068    225  THOROUGHBRED NISSAN           5163 E 22ND ST                TUCSON         AZ85711    C042020225206186500MC000N     02525400799       
00000761N4AL3AP8JC155278RCCB114154500630201800000000063020180004510306302023000600002018NISSAN         Altima 2.5 S   BRITTNEY        SANDERS                  14984 HIDALGO VALLEY LN                                     HOUSTON                  TX77090                                                                    NMAC                      NISSAN EXTENDED SERVICES NA, GP                                                 PO BOX 685004                 FRANKLIN       TN37068    2802 ROBBINS NISSAN                18711 HIGHWAY 59 NORTH        HUMBLE         TX77338    C042020222814463181RS100N     05050403585       
00000771N4AL3AP6JC187405RCCD114149450723201800000000072320180004490107232024000750002018NISSAN         Altima 2.5 S   KAREN           GARCIA                   5440 W MELROSE ST BSMT                                      CHICAGO                  IL60641    GARCIA_KAREN0624@YAHOO.COM                                  NISSAN MOTOR ACCEPTANCE CORP. NISSAN EXTENDED SERVICES NA, GP                                                 PO BOX 685004                 FRANKLIN       TN37068    2160 BERMAN NIS OF CHICAGO INC     3456 N KEDZIE AVE             CHICAGO        IL60618    C042020227732826200RS100N     05050401800       
00000783N1CN7AP5JL883393RCCI114200400729201800000000072920180004216207292023000750002018NISSAN         Versa S        LUCIA           MORALES                  4978 PIMLICO CT                                             WEST PALM BEACH          FL33415                                                                NISSAN-INFINITI LT            NISSAN EXTENDED SERVICES NA, INC                                                PO BOX 685004                 FRANKLIN       TN37068    5670 GREENACRES NISSAN             5353 LAKE WORTH ROAD          GREENACRES     FL33463    C042020225615375300RS100A     02525401365       
00000795N1AT2MT1JC833992RCCC114223510731201800000000073120180003810607312023001000002018NISSAN         Rogue S        MONIQUE         TREVINO                  4680 HERRERA ST                                             ROBSTOWN                 TX78380                                                                NACCU                         NISSAN EXTENDED SERVICES NA, GP                                                 PO BOX 685004                 FRANKLIN       TN37068    5506 HICKS FAMILY NISSAN           3000 S PADRE ISLAND DR        CORPUS CHRISTI TX78415    C042020223616515910RS100N     05050401500       
00000805N1AT2MT2JC743685RCCV114131290721201800000000072120180004357907212022000480002018NISSAN         Rogue S        SHIRLEY-ANN     LOUIS                    2404 FREEMAN AVE                                            CINCINNATI               OH45015                                                                NISSAN MOTOR ACCEPTANCE CORP  NISSAN EXTENDED SERVICES NA, GP                                                 PO BOX 685004                 FRANKLIN       TN37068    5569 JEFF WYLER NIS/CINCINNATI     8680 COLERAIN AVE             CINCINNATI     OH45251    C042020225133851400RS100N     05050402080       
00000813N6CM0KN5JK704390MXNT109882940803201800000000080320180001185408032024000600002018NISSAN         NV200 S        INTEGRITY ELECT SERVICES INC             1002 S BEECH ST                                             CHATTANOOGA              TN37424                                                                ALLY FINANCIAL                NISSAN EXTENDED SERVICES NA, GP                                                 PO BOX 685004                 FRANKLIN       TN37068    2474 MTN. VIEW NISSAN INC.         2100 S. MARKET ST.            CHATTANOOGA    TN37408    C042020224237561500MB000N     05050401399       
00000821N4AL3AP0JC172530RCCD114253890804201800000000080420180004390508042024000750002018NISSAN         Altima 2.5 S   RICHARDSON      TALEASHA                 113-36 208TH ST                                             QUEENS VILLAGE           NY11429                                                                NISSAN MOTOR ACCEPTANCE CORP  NISSAN EXTENDED SERVICES NA, GP                                                 PO BOX 685004                 FRANKLIN       TN37068    5486 ROCKAWAY NISSAN               600 BURNSIDE AVE              INWOOD         NY11096    C042020225162390100RS100N     00000403841       
00000831N4AL3AP6JC296916RCCI114294680810201800000000081020180004303708102023000750002018NISSAN         Altima 2.5 S   DALLAS          MCCALL                   2025 PEACHTREE RD NE APT                                    ATLANTA                  GA30309    Dallasdaranbeats@Yahoo.Com                                  NISSAN MOTOR ACCEPTANCE CORP  NISSAN EXTENDED SERVICES NA, GP                                                 PO BOX 685004                 FRANKLIN       TN37068    5510 NALLEY NISSAN OF ATLANTA      2551 THE NALLEY WAY           ATLANTA        GA30360    C042020227704551122RS100N     00000402468       
00000845N1AT2MT1JC750286RCCI114393050822201800000000082220180005435908222023000750002018NISSAN         Rogue S        HEATHER         GARCIA                   750 N JUDGE ELY APT 113                                     ABILENE                  TX79601                                                                SANTANDER CONSUMER USA        NISSAN EXTENDED SERVICES NA, GP                                                 PO BOX 685004                 FRANKLIN       TN37068    3969 MCGAVOCK NISSAN ABILENE       818 E OVERLAND TRAIL          ABILENE        TX79601    C042020223256952970RS100N     05050403350       
0000085KNMAT2MT8JP504414MYNW110005620827201800000000082720180005505208272026000800102018NISSAN         Rogue S        OCTAVIA         GLASPER                  4740 HWY 51 N # 19-205                                      SOUTHAVEN                MS38671                                                                Nissan Motor Acceptance CorporNISSAN EXTENDED SERVICES NA, GP                                                 PO BOX 685004                 FRANKLIN       TN37068    3776 LANDERS NISSAN, LLC           371 EAST GOODMAN RD           SOUTHAVEN      MS38671    C042020226623495557MC000N     00000401445       
00000865N1AT2MV2JC815888RCCD114429200827201800000000082720180004187408272024000750002018NISSAN         Rogue S        BRANDY          MORGAN-BOYD              2508 PARKVIEW CT APT 301                                    SUFFOLK                  VA23434-426                                                            NMAC                          NISSAN EXTENDED SERVICES NA, GP                                                 PO BOX 685004                 FRANKLIN       TN37068    5692 BANISTER NIS CHESAPEAKE       930 BATTLEFIELD BLVD N        CHESAPEAKE     VA23320    C042020227576443405RS100N     00000403000       
00000871N6AA1F49JN510964RCC7114421020825201800000000082520180003227008252025001200002018NISSAN         Titan XD S     AMY             SHELTON                  228 CAINBRIDGE PARK DR                                      NEWNAN                   GA30263    NONE@NONE.COM                                               NISSAN MOTOR ACCEPTANCE CORP  NISSAN EXTENDED SERVICES NA, GP                                                 PO BOX 685004                 FRANKLIN       TN37068    5432 NISSAN OF NEWNAN              783 BULLSBORO DR.             NEWNAN         GA30265    C042020227702543800RS100N     00000405390       
00000883N1AB7AP5JY344954RCCD114457810830201800000000083020180001764308302024000750002018NISSAN         Sentra S       DORENE          BARKER                   3300 N TENAYA WAY #2084                                     LAS VEGAS                NV89129    BARKER.DORENE@GMAIL.COM                                     NISSAN MOTOR ACCEPTANCE CORP  NISSAN EXTENDED SERVICES NA, GP                                                 PO BOX 685004                 FRANKLIN       TN37068    3912 PLANET NISSAN                 5850 CENTENNIAL CTR BLVD      LAS VEGAS      NV89149    C042020227028768000RS100N     05050403000       
00000893N1AB7AP0JY335756RCCI114332800814201800000000081420180004400308142023000750002018NISSAN         Sentra S       LOUISA          SUATHOJAME               518 FLEMING E AVE                                           VALLEJO                  CA94590    louisa16528@gmail.com                                       NMACR                         NISSAN EXTENDED SERVICES NA, GP                                                 PO BOX 685004                 FRANKLIN       TN37068    5536 VALLEJO NISSAN, INC.          3287 SONOMA BLVD              VALLEJO        CA94590    C042020227076438291RS100N     00000401883       
0000090JN8AY2ND7J9060119RCCB114483400831201800000000083120180003828208312023000600002018NISSAN         Armada SV      LYDIA           GREER                    4015 LONGWAY ESTATES CT                                     FRESNO                   TX77545                                                                NISSAN MOTOR ACCEPTANCE CORP  NISSAN EXTENDED SERVICES NA, GP                                                 PO BOX 685004                 FRANKLIN       TN37068    5401 CENTRAL HOUSTON NISSAN        2901 SOUTH LOOP WEST          HOUSTON        TX77054    C042020227136619955RS100N     05050404000       
00000915N1AT2MV6JC792938RCCB114503760903201800000000090320180004308509032023000600002018NISSAN         Rogue S        JOHN            WILDMAN                  456 E STATE RD                                              FRANKFORT                IN46041                                                                NMAC                          NISSAN EXTENDED SERVICES NA, GP                                                 PO BOX 685004                 FRANKLIN       TN37068    5698 NISSAN OF LAFAYETTE, LLC      1 N CREASY LN                 LAFAYETTE      IN47905    C042020227654477575RS100N     00000401146       
00000923N1AB7AP0HY275519RWND114556940911201800000000091120180006573302282025001000002017NISSAN         Sentra S       DERIONNA        WALKER                   4000 SW 51ST ST                                             GAINESVILLE              FL32608                                                                NISSAN MOTOR ACCEPTANCE       NISSAN EXTENDED SERVICES NA, INC                                                PO BOX 685004                 FRANKLIN       TN37068    3406 GAINESVILLE NISSAN            3915 N MAIN ST                GAINESVILLE    FL32609    C042020223523712023RS000A     02525402075       
0000093KNMAT2MT8GP699973RWND114487680901201800000000090120180006694807022023001000002016NISSAN         Rogue S        GEORGELINA      FERNANDEZ                10520 SW 43 TER                                             MIAMI                    FL33165    GEOFERNANDEZ63@YAHOO.COM                                    NISSAN MOTOR ACCEPTANCE CORPORNISSAN EXTENDED SERVICES NA, INC                                                PO BOX 685004                 FRANKLIN       TN37068    19074BILL SEIDLE'S NISSAN INC.     10500 NW 12TH ST              MIAMI          FL33172    C042020223056338000RS000A     02525402075       
0000094JN1CV6AR7FM650351FEND114543970908201800000000090820180008360904252022009999992015INFINITI       Q40 Base       JUAN            SANTOYO                  300 CREEKSIDE PL                                            LAGRANGE                 KY40031                                                                INFINITI FINANCIAL SERVICES   NISSAN EXTENDED SERVICES NA, GP                                                 PO BOX 685004                 FRANKLIN       TN37068    71217LOUISVILLE INFINITI           8 AUTOCENTER DR               LOUISVILLE     KY40299    C042020225024995070SC000N     00000402361       
00000953N1AB7AP2JY214470RCCD114636320922201800000000092220180007476509222024000750002018NISSAN         Sentra S       JACKIE          AGIN                     1651 FOX ST PO BOX 35                                       FINDLAY                  OH45839                                                                NMAC                          NISSAN EXTENDED SERVICES NA, GP                                                 PO BOX 685004                 FRANKLIN       TN37068    5304 REINEKE NISSAN                1350 N CABLE ROAD             LIMA           OH45805    C042020224192277400RS100N     05050401900       
00000965N1AZ2MG3JN111719RCCI114652200924201800000000092420180004373509242023000750002018NISSAN         Murano S       DOMINICK        MARANO                   28809 WINDOVER ST                                           WESLEY CHAPEL            FL33545                                                                NMAC                          NISSAN EXTENDED SERVICES NA, INC                                                PO BOX 685004                 FRANKLIN       TN37068    5001 WESLEY CHAPEL NISSAN          28519 STATE ROAD 54           WESLEY CHAPEL  FL33544    C042020228137511300RS100A     02525402065       
0000097JN8AE2KP3G9152893MZNS110178500921201800000000092120180008467809212023000938112016NISSAN         Quest 3.5 S    YOLANDA         HERNANDEZ                3722 SADDLEBACK DR                                          LOS ANGELES              CA93550    JASSOCIATESDESIGN@GMAIL.COM                                     NMAC                      NISSAN EXTENDED SERVICES NA, GP                                                 PO BOX 685004                 FRANKLIN       TN37068    5584 NISSAN OF SOUTH BAY           20550 HAWTHORNE BLVD          TORRANCE       CA90503    C042020223105364000MC000N     00000401839       
00000983N1AB7AP1JL658677MXNS110122690915201800000000091520180004222709152023000500002018NISSAN         Sentra S       TANYA           GILBERT                  302 STEVENS CIR BELVADO P                                   SAN CARLOS               AZ85550    tanya.gilbert.0717.1219@gmail.com                                                         NISSAN EXTENDED SERVICES NA, GP                                                 PO BOX 685004                 FRANKLIN       TN37068    3006 AUTONATION NISSAN TEMPE       7755 S AUTOPLEX LOOP          TEMPE          AZ85284    C042020224806302829MB000N     02525401980       
0000099JN8AE2KP3G9152893RWND114632020921201800000000092120180008467801012023001000002016NISSAN         Quest 3.5 S    YOLANDA         HERNANDEZ                3722 SADDLEBACK DR                                          LOS ANGELES              CA93550    JASSOCIATESDESIGN@GMAIL.COM                                 CAPITAL ONE                   NISSAN EXTENDED SERVICES NA, GP                                                 PO BOX 685004                 FRANKLIN       TN37068    5584 NISSAN OF SOUTH BAY           20550 HAWTHORNE BLVD          TORRANCE       CA90503    C042020223105364000RS000N     00000402361       
00001001N6BD0CT3JN759374RCCD114645200922201800000000092220180007301209222024000750002018NISSAN         Frontier S     JOSE            DOMINGO LOPEZ            12726 DAVENTRY ST                                           PACOIMA                  CA91331    JOSEDEVARGAS32@GMAIL.COM                                                                  NISSAN EXTENDED SERVICES NA, GP                                                 PO BOX 685004                 FRANKLIN       TN37068    5674 UNIVERSAL CITY NISSAN         3550 CAHUENGA BLVD W          LOS ANGELES    CA90068    C042020228187698100RS100N     00000402500       
00001013N1AB7AP1JL658677RCCE114587870915201800000000091520180004222709152024001000002018NISSAN         Sentra S       TANYA           GILBERT                  302 STEVENS CIR BELVADO P                                   SAN CARLOS               AZ85550    tanya.gilbert.0717.1219@gmail.com                                                         NISSAN EXTENDED SERVICES NA, GP                                                 PO BOX 685004                 FRANKLIN       TN37068    3006 AUTONATION NISSAN TEMPE       7755 S AUTOPLEX LOOP          TEMPE          AZ85284    C042020224806302829RS100N     02525402187       
00001023N1AB7AP3GY300606RWND114680010927201800000000092720180008161507092023001000002016NISSAN         Sentra S       KINEISHA        NASH                     1527 N 37TH AVE                                             MELROSE PARK             IL60160    KNASH1931@GMAIL.COM                                         EXTER FINANCE LLC             NISSAN EXTENDED SERVICES NA, GP                                                 PO BOX 685004                 FRANKLIN       TN37068    38061AL PIEMONTE NISSAN INC        1600 W. NORTH AVENUE          MELROSE PARK   IL60160    C042020227083433800RS000N     05050402000       
00001033N1CP5CU8JL508311RCCD114795681012201800000000101220180001710110122024000750002018NISSAN         Kicks S        PENNY           JOHNSTON                 3643 E 67TH ST                                              TULSA                    OK74136                                                                NMAC                          NISSAN EXTENDED SERVICES NA, GP                                                 PO BOX 685004                 FRANKLIN       TN37068    3007 JACKIE COOPER NISSAN          9898 S MEMORIAL DR            TULSA          OK74133    C042020229182499393RS100N     05050401703       
00001043N1CP5CU8JL508311MZNS110275451012201800000000101220180001710110122023000500402018NISSAN         Kicks S        PENNY           JOHNSTON                 3643 E 67TH ST                                              TULSA                    OK74136                                                                NMAC                          NISSAN EXTENDED SERVICES NA, GP                                                 PO BOX 685004                 FRANKLIN       TN37068    3007 JACKIE COOPER NISSAN          9898 S MEMORIAL DR            TULSA          OK74133    C042020229182499393MC000N     05050400469       
0000105JN1CV6AR3FM524620FEND114755301006201800000000100620180007325705222022009999992015INFINITI       Q40 Base       MELISSA         ODOM                     188 CRITTENDEN WAY                                          ROCHESTER                NY14623    odom.melissa06@gmail.com                                    IFS                           NISSAN EXTENDED SERVICES NA, GP                                                 PO BOX 685004                 FRANKLIN       TN37068    70012KINGS INFINITI, INC.          20 NEPTUNE AVE                BROOKLYN       NY11235    C042020227186463331SC000N     00000402765       
00001063N1AB7AP6HL670754RWND114783711010201800000000101020180006262503272024001000002017NISSAN         Sentra S       BRANDON         DALTON                   45 HEATHER VALLEY CIRCLE                                    ST PETERS                MO63376    brandonsblues@yahoo.com                                     NMAC                          NISSAN EXTENDED SERVICES NA, INC                                                PO BOX 685004                 FRANKLIN       TN37068    1768 ST. CHARLES NISSAN INC        5625 VETERANS MEMORIAL PK     SAINT PETERS   MO63376    C042020226364414481RS000N     05050401792       
00001073N1AB7AP7JL652575MZNU110227641001201800000000100120180004251210012025000700122018NISSAN         Sentra S       ROY             KAUFMAN                  18 WINTERBRANCH                                             IRVINE                   CA92604    royk.oc@gmail.com                                           NMAC                          NISSAN EXTENDED SERVICES NA, GP                                                 PO BOX 685004                 FRANKLIN       TN37068    5707 NISSAN OF TUSTIN              30 AUTO CENTER DRIVE          TUSTIN         CA92782    C042020227146698282MC000N     00000400789       
00001085N1DR2MN8KC583004RCCB114882881025201800000000102520180002655610252023000600002019NISSAN         Pathfinder S   CRISTINA        GARCIA                   5601 PAMONA ST                                              CORPUS CHRISTI           TX78417                                                                                              NISSAN EXTENDED SERVICES NA, GP                                                 PO BOX 685004                 FRANKLIN       TN37068    977  ED HICKS NISSAN, LTD.         3000 S PADRE ISLAND DR        CORPUS CHRISTI TX78415    C042020223616541955RS100N     05050401321       
00001095N1AT2MT0JC822868RCCE114885811025201800000000102520180007912310252024001000002018NISSAN         Rogue S        CYNTHIA         HUGHES                   3190 LIPTON CT                                              LAS VEGAS                NV89121                                                                                              NISSAN EXTENDED SERVICES NA, GP                                                 PO BOX 685004                 FRANKLIN       TN37068    5179 HENDERSON NISSAN              295 AUTO MALL DR              HENDERSON      NV89014    C042020227025585800RS100N     05050403616       
00001101N4AL3APXGC272109RWND114939951101201800000000110120180007909708012023001000002016NISSAN         Altima 2.5     MARTA           SALLIE                   8710 EVANGERLINE DR                                         CHARLESTON               SC29420    me2@gmail.com                                               CAPITAL ONE AUTO FINANCE      NISSAN EXTENDED SERVICES NA, GP                                                 PO BOX 685004                 FRANKLIN       TN37068    5145 HUDSON NIS/ N CHARLESTON      7331 RIVERS AVE               NORTH CHARLESTOSC29406    C042020228435531000RS000N     05050401980       
00001113N1AB7AP7JL628406RCCB114973521107201800000000110720180004534611072023000600002018NISSAN         Sentra S       HARRY           HARADA                   87 HIGHT ST APT C                                           SANFORD                  ME04073                                                                                              NISSAN EXTENDED SERVICES NA, GP                                                 PO BOX 685004                 FRANKLIN       TN37068    3252 MARC MOTORS, INC.             1744 MAIN ST                  SANFORD        ME04073    C042020222073243454RS100N     05050402000       
0000112KNMAT2MTXJP590518RCCD114976311107201800000000110720180004942111072024000750002018NISSAN         Rogue S        LEROY           WOOLERYYOLE              602 DR J A WILTSHIRE AVE                                    LAKE WALES               FL33853                                                                NISSAN MOTOR ACCEPTANCE CORP. NISSAN EXTENDED SERVICES NA, INC                                                PO BOX 685004                 FRANKLIN       TN37068    5484 MAUS NISSAN                   3939 US HIGHWAY 19            NEW PORT RICHEYFL34652    C042020227278153095RS100A     02525401935       
00001131N6AA1EJ8HN564306RCCE114984041101201800000000110120180005575909132023001000002017NISSAN         Titan S        SAYE            ONEAL                    583 FIELDGREEN DR                                           JONESBORO                GA30238-485Sdoneal77@Gmail.Com                                         NISSAN MOTOR ACCEPTANCE CORP  NISSAN EXTENDED SERVICES NA, GP                                                 PO BOX 685004                 FRANKLIN       TN37068    5510 NALLEY NISSAN OF ATLANTA      2551 THE NALLEY WAY           ATLANTA        GA30360    C042020227704551122RS100N     00000401500       
0000114JN8CS1MU8HM141143FEND115035581117201800000000111720180009999901012024009999992017INFINITI       QX70 Base      JORGE           ALMODOVAR VELAZ          3032 SW 153RD PATH                                          MIAMI                    FL33185    JORGEALM@GMAIL.COM                                          INFINITI FINANCIAL SERVICES   NISSAN EXTENDED SERVICES NA, INC                                                PO BOX 685004                 FRANKLIN       TN37068    70052WARREN HENRY INFINITI         2300 NE 151ST STREET          NORTH MIAMI    FL33181    C042020223056906006SC000A     02525402189       
00001151N4AL3AP8GN341383RWND115034041116201800000000111620180008703901012023001000002016NISSAN         Altima 2.5     ERIK            ROMERO REYES             53 CAROL LANE # 331                                         OAKLEY                   CA94561    ERIK.ROMERO76@GMAIL.COM                                     NMAC                          NISSAN EXTENDED SERVICES NA, GP                                                 PO BOX 685004                 FRANKLIN       TN37068    5242 PREMIER NISSAN OF FREMONT     5701 CUSHING PARKWAY          FREMONT        CA94538    C042020225106688700RS000N     00000403495       
00001161N4BL4DV4KC111414RCCD115030421116201800000000111620180003228111162024000750002019NISSAN         Altima 2.5 SV  WESLEY          GILLIAM                  3823 AUGUSTINE CIRCLE                                       PORTSMOUTH               VA23703                                                                NMAC                          NISSAN EXTENDED SERVICES NA, GP                                                 PO BOX 685004                 FRANKLIN       TN37068    5692 BANISTER NIS CHESAPEAKE       930 BATTLEFIELD BLVD N        CHESAPEAKE     VA23320    C042020227576443405RS100N     00000401800       
00001173N1AB7AP3KY218951RCCD114938131101201800000000110120180003734611012024000750002019NISSAN         Sentra S       JUANA           VALDEZ                   5629 SAINT CHARLES                                          BERKELEY                 IL60163                                                                Nissan Motor Acceptance CorporNISSAN EXTENDED SERVICES NA, GP                                                 PO BOX 685004                 FRANKLIN       TN37068    38061AL PIEMONTE NISSAN INC        1600 W. NORTH AVENUE          MELROSE PARK   IL60160    C042020227083433800RS100N     05050402500       
0000118JN1BJ1CP3JW187434RCCB115099771123201800000000112320180003895311232023000600002018NISSAN         Rogue Spt/QashqJACQUELINE      LIPSCOMB                 5804 Moores Run Ct                                          BALTIMORE                MD21206    jalipscomb@att.net                                              NMAC                      NISSAN EXTENDED SERVICES NA, GP                                                 PO BOX 685004                 FRANKLIN       TN37068    11027NATIONWIDE NISSAN             2085 YORK RD                  TIMONIUM       MD21093    C042020224102528000RS100N     05050403060       
0000119KNMAT2MV2GP605670RWND115087131123201800000000112320180006583702122023001000002016NISSAN         Rogue S        JOSE            VALERIO                  4842 W BARRY ST                                             CHICAGO                  IL60641    NONE@NONE.COM                                                                             NISSAN EXTENDED SERVICES NA, GP                                                 PO BOX 685004                 FRANKLIN       TN37068    38061AL PIEMONTE NISSAN INC        1600 W. NORTH AVENUE          MELROSE PARK   IL60160    C042020227083433800RS000N     05050402850       
00001203N1CP5CU8JL544287RBCD115132701130201800000000113020180004100811302024000750002018NISSAN         Kicks S        MARTWAIN        HOLMES                   14418 SAGINAW                                               BURNHAM                  IL60633                                                                    NMAC                      NISSAN EXTENDED SERVICES NA, GP                                                 PO BOX 685004                 FRANKLIN       TN37068    2993 NISSAN OF SOUTH HOLLAND       16269 VAN DAM RD              SOUTH HOLLAND  IL60473    C042020227083332000RS100N     05050401800       
00001215N1AT2MT7JC849579RCCC115115071128201800000000112820180003526511282023001000002018NISSAN         Rogue S        SONDI           ENNIS                    po box 141                                                  COALGATE                 OK74538                                                                NMACK                         NISSAN EXTENDED SERVICES NA, GP                                                 PO BOX 685004                 FRANKLIN       TN37068    3588 ADA NISSAN, INC.              420 LONNIE ABBOTT BLVD        ADA            OK74820    C042020225803322233RS100N     05050401292       
0000122KNMAT2MT0JP565126RCND115153501201201800000000120120180005298711302024000750002018NISSAN         Rogue S        CARMEN          SOBALVARRO               18750 RUNNYMEDE ST                                          RESEDA                   CA91335                                                                NMAC/IFS                      NISSAN EXTENDED SERVICES NA, GP                                                 PO BOX 685004                 FRANKLIN       TN37068    5248 NISSAN OF MISSION HILLS       11000 SEPULVEDA BLVD          MISSION HILLS  CA91345    C042020228188384444RS000N     00000402900       
00001233N1CP5CU7JL525617RCCI115262851208201800000000120820180003762912082023000750002018NISSAN         Kicks S        CARLOS          TREJO                    601 EAST 7TH STREET # 7                                     HOUSTON                  TX77007    ADRIANATREJO713@HOTMAIL.COM                                 WELLS FARGO                   NISSAN EXTENDED SERVICES NA, GP                                                 PO BOX 685004                 FRANKLIN       TN37068    5453 NISSAN OF BOERNE              31805 INTERSTATE HWY 10 W     BOERNE         TX78006    C042020228303684600RS100N     05050401549       
00001243N1AB7AP3KY258673RCCA115237721216201800000000121620180003649212162022000600002019NISSAN         Sentra S       JOY             AUSTIN                   307 MELMARK CT.                                             RICHMOND                 VA23225                                                                NISSAN MOTOR ACCEPTANCE CORP  NISSAN EXTENDED SERVICES NA, GP                                                 PO BOX 685004                 FRANKLIN       TN37068    5413 NISSAN OF RICHMOND            11401 WEST BROAD STREET       RICHMOND       VA23233    C042020228043464200RS100N     00000401200       
0000125JN8AT2MT1KW250945RCCB115280591222201800000000122220180004030312222023000600002019NISSAN         Rogue S        BRIAN           FUGLER                   11100 LOUETTA RD #726                                       HOUSTON                  TX77070    BFUGLER80@GMAIL.COM                                         NISSAN MOTOR ACCEPTANCE CORP  NISSAN EXTENDED SERVICES NA, GP                                                 PO BOX 685004                 FRANKLIN       TN37068    5345 FRED HAAS NISSAN              24202 TOMBALL PKWY  SH249     TOMBALL        TX77375    C042020222815166700RS100N     05050401600       
00001265N1AT2MT1JC819011RCCC115275861222201800000000122220180005275212222023001000002018NISSAN         Rogue S        BARBARA MAYNE   HOGUE                    3201 OAKLAND AV                                             ANNISTON                 AL36201                                                                NISSAN MOTOR ACCP CORP        NISSAN EXTENDED SERVICES NA, GP                                                 PO BOX 685004                 FRANKLIN       TN37068    5069 BENTON NISSAN                 1834 US HIGHWAY 78 E          OXFORD         AL36203    C042020222568318882RS100N     00000403400       
00001275N1AT2MT1JC819011MZNT110672941222201800000000122220180005275212222024000603102018NISSAN         Rogue S        BARBARA MAYNE   HOGUE                    3201 OAKLAND AV                                             ANNISTON                 AL36201                                                                NISSAN MOTOR ACCP CORP        NISSAN EXTENDED SERVICES NA, GP                                                 PO BOX 685004                 FRANKLIN       TN37068    5069 BENTON NISSAN                 1834 US HIGHWAY 78 E          OXFORD         AL36203    C042020222568318882MC000N     00000400800       
00001281N4BL4BVXKC101313RCCE115344931231201800000000123120180003854512312024001000002019NISSAN         Altima 2.5 S   LINDA           CARNLEY                  1304 HARNER STREET                                          TEXARKANA                AR71854                                                                    NMAC                      NISSAN EXTENDED SERVICES NA, GP                                                 PO BOX 685004                 FRANKLIN       TN37068    826B SMITH-MANKINS NISSAN          3707 SUMMERHILL RD            TEXARKANA      TX75503    C042020229037935661RS100N     05050402257       
00001293N1AB7AP6FL691262RWND115262411220201800000000122020180004207112172022001000002015NISSAN         Sentra S       ROSEMARY        COUILLOU                 78 YOUNG AVE                                                CEDAR GROVE              NJ07009    RCOUILLOU@GMAIL.COM                                         NMAC                          NISSAN EXTENDED SERVICES NA, GP                                                 PO BOX 685004                 FRANKLIN       TN37068    5564 NORTH PLAINFIELD NISSAN       545 ROUTE 22 W                NORTH PLAINFIELNJ07060    C042020229087556400RS000N     05050402500       
0000130JN8AT2MT0JW490809MZNT110564841201201800000000120120180003930612012024000600062018NISSAN         Rogue S        MARLAINA        CROFT                    1140 NOBLE AVE                                              SANGER                   TX76266                                                                                              NISSAN EXTENDED SERVICES NA, GP                                                 PO BOX 685004                 FRANKLIN       TN37068    3437 AUTONATION NISSAN LEWISVL     1601 S STEMMONS FWY           LEWISVILLE     TX75067    C042020229727635527MC000N     05050400600       
00001315N1AT2MT3JC821178RCCD115445120117201900000000011720190004047601172025000750002018NISSAN         Rogue S        DONNA           ZAPELINE                 1725 HARRIS BRIDGE RD                                       ANDERSON                 SC29621-363                                                            NMAC                          NISSAN EXTENDED SERVICES NA, GP                                                 PO BOX 685004                 FRANKLIN       TN37068    5552 GRAINGER NIS OF ANDERSON      3510 CLEMSON BLVD             ANDERSON       SC29621    C042020228643281188RS100N     05050402500       
00001325N1AT2MT3JC821178MZNT110812890117201900000000011720190004047601172025000600332018NISSAN         Rogue S        DONNA           ZAPELINE                 1725 HARRIS BRIDGE RD                                       ANDERSON                 SC29621-363                                                            NMAC                          NISSAN EXTENDED SERVICES NA, GP                                                 PO BOX 685004                 FRANKLIN       TN37068    5552 GRAINGER NIS OF ANDERSON      3510 CLEMSON BLVD             ANDERSON       SC29621    C042020228643281188MC000N     05050401250       
00001331N4AL3AP6JC283938RCCB115473900121201900000000012120190003411107252023000600002018NISSAN         Altima 2.5 S   CODY            DEROCHE                  1312 W CYPRESS AVE                                          ORANGE                   TX77630    CODY1985AARON@GMAIL.COM                                     SANTANDER CONSUMER USA INC    NISSAN EXTENDED SERVICES NA, GP                                                 PO BOX 685004                 FRANKLIN       TN37068    3924 TWIN CITY NISSAN              10549 HWY 69                  PORT ARTHUR    TX77640    C042020224097272779RS100N     05050402180       
00001343N1AB7AP1KY260048RCCV115454270118201900000000011820190003597801182023000480002019NISSAN         Sentra S       KELLY JANE      CANNON                   17 NEWNAN ESTATES DR                                        NEWNAN                   GA30263                                                                NISSAN MOTOR ACCEPTANCE CORP  NISSAN EXTENDED SERVICES NA, GP                                                 PO BOX 685004                 FRANKLIN       TN37068    5741 NISSAN OF NEWNAN              811 THORNTON RD               LITHIA SPRINGS GA30122    C042020227702543800RS100N     00000403500       
0000135JN1BJ1CP4KW216926RCCD115466680120201900000000012020190007381001202025000750002019NISSAN         Rogue Sport S  ANDREA          VARGAS                   109 E BUCKTHORN ST APT 5                                    INGLEWOOD                CA90301                                                                NISSAN MOTOR ACCEPTANCE CORP  NISSAN EXTENDED SERVICES NA, GP                                                 PO BOX 685004                 FRANKLIN       TN37068    5667 CARSON NISSAN                 1505 E 223RD STREET           CARSON         CA90746    C042020223102215119RS100N     00000403500       
0000136JN1BV7AR5FM399640FENR115497310125201900000000012520190010122606252023009999992015INFINITI       Q50 Base       PAULETTE        FULLER                   3911 N 5TH ST #1                                            ARLINGTON                VA22203    PAULETTEFULLER@HOTMAIL.COM                                  IFS                           NISSAN EXTENDED SERVICES NA, GP                                                 PO BOX 685004                 FRANKLIN       TN37068    71248PASSPORT INFINITI/ALEXAND     160 S PICKETT ST              ALEXANDRIA     VA22304    C042020227034611500SC000N     00000403495       
00001371N4BL4DV8KC138695RCCD115505830126201900000000012620190001945901262025000750002019NISSAN         Altima 2.5 SV  DONALD          BANNASCH                 609 LAKE LARCH LANE                                         LAKELAND                 FL33805                                                                                              NISSAN EXTENDED SERVICES NA, INC                                                PO BOX 685004                 FRANKLIN       TN37068    3931 JENKINS NISSAN, INC.          4401 STATE ROAD 33 N          LAKELAND       FL33805    C042020228636862800RS100A     02525401935       
0000138KNMAT2MT2KP509433RCCE115600580209201900000000020920190003700902092025001000002019NISSAN         Rogue S        PAMELA          DAVIS                    505 BROWN SCHOOL ROAD                                       MARYVILLE                TN37804                                                                NISSAN MOTOR ACCEPTANCE CORP  NISSAN EXTENDED SERVICES NA, INC                                                PO BOX 685004                 FRANKLIN       TN37068    5484 MAUS NISSAN                   3939 US HIGHWAY 19            NEW PORT RICHEYFL34652    C042020227278153095RS100A     02525402065       
00001395N1DR2MNXHC691634RWND115664950218201900000000021820190009671310122024001000002017NISSAN         Pathfinder S   ANIL            SHAH                     5913 BRANCH DR                                              ORLANDO                  FL32822    ASHAH2022@GMAIL.COM                                         NMAC                          NISSAN EXTENDED SERVICES NA, INC                                                PO BOX 685004                 FRANKLIN       TN37068    19029REED NISSAN                   3776 W COLONIAL DR            ORLANDO        FL32808    C042020224072977333RS000A     02525402355       
00001401N4BL4CW2KN317068RCCC115678970221201900000000022120190003346902212024001000002019NISSAN         Altima 2.5 SR  RUFUS           ROYAL                    53 WINTHROP STREET APT 1                                    MARLBOROUGH              MA01752                                                                    NMAC                      NISSAN EXTENDED SERVICES NA, GP                                                 PO BOX 685004                 FRANKLIN       TN37068    5633 BOCH NISSAN                   525 BOSTON PROVIDENCE HWY     NORWOOD        MA02062    C042020225088097190RS100N     05050403350       
0000141JN1BJ1CR8KW622810RCCK115698430223201900000000022320190003310902232022000400002019NISSAN         Rogue Sport S  MEGAN           THOMPSON                 138 RIDGEFIELD DR                                           MIDDLETOWN               CT06457                                                                NISSAN INFINITI LT            NISSAN EXTENDED SERVICES NA, GP                                                 PO BOX 685004                 FRANKLIN       TN37068    5492 MIDDLETOWN NISSAN             1153 NEWFIELD ST              MIDDLETOWN     CT06457    C042020228606326550RS100N     05050400699       
00001421N6DD0ER2KN700814MZNS110984890207201900000000020720190002997502072024000500052019NISSAN         Frontier S     JAMES EARL      WILLIAMS JR              599 HICKMAN ST                                              MYRTLE BEACH             SC29575                                                                                              NISSAN EXTENDED SERVICES NA, GP                                                 PO BOX 685004                 FRANKLIN       TN37068    3248 GRAND STRAND NISSAN, INC.     4701 HIGHWAY 501              MYRTLE BEACH   SC29579    C042020228432362191MC000N     05050401600       
00001433N1AB7AP6KY260921MZNC111022100222201900000000022220190002426002222022000300062019NISSAN         Sentra S       ROSELY          RODRIGUEZ SANTO          3002 HARTLEY AVENUE                                         EASTON                   PA18045                                                                                              NISSAN EXTENDED SERVICES NA, GP                                                 PO BOX 685004                 FRANKLIN       TN37068    5138 KELLY NISSAN                  3830 EASTON NAZARETH HWY      EASTON         PA18045    C042020226102588600MC000N     00000400499       
00001441N4BL4DV5KC141330RCNC115663830218201900000000021820190006494602182024001000002019NISSAN         Altima 2.5 SV  JACQUELYN       SCOTT                    524 MEADOWFIELD CT                                          LAWRENCEVILLE            GA30043                                                                NISSAN MOTOR ACCEPTANCE CORPORNISSAN EXTENDED SERVICES NA, GP                                                 PO BOX 685004                 FRANKLIN       TN37068    3808 SUTHERLIN NISSAN MALL/GA      1855 LUKE KING PKWY           BUFORD         GA30519    C042020226787141885RS000N     00000403300       
0000145KNMAT2MV3JP619116RCCD115723870226201900000000022620190002665212262024000750002018NISSAN         Rogue S        MICHAEL         PLATT                    8801 NIPSIC LN                                              NORFOLK                  VA23503                                                                NMAC                          NISSAN EXTENDED SERVICES NA, GP                                                 PO BOX 685004                 FRANKLIN       TN37068    5691 BANISTER NISSAN NORFOLK       1250 N. MILITARY HWY          NORFOLK        VA23502    C042020227576005990RS100N     00000402400       
00001463N1AB7AP3KY251853RCNR115749410301201900000000030120190004386306012025000750002019NISSAN         Sentra S       PAUL            DUPUIS                   3803 KATY LN                                                BELLMEAD                 TX76705-345                                                            SANTANDER CONSUMER USA        NISSAN EXTENDED SERVICES NA, GP                                                 PO BOX 685004                 FRANKLIN       TN37068    5579 DOUGLASS NISSAN OF WACO       5605 LEGENDLAKE PARKWAY       WACO           TX76712    C042020222547768016RS000N     05050401795       
00001471N4BL4BV7KC169133RCCB115795300307201900000000030720190003597703072024000600002019NISSAN         Altima 2.5 S   APRIL           KNIGHT                   4409 CHANTELLE RD                                           ORLANDO                  FL32808    APRILTENNILE@YAHOO.COM                                      NMAC                          NISSAN EXTENDED SERVICES NA, INC                                                PO BOX 685004                 FRANKLIN       TN37068    19029REED NISSAN                   3776 W COLONIAL DR            ORLANDO        FL32808    C042020224072977333RS100A     02525401315       
0000148JN1BV7AR4FM415018FENR115812400309201900000000030920190009573212312023009999992015INFINITI       Q50 Base       JORDAN          MANNING                  203 BUNKER HILL DR                                          BOLINGBROOK              IL60440    JMANNING1219@GMAIL.COM                                      INFINITI FINANCIAL SERVICES   NISSAN EXTENDED SERVICES NA, GP                                                 PO BOX 685004                 FRANKLIN       TN37068    70536INFINITI/CLARENDON HILLS      415 E OGDEN AVE               CLARENDON HILLSIL60514    C042020226304689000SC000N     05050402895       
00001491N4BL3AP5HC126108RWND115770290303201900000000030320190006993301012024001000002017NISSAN         Altima 3.5 SR  AMBER           MALLORY                  173 ALDER DR                                                PORT TOWNSEND            WA98368    ambermallory72@yahoo.com                                    NISSAN MOTOR ACCEPTANCE CORP  NISSAN EXTENDED SERVICES NA, GP                                                 PO BOX 685004                 FRANKLIN       TN37068    2104 ADVANTAGE NISSAN              5101 AUTO CENTER BLVD         BREMERTON      WA98312    C042020223603736300RS000N     02525402779       
00001503N1CN7AP3KL822058RCCV115845910314201900000000031420190004744303142023000480002019NISSAN         Versa S        DAYNA           JACOBS                   1631 VIVIAN ST                                              GREENVILLE               NC27858                                                                NISSAN MOTOR ACCEPTANCE CORP  NISSAN EXTENDED SERVICES NA, GP                                                 PO BOX 685004                 FRANKLIN       TN37068    3814 GREENVILLE NISSAN             991 GREENVILLE BLVD SW        GREENVILLE     NC27834    C042020222527561738RS100N     05050401457       
00001511N6AD0ER9JN717868RWND115774060304201900000000030420190004414901012025001000002018NISSAN         Frontier S     RONALD          HITCHCOCK                8197 N PAINTED FEATHER DR                                   TUCSON                   AZ85743                                                                                              NISSAN EXTENDED SERVICES NA, GP                                                 PO BOX 685004                 FRANKLIN       TN37068    225  THOROUGHBRED NISSAN           5163 E 22ND ST                TUCSON         AZ85711    C042020225206186500RS000N     02525401759       
00001521N4BL4EV3KC101486MYNM111048780301201900000000030120190001489203012022000360052019NISSAN         Altima 2.5 SL  ROGER           BROWN                    2651 E 47TH ST                                              CHICAGO                  IL60649                                                                NISSAN-INFINITI LT            NISSAN EXTENDED SERVICES NA, GP                                                 PO BOX 685004                 FRANKLIN       TN37068    2993 NISSAN OF SOUTH HOLLAND       16269 VAN DAM RD              SOUTH HOLLAND  IL60473    C042020227083332000MC000N     05050400330       
00001533N1AB7AP3KY300209RCCD115832740312201900000000031220190006111103122025000750002019NISSAN         Sentra S       MARIA           BULLONES                 35 W 61ST ST                                                HIALEAH                  FL33012                                                                NISSAN MOTOR ACCEPTANCE CORPORNISSAN EXTENDED SERVICES NA, INC                                                PO BOX 685004                 FRANKLIN       TN37068    19074BILL SEIDLE'S NISSAN INC.     10500 NW 12TH ST              MIAMI          FL33172    C042020223056338000RS100A     02525401935       
00001541N4BL4BV7KC169133MYNS111080100307201900000000030720190003597703072024000500102019NISSAN         Altima 2.5 S   APRIL           KNIGHT                   4409 CHANTELLE RD                                           ORLANDO                  FL32808    APRILTENNILE@YAHOO.COM                                      NMAC                          NISSAN EXTENDED SERVICES NA, INC                                                PO BOX 685004                 FRANKLIN       TN37068    19029REED NISSAN                   3776 W COLONIAL DR            ORLANDO        FL32808    C042020224072977333MC000A     02525401199       
00001551N4AA6AP0GC402907RWND115954130324201900000000032420190009180002132023001000002016NISSAN         Maxima 3.5 S   NATHANIEL       AMBAYE                   5026 9TH ST                                                 ARLINGTON                VA22204    NATE_AM@YAHOO.COM                                           NMAC                          NISSAN EXTENDED SERVICES NA, GP                                                 PO BOX 685004                 FRANKLIN       TN37068    3497 PASSPORT NIS/ALEXANDRIA       150 S PICKETT ST              ALEXANDRIA     VA22304    C042020227038239000RS000N     00000401950       
00001561N4AA6AV1KC374574RCCD115928360322201900000000032220190005141903222025000750002019NISSAN         Maxima 3.5 S   ERIC            ALDERETE                 4306 N QUINLAN PARK RD #                                    AUSTIN                   TX78732    EALDERETE2013@GMAIL.COM                                     NISSAN MOTOR ACCEPTANCE CORP  NISSAN EXTENDED SERVICES NA, GP                                                 PO BOX 685004                 FRANKLIN       TN37068    5701 SOUTH AUSTIN NISSAN           4914 S I H 35                 AUSTIN         TX78745    C042020225124441400RS100N     05050402900       
0000157KNMAT2MVXHP551049RWND115936720323201900000000032320190009742201012024001000002017NISSAN         Rogue S        JESSICA         SKUBY                    6 CEDAR MEADOW                                              MOODUS                   CT06469                                                                NISSAN MOTOR ACCEPTANCE CORP  NISSAN EXTENDED SERVICES NA, GP                                                 PO BOX 685004                 FRANKLIN       TN37068    5492 MIDDLETOWN NISSAN             1153 NEWFIELD ST              MIDDLETOWN     CT06457    C042020228606326550RS000N     05050401900       
0000158JN8AT2MT9JW465116RCCI116000910331201900000000033120190003599603312024000750002018NISSAN         Rogue S        JOSE            MUNOZ                    111 ILEX DR                                                 CANTON                   GA30114    JIMABE@MSN.COM                                              NISSAN MOTOR ACCEPTANCE CORPORNISSAN EXTENDED SERVICES NA, GP                                                 PO BOX 685004                 FRANKLIN       TN37068    5644 SUTHERLIN NIS CHEROKEE        101 HARBOR CREEK PKWY         HOLLY SPRINGS  GA30115    C042020226787309900RS100N     00000401999       
00001591N4BL4EV0KC125602MZNU111234930331201900000000033120190003622203312026000700092019NISSAN         Altima 2.5 SL  ELIZABETH       LALAMA                   8456 GRAND MESSINA CI                                       BOYNTON BEACH            FL33472                                                                GTE FEDERAL CREDIT UNION      NISSAN EXTENDED SERVICES NA, INC                                                PO BOX 685004                 FRANKLIN       TN37068    5532 I-95 NISSAN                   3870 W BLUE HERON BLVD        RIVIERA BEACH  FL33404    C042020225618480688MC000A     02525401195       
0000160JN8AT2MT9JW465116MZNS111234470331201900000000033120190003599603312024000500762018NISSAN         Rogue S        JOSE            MUNOZ                    111 ILEX DR                                                 CANTON                   GA30114    JIMABE@MSN.COM                                              NISSAN MOTOR ACCEPTANCE CORPORNISSAN EXTENDED SERVICES NA, GP                                                 PO BOX 685004                 FRANKLIN       TN37068    5644 SUTHERLIN NIS CHEROKEE        101 HARBOR CREEK PKWY         HOLLY SPRINGS  GA30115    C042020226787309900MC000N     00000400999       
00001611N4BL4CV0KC169926RCCH115773450227201900000000022720190005892102272022000600002019NISSAN         Altima 2.5 SR  CANDACE         SWANSON                  3940 BELL RD # 1512                                         HERMITAGE                TN37076    candanceswanson79@gmail.com                                 NISSAN MOTOR ACCEPTANCE CORP. NISSAN EXTENDED SERVICES NA, GP                                                 PO BOX 685004                 FRANKLIN       TN37068    5212 NEWTON NISSAN OF GALLATIN     1461 NASHVILLE PIKE           GALLATIN       TN37066    C042020226154516827RS100N     05050403600       
