002224223US                            1487962                       2136542                       002224223 002224223Trinity Property Cons LLC                                   2082 Michelson Dr Ste 400Irvine              CA926121214                                                        C03800000095083887034   060595945             Michael       Earl              Mr        Managing Member               Z1X10000000376701982000000140000000004001998101002224223002224223000000000Irvine              CA                  010254432989 201216M                  2Rl Este Agnts Mgrs 65310200                                                                                                                Devin         Sack-Stearns      Mr        Consultant                    Z9HARonald        Anderson          Mr        Supervisor                    Z938                                                                                                                                                        
075661694US                            1487963                       2136483                       075661694 075661694City of Springdale            City Hall                     201 Spring St            Springdale          AR727644554                                                        C00201000079527922189   051432580   4797508114Doug          Sprouse           Mr        Mayor                         K9650000000000000002000000600000000017501878101075661694075661694000000000Springdale          AR                  010221978567 210827M                  0Legislative Bodies 912102020404                                                                                                            Janice        Dellarosa         Ms        Clerk                         Z939                                                                                                                                                                                                                                    
118526154US                            1487964                       521160                        118526154                                                                                                                                                                                                                                                                                                                                                                                                                                                                                                                                                                                                                                                                                                                                                                                                                                                                                                                                
201938664US                            1487965                       2136469                       201938664                                                                                                                                                                                                                                                                                                                                                                                                                                                                                                                                                                                                                                                                                                                                                                                                                                                                                                                                
211544846US                            1487966                       285312                        211544846                                                                                                                                                                                                                                                                                                                                                                                                                                                                                                                                                                                                                                                                                                                                                                                                                                                                                                                                
223969065US                            1487967                       2136481                       223969065                                                                                                                                                                                                                                                                                                                                                                                                                                                                                                                                                                                                                                                                                                                                                                                                                                                                                                                                
252741509US                            1487968                       93374                         252741509                                                                                                                                                                                                                                                                                                                                                                                                                                                                                                                                                                                                                                                                                                                                                                                                                                                                                                                                
261976575US                            1487969                       1823827                       261976575                                                                                                                                                                                                                                                                                                                                                                                                                                                                                                                                                                                                                                                                                                                                                                                                                                                                                                                                
316089341US                            1487970                       328708                        316089341                                                                                                                                                                                                                                                                                                                                                                                                                                                                                                                                                                                                                                                                                                                                                                                                                                                                                                                                
344290213US                            1487971                       328708                        344290213                                                                                                                                                                                                                                                                                                                                                                                                                                                                                                                                                                                                                                                                                                                                                                                                                                                                                                                                
406725085US                            1487972                       370913                        406725085                                                                                                                                                                                                                                                                                                                                                                                                                                                                                                                                                                                                                                                                                                                                                                                                                                                                                                                                
595432564US                            1487973                       370913                        595432564                                                                                                                                                                                                                                                                                                                                                                                                                                                                                                                                                                                                                                                                                                                                                                                                                                                                                                                                
690542212US                            1487974                       33149                         690542212                                                                                                                                                                                                                                                                                                                                                                                                                                                                                                                                                                                                                                                                                                                                                                                                                                                                                                                                
690543699US                            1487975                       6271                          690543699                                                                                                                                                                                                                                                                                                                                                                                                                                                                                                                                                                                                                                                                                                                                                                                                                                                                                                                                
690583174US                            1487976                       374438                        690583174                                                                                                                                                                                                                                                                                                                                                                                                                                                                                                                                                                                                                                                                                                                                                                                                                                                                                                                                
691221493US                            1487977                       285312                        691221493                                                                                                                                                                                                                                                                                                                                                                                                                                                                                                                                                                                                                                                                                                                                                                                                                                                                                                                                
691425805US                            1487978                       1868995                       691425805                                                                                                                                                                                                                                                                                                                                                                                                                                                                                                                                                                                                                                                                                                                                                                                                                                                                                                                                
691643183US                            1487979                       794189                        691643183                                                                                                                                                                                                                                                                                                                                                                                                                                                                                                                                                                                                                                                                                                                                                                                                                                                                                                                                
756875196US                            1487980                       769419                        756875196                                                                                                                                                                                                                                                                                                                                                                                                                                                                                                                                                                                                                                                                                                                                                                                                                                                                                                                                
816614732US                            1487981                       769419                        816614732                                                                                                                                                                                                                                                                                                                                                                                                                                                                                                                                                                                                                                                                                                                                                                                                                                                                                                                                
