7904702                       178020234                     126625554                     Contact                                                     Sael Humajid                                                23345 243rd Street                                     Jamaica                       NY11425             US                                                000001396             0023345       243RD                       ST                JAMAICA                     NY114250001457C0020001AAB 1    23345 243RD ST                                                       CN000000000ZZZZZZZZZZZ00    98989898989898989898981            N                                                                                                                                                                                                                                                                                                                                                                                                                                                                                                                                                                                                                                                                                                                                                                                                                                                                                                                               
7904740                       157823797                     114801879                     Contact                                                     MARK KILLINGWORTH                                           1301 SADDEL                                            Prosper                       TX75078             US                            2142158891          000001434             001301        SADDEL                                        PROSPER                     TX75078                   9    1301 SADDEL                                                          CN000000000ZZZZZZZZZZZ00    98989898989898989898989            N                                                                                                                                                                                                                                                                                                                                                                                                                                                                                                                                                                                                                                                                                                                                                                                                                                                                                                                               
7904737                       154353684                     78489966                      Contact                                                     KATIE COTTER                                                3313 HIDALGO ST                                        Irving                        TX75062             US                            7852135610          000001431             003313        HIDALGO                     ST                IRVING                      TX750626514130C0910052DAC 1ANNN3313 HIDALGO ST                                                      CN000000000ZZZZZZZZZZZ00    98989898989898989898981            N                                                                                                                                                                                                                                                                                                                                                                                                                                                                                                                                                                                                                                                                                                                                                                                                                                                                                                                               
7904729                       142979918                     123377946                     Contact                                                     WILLIAM BATCHLER                                            1506 MARKLEY ST                                        Norristown                    PA19401             US                            6105399512          000001423             001506        MARKLEY                     ST                NORRISTOWN                  PA194012914063C0590040AAC 1DNNN1506 MARKLEY ST                                                      CN000000000ZZZZZZZZZZZ00    98989898989898989898981            N                                                                                                                                                                                                                                                                                                                                                                                                                                                                                                                                                                                                                                                                                                                                                                                                                                                                                                                               
7904727                       98972100                      118469952                     Contact                                                     JASON RITZERT                                               2382 W CLOVELLY LN                                     JACKSONVILLE                  FL32256             US                            9045158688          000001421             002382      W CLOVELLY                    LN                JACKSONVILLE                FL32256                   9    2382 W CLOVELLY LN                                                   CN000000000ZZZZZZZZZZZ00    98989898989898989898989            N                                                                                                                                                                                                                                                                                                                                                                                                                                                                                                                                                                                                                                                                                                                                                                                                                                                                                                                               
7904724                       6939589                       28594832                      Contact                                                     ERIC HERTEL                                                 24132 SE 225TH ST                                      Maple Valley                  WA98038             US                            2065953737          000001418             0024132     SE225TH                       ST                MAPLE VALLEY                WA980388406329R0080017DAC 1ANNN24132 SE 225TH ST                                                    CN000000000ZZZZZZZZZZZ00    98989898989898989898981            N                                                                                                                                                                                                                                                                                                                                                                                                                                                                                                                                                                                                                                                                                                                                                                                                                                                                                                                               
7903498                       177990208                     27909068                      Contact                                                     Jaime Monasterios                                                                                                                                  93650             US                            5597658064          000000003             00                                                          FRESNO                      CA93650                   9                                                                         CN000000000ZZZZZZZZZZZ00    98989898989898989898989            N                                                                                                                                                                                                                                                                                                                                                                                                                                                                                                                                                                                                                                                                                                                                                                                                                                                                                                                               
7903530                       178013496                     9395067                       Contact                                                     NFC SOLUTION LLC                                            1025 Veterans Memorial Hwy SE                          Mableton                      GA30126             US                            5742619808          000000035             001025        VETERANS MEMORIAL           HWY SE            MABLETON                    GA301267707999R0070061AAC 3 NNN1025 VETERANS MEMORIAL HWY SE                                        CN000000000ZZZZZZZZZZZ00    98989898989898989898983            N                                                                                                                                                                                                                                                                                                                                                                                                                                                                                                                                                                                                                                                                                                                                                                                                                                                                                                                               
7903586                       178013792                     107288641                     Contact                                                     CMS AUTO SALES                                              696 Winter St                                          Lucedale                      MS39452             US                                                000000091             00696         WINTER                      ST                LUCEDALE                    MS394525790961C0010097AAB 1JNNN696 WINTER ST                                                        CN000000000ZZZZZZZZZZZ00    98989898989898989898981            N                                                                                                                                                                                                                                                                                                                                                                                                                                                                                                                                                                                                                                                                                                                                                                                                                                                                                                                               
7904052                       178018057                     126612812                     Contact                                                     LOUISIANA DEALER SERVICES INS INC.                          514 Oak Ridge Way                                      Pearl                         MS39208             US                                                000000557             00514         OAK RIDGE                   WAY               PEARL                       MS392088077141R0360089AAC 1ANNN514 OAK RIDGE WAY                                                    CN000000000ZZZZZZZZZZZ00    98989898989898989898981            N                                                                                                                                                                                                                                                                                                                                                                                                                                                                                                                                                                                                                                                                                                                                                                                                                                                                                                                               
7904214                       178020268                     126625568                     Contact                                                     Doyle Nissan                                                6 Mead Ter                                             Glen Ridge                    NJ07028             US                                                000000719             006           MEAD                        TER               GLEN RIDGE                  NJ070281423067C0080048AAC 1DNNN6 MEAD TER                                                           CN000000000ZZZZZZZZZZZ00    98989898989898989898981            N                                                                                                                                                                                                                                                                                                                                                                                                                                                                                                                                                                                                                                                                                                                                                                                                                                                                                                                               
7904750                       167505378                     120262795                     Contact                                                     BRIAN PICKENS                                               1718 44th St                                           Pennsauken                    NJ08110             US                                                000000829             001718        44TH                        ST                PENNSAUKEN                  NJ081103617184C0530045AAC 1DNNN1718 44TH ST                                                         CN000000000ZZZZZZZZZZZ00    98989898989898989898981            N                                                                                                                                                                                                                                                                                                                                                                                                                                                                                                                                                                                                                                                                                                                                                                                                                                                                                                                               
7904806                       172866732                     117797629                     Contact                                                     STEUDE NAZAIRE                                              11 Clifford Ave                                        Stoughton                     MA02072             US                                                000000885             0011          CLIFFORD                    AVE               STOUGHTON                   MA020722411119C0080214AAC 1 NNN11 CLIFFORD AVE                                                      CN000000000ZZZZZZZZZZZ00    98989898989898989898981            N                                                                                                                                                                                                                                                                                                                                                                                                                                                                                                                                                                                                                                                                                                                                                                                                                                                                                                                               
7904803                       171125630                     53510201                      Contact                                                     LOREN TOWNSEND                                              169 Pennsylvania Ave                                   Louisville                    KY40206             US                            5027418652          000000882             00169         PENNSYLVANIA                AVE               LOUISVILLE                  KY402062717696C0930005AAC 1DNNN169 PENNSYLVANIA AVE                                                 CN000000000ZZZZZZZZZZZ00    98989898989898989898981            N                                                                                                                                                                                                                                                                                                                                                                                                                                                                                                                                                                                                                                                                                                                                                                                                                                                                                                                               
7904800                       167509009                     120264092                     Contact                                                     RAFAEL SERRET                                               15325 Pine St                                          Santa Fe                      TX77517             US                            7143926912          000000879             0015325       PINE                        ST                SANTA FE                    TX775172819256R0060019AAC 1ANNN15325 PINE ST                                                        CN000000000ZZZZZZZZZZZ00    98989898989898989898981            N                                                                                                                                                                                                                                                                                                                                                                                                                                                                                                                                                                                                                                                                                                                                                                                                                                                                                                                               
7904794                       162215828                     52682594                      Contact                                                     SOS UM                                                      507 E FANNIN ST                                        De Kalb                       TX75559             US                            9035597513          000000873             00507       E FANNIN                      ST                DE KALB                     TX755591838072C0020187AAC 1DNNN507 E FANNIN ST                                                      CN000000000ZZZZZZZZZZZ00    98989898989898989898981            N                                                                                                                                                                                                                                                                                                                                                                                                                                                                                                                                                                                                                                                                                                                                                                                                                                                                                                                               
7904793                       162124760                     113442467                     Contact                                                     DEE CALHOUN                                                 PO Box 214                                             Mineola                       TX75773             US                            9034743305          000000872             00            PO BOX 214                                    MINEOLA                     TX757730214149B0020002AAC 1 NNNPO BOX 214                                                           CN000000000ZZZZZZZZZZZ00    98989898989898989898981            N                                                                                                                                                                                                                                                                                                                                                                                                                                                                                                                                                                                                                                                                                                                                                                                                                                                                                                                               
7904785                       142072340                     83802282                      Contact                                                     NICHOLETTE EARL                                             3503 W 6925 S                                          West Jordan                   UT84084             US                            8019646569          000000864             003503      W 6925                            S             WEST JORDAN                 UT840841738034C0030157DAC 1ANNN3503 W 6925 S                                                        CN000000000ZZZZZZZZZZZ00    98989898989898989898981            N                                                                                                                                                                                                                                                                                                                                                                                                                                                                                                                                                                                                                                                                                                                                                                                                                                                                                                                               
7904770                       178014060                     123923489                     Contact                                                                                                                 6141 CATHELA AVE                                       CYPRESS                       CA90630             US                                                000000849             006141        CATHELA                     AVE               CYPRESS                     CA90630                   9    6141 CATHELA AVE                                                     CN000000000ZZZZZZZZZZZ00    98989898989898989898989            N                                                                                                                                                                                                                                                                                                                                                                                                                                                                                                                                                                                                                                                                                                                                                                                                                                                                                                                               
7904768                       176030340                     122775999                     Contact                                                     PETER KOSINSKI                                              1042 Terrace Blvd                                      Ewing                         NJ08618             US                                                000000847             001042        TERRACE                     BLVD              EWING                       NJ086181967428C0230035AAC 1DNNN1042 TERRACE BLVD                                                    CN000000000ZZZZZZZZZZZ00    98989898989898989898981            N                                                                                                                                                                                                                                                                                                                                                                                                                                                                                                                                                                                                                                                                                                                                                                                                                                                                                                                               
7904763                       174271756                     124417883                     Contact                                                     ABRAHAM MOJICA                                              310 E 1st St                                           Azusa                         CA91702             US                            6262606710          000000842             00310       E 1ST                         ST                AZUSA                       CA917023644103C0270034AAC 1DNNN310 E 1ST ST                                                         CN000000000ZZZZZZZZZZZ00    98989898989898989898981            N                                                                                                                                                                                                                                                                                                                                                                                                                                                                                                                                                                                                                                                                                                                                                                                                                                                                                                                               
7904755                       171601988                     67495570                      Contact                                                     BERT LOWRY                                                  412 CASHION RD                                         Wichita Falls                 TX76305             US                                                000000834             00412         CASHION                     RD                WICHITA FALLS               TX763056121126R0070053DAC 1ANNN412 CASHION RD                                                       CN000000000ZZZZZZZZZZZ00    98989898989898989898981            N                                                                                                                                                                                                                                                                                                                                                                                                                                                                                                                                                                                                                                                                                                                                                                                                                                                                                                                               
7904412                       143867853                     126575695                     Contact                                                     CAMERON HAWKINS                                             3591 Quiet Dr                                          Sarasota                      FL34240             US                            7276876477          000001106             003591        QUIET                       DR                SARASOTA                    FL342402714913R0270461AAB 1JNNN3591 QUIET DR                                                        CN000000000ZZZZZZZZZZZ00    98989898989898989898981            N                                                                                                                                                                                                                                                                                                                                                                                                                                                                                                                                                                                                                                                                                                                                                                                                                                                                                                                               
7904422                       175057777                     126625698                     Contact                                                     matthew othon                                               13754 N Lincoln Blvd                                   Edmond                        OK73013             US                            4053144362          000001116             0013754     N LINCOLN                     BLVD              EDMOND                      OK730133414545R0800254AAB 1JNNN13754 N LINCOLN BLVD                                                 CN000000000ZZZZZZZZZZZ00    98989898989898989898981            N                                                                                                                                                                                                                                                                                                                                                                                                                                                                                                                                                                                                                                                                                                                                                                                                                                                                                                                               
7904516                       168070545                     120477716                     Contact                                                     SAMUEL SANTANA QUIROZ                                       218 E Broadway St                                      Del Rio                       TX78840             US                            8304888209          000001210             00218       E BROADWAY                    ST                DEL RIO                     TX788405541189C0280106DAB 1LNNN218 E BROADWAY ST                                                    CN000000000ZZZZZZZZZZZ00    98989898989898989898981            N                                                                                                                                                                                                                                                                                                                                                                                                                                                                                                                                                                                                                                                                                                                                                                                                                                                                                                                               
7904503                       46480632                      36076288                      Contact                                                     ANGEL MURILLO                                               1609 1/2 S GREENVILLE ST                               Santa Ana                     CA92704             US                            7143769365          000001197             001609 1/2  S GREENVILLE                  ST                SANTA ANA                   CA927044001094C0110011AAC 1DNNN1609 1/2 S GREENVILLE ST                                             CN000000000ZZZZZZZZZZZ00    98989898989898989898981            N                                                                                                                                                                                                                                                                                                                                                                                                                                                                                                                                                                                                                                                                                                                                                                                                                                                                                                                               
7904427                       177986412                     126613415                     Contact                                                     LAURA ARNOLDUSSEN                                           1400 David Dr # 7                                      Estes Park                    CO80517             US                            3039611709          000001121             001400        DAVID                       DR    #   7       ESTES PARK                  CO805179201007H0790333AAB 2JNNN1400 DAVID DR                                 # 7                    CN000000000ZZZZZZZZZZZ00    98989898989898989898982            N                                                                                                                                                                                                                                                                                                                                                                                                                                                                                                                                                                                                                                                                                                                                                                                                                                                                                                                               
7904937                       31013143                                                    Dealer                                                      LORENZO NISSAN                                              30505 S DIXIE HWY                                      HOMESTEAD                     FL33030             US                            7866521020          000001016             0030505     S FEDERAL                     HWY               HOMESTEAD                   FL330305012058C0070152AAB 1LNNN30505 S FEDERAL HWY                                                  CN000000000ZZZZZZZZZZZ00    98989898989898989898981            N                                                                                                                                                                                                                                                                                                                                                                                                                                                                                                                                                                                                                                                                                                                                                                                                                                                                                                                               
7904930                       178019785                     126625402                     Contact                                                     Robert Pelland                                              98 PEPPERPLACE                                         ballston spa                  NY12020             US                                                000001009             0098          PEPPERPLACE                                   BALLSTON SPA                NY12020                   9    98 PEPPERPLACE                                                       CN000000000ZZZZZZZZZZZ00    98989898989898989898989            N                                                                                                                                                                                                                                                                                                                                                                                                                                                                                                                                                                                                                                                                                                                                                                                                                                                                                                                               
7904924                       178014170                     73223367                      Contact                                                     HOANG T.N                                                   2140 PEDRO AVE                                         Milpitas                      CA95035             US                                                000001003             002140        PEDRO                       AVE               MILPITAS                    CA950356128407C0330014AAC 1ANNN2140 PEDRO AVE                                                       CN000000000ZZZZZZZZZZZ00    98989898989898989898981            N                                                                                                                                                                                                                                                                                                                                                                                                                                                                                                                                                                                                                                                                                                                                                                                                                                                                                                                               
7904909                       172342106                     119628415                     Contact                                                     ALDA ANAYA                                                  15017 Parkway Meadows Dr                               Alexander                     AR72002             US                            5017653776          000000988             0015017       PARKWAY MEADOWS             DR                ALEXANDER                   AR720021828172R0080187AAC 1BNNN15017 PARKWAY MEADOWS DR                                             CN000000000ZZZZZZZZZZZ00    98989898989898989898981            N                                                                                                                                                                                                                                                                                                                                                                                                                                                                                                                                                                                                                                                                                                                                                                                                                                                                                                                               
7904901                       164840715                     2151369                       Contact                                                     ADZIJA VULIC                                                3925 Carousel Dr                                       Northbrook                    IL60062             US                            7738755440          000000980             003925        CAROUSEL                    DR                NORTHBROOK                  IL600627534250C0300098DAC 1ANNN3925 CAROUSEL DR                                                     CN000000000ZZZZZZZZZZZ00    98989898989898989898981            N                                                                                                                                                                                                                                                                                                                                                                                                                                                                                                                                                                                                                                                                                                                                                                                                                                                                                                                               
7904900                       164326673                     12161456                      Contact                                                     LISA HARWARD                                                498 Reece Dr                                           Hoschton                      GA30548             US                            7705966911          000000979             12498         REECE                       DR                HOSCHTON                    GA305481390980R0220125AAC 1ANNN498 REECE DR                                                         CN000000000ZZZZZZZZZZZ00    98989898989898989898981            N                                                                                                                                                                                                                                                                                                                                                                                                                                                                                                                                                                                                                                                                                                                                                                                                                                                                                                                               
7904885                       143624440                     5143261                       Contact                                                     NEAL CAPPS                                                  117 Hunters Way                                        Carrollton                    GA30116             US                            7703168386          000000964             00117         HUNTERS                     WAY               CARROLLTON                  GA301161890173C0130163AAC 1ANNN117 HUNTERS WAY                                                      CN000000000ZZZZZZZZZZZ00    98989898989898989898981            N                                                                                                                                                                                                                                                                                                                                                                                                                                                                                                                                                                                                                                                                                                                                                                                                                                                                                                                               
7904882                       92304070                      120508654                     Contact                                                     SPENCER PRESTON                                             10 El Camino Real                                      Chelsea                       AL35043             US                            7067997272          000000961             0010          EL CAMINO REAL                                CHELSEA                     AL350436214101R0030050AAC 1ANNN10 EL CAMINO REAL                                                    CN000000000ZZZZZZZZZZZ00    98989898989898989898981            N                                                                                                                                                                                                                                                                                                                                                                                                                                                                                                                                                                                                                                                                                                                                                                                                                                                                                                                               
7904875                       178015259                     126623964                     Contact                                                     BRADLEY WESTDYKE                                            4004 Weston Rd                                         McKinney                      TX75071             US                                                000000954             004004        WESTON                      RD                MCKINNEY                    TX750717933044R0040151AAC 1ANNN4004 WESTON RD                                                       CN000000000ZZZZZZZZZZZ00    98989898989898989898981            N                                                                                                                                                                                                                                                                                                                                                                                                                                                                                                                                                                                                                                                                                                                                                                                                                                                                                                                               
7904871                       178014882                     126623768                     Contact                                                     STEVE BURT                                                  718 PORT CLYDE ROAD                                    PORT CLYDE                    ME04855             US                                                000000950             00718         PORT CLYDE                  RD                PORT CLYDE                  ME04855                   7    718 PORT CLYDE RD                                                    CN000000000ZZZZZZZZZZZ00    98989898989898989898987            N                                                                                                                                                                                                                                                                                                                                                                                                                                                                                                                                                                                                                                                                                                                                                                                                                                                                                                                               
7904868                       178013594                     126623176                     Contact                                                     JOSEPH STYLES FOR MILES                                     25 Pawan Cir                                           Lake Katrine                  NY12449             US                                                000000947             0025          PAWAN                       CIR               LAKE KATRINE                NY124495252259R0810215DAC 1ANNN25 PAWAN CIR                                                         CN000000000ZZZZZZZZZZZ00    98989898989898989898981            N                                                                                                                                                                                                                                                                                                                                                                                                                                                                                                                                                                                                                                                                                                                                                                                                                                                                                                                               
7904865                       177050981                     115671095                     Contact                                                     MEAGAN CHARVET                                              6024 E 47th Pl                                         Yuma                          AZ85365             US                                                000000944             006024      E 47TH                        PL                YUMA                        AZ853656359244R0380141DAC 1DNNN6024 E 47TH PL                                                       CN000000000ZZZZZZZZZZZ00    98989898989898989898981            N                                                                                                                                                                                                                                                                                                                                                                                                                                                                                                                                                                                                                                                                                                                                                                                                                                                                                                                               
7904864                       176010781                     125549152                     Contact                                                     ROSA CARDOZA-GALVEZ                                         8345 Switzer St                                        Overland Park                 KS66214             US                                                000000943             008345        SWITZER                     ST                OVERLAND PARK               KS662141663456C0110136AAC 1ANNN8345 SWITZER ST                                                      CN000000000ZZZZZZZZZZZ00    98989898989898989898981            N                                                                                                                                                                                                                                                                                                                                                                                                                                                                                                                                                                                                                                                                                                                                                                                                                                                                                                                               
7904861                       175435389                     125069491                     Contact                                                     JERMEY BRETON                                               311 E Pershing Ave                                     Lebanon                       PA17042             US                                                000000940             00311       E PERSHING                    AVE               LEBANON                     PA170427638110C0150014AAC 1DNNN311 E PERSHING AVE                                                   CN000000000ZZZZZZZZZZZ00    98989898989898989898981            N                                                                                                                                                                                                                                                                                                                                                                                                                                                                                                                                                                                                                                                                                                                                                                                                                                                                                                                               
7904859                       174820387                     90460873                      Contact                                                     EMILY NEISIG                                                2830 COMMUNITY AVE                                     LA Crescenta                  CA91214             US                            2817023943          000000938             002830        COMMUNITY                   AVE               LA CRESCENTA                CA912143405308C0010004DAC 1DNNN2830 COMMUNITY AVE                                                   CN000000000ZZZZZZZZZZZ00    98989898989898989898981            N                                                                                                                                                                                                                                                                                                                                                                                                                                                                                                                                                                                                                                                                                                                                                                                                                                                                                                                               
7904853                       173734134                     115472145                     Contact                                                     KRISTA FOLGERT                                              21528 Paddock Rd                                       Fort Riley                    KS66442             US                            8155292382          000000932             0021528       PADDOCK                     RD                FORT RILEY                  KS664422752282C0050535AAC 1ANNN21528 PADDOCK RD                                                     CN000000000ZZZZZZZZZZZ00    98989898989898989898981            N                                                                                                                                                                                                                                                                                                                                                                                                                                                                                                                                                                                                                                                                                                                                                                                                                                                                                                                               
7904852                       173625120                     123227074                     Contact                                                     ASHRAF YOUNIS                                               no address                                             macon                         GA31032             US                            4784616061          000000931             00          N ADDRESS                                       MACON                       GA31032                   9    N ADDRESS                                                            CN000000000ZZZZZZZZZZZ00    98989898989898989898989            N                                                                                                                                                                                                                                                                                                                                                                                                                                                                                                                                                                                                                                                                                                                                                                                                                                                                                                                               
7904850                       172488747                     4901155                       Contact                                                     SETH OLSON                                                  12112 Forge Ln                                         Bowie                         MD20715             US                                                000000929             0012112       FORGE                       LN                BOWIE                       MD207152321124C0080083DAC 1DNNN12112 FORGE LN                                                       CN000000000ZZZZZZZZZZZ00    98989898989898989898981            N                                                                                                                                                                                                                                                                                                                                                                                                                                                                                                                                                                                                                                                                                                                                                                                                                                                                                                                               
7904847                       171065679                     12281914                      Contact                                                     FRANSISCO PRADO                                             7605 RED OAK DR                                        Plainfield                    IL60586             US                                                000000926             007605        RED OAK                     DR                PLAINFIELD                  IL605862534056R0030007AAC 1ANNN7605 RED OAK DR                                                      CN000000000ZZZZZZZZZZZ00    98989898989898989898981            N                                                                                                                                                                                                                                                                                                                                                                                                                                                                                                                                                                                                                                                                                                                                                                                                                                                                                                                               
7904845                       170673239                     124974280                     Contact                                                     BUN MATIC                                                   7403 Duchess Dr                                        Whittier                      CA90606             US                                                000000924             007403        DUCHESS                     DR                WHITTIER                    CA906061808039C0540080AAC 1DNNN7403 DUCHESS DR                                                      CN000000000ZZZZZZZZZZZ00    98989898989898989898981            N                                                                                                                                                                                                                                                                                                                                                                                                                                                                                                                                                                                                                                                                                                                                                                                                                                                                                                                               
7904843                       169090653                     122687161                     Contact                                                     Melba Spencer                                               5903 Copperleaf Commons Ct # C                         Charlotte                     NC28277             US                            7049064684          000000922             005903        COPPERLEAF COMMONS          CT    #   C       CHARLOTTE                   NC282772058036R1220139DAC 2ANNN5903 COPPERLEAF COMMONS CT                    # C                    CN000000000ZZZZZZZZZZZ00    98989898989898989898982            N                                                                                                                                                                                                                                                                                                                                                                                                                                                                                                                                                                                                                                                                                                                                                                                                                                                                                                                               
7904834                       155294252                     113129901                     Contact                                                     MATT RUTHERFORD                                             1521 Rhem Ave                                          New Bern                      NC28560             US                                                000000913             001521        RHEM                        AVE               NEW BERN                    NC285605407210C0030092DAC 1DNNN1521 RHEM AVE                                                        CN000000000ZZZZZZZZZZZ00    98989898989898989898981            N                                                                                                                                                                                                                                                                                                                                                                                                                                                                                                                                                                                                                                                                                                                                                                                                                                                                                                                               
7904822                       82647761                      116636045                     Contact                                                     JOHN BROWNSON                                               267 S San Pedro St Unit 502                            Los Angeles                   CA90012             US                            8188436906          000000901             00267       S SAN PEDRO                   ST    UNIT502     LOS ANGELES                 CA900123880270C0170318AAC 1CNNN267 S SAN PEDRO ST                            UNIT 502               CN000000000ZZZZZZZZZZZ00    98989898989898989898981            N                                                                                                                                                                                                                                                                                                                                                                                                                                                                                                                                                                                                                                                                                                                                                                                                                                                                                                                               
7904815                       177512691                     126489510                     Contact                                                     18338880395 FEDEX                                           3828 NW 34 ST                                          MIAMI                         FL33219             US                                                000000894             003828      NW34                          ST                MIAMI                       FL33219                   7    3828 NW 34 ST                                                        CN000000000ZZZZZZZZZZZ00    98989898989898989898987            N                                                                                                                                                                                                                                                                                                                                                                                                                                                                                                                                                                                                                                                                                                                                                                                                                                                                                                                               
7904143                       178018458                     18614281                      Contact                                                     MICRO-MECH, INC.                                            33 TURNPIKE RD                                         Ipswich                       MA01938             US                            9783562966          000000648             0033          TURNPIKE                    RD                IPSWICH                     MA019381048330C0100057AAB 1INNN33 TURNPIKE RD                                                       AM001030394AAAAAZAABAF10    00000000009800000000001A1M1YYI BBNNN001030394Micro-Mech  Inc                                             33 Turnpike Rd           Ipswich             MA019381048P O Box 229              Ipswich             MA019380229B00233000413353910000   250091120   9783562966Takehiko      Hayashi                     President                     A1A60000000077188942000000048000000004801976030690572516000000000965263445Santa Clara         CA                  030288433979 220123                   0Mnrls Grnd Treated 32950000                                                                                                                Seiji         Minoura                     Treasurer                     A1B0John         EBeaucher          Mr        Vice-President                A5D8Maguire       Michael                     Engineer                      D916Gail          Devine                      Plant Manager                 H7N9
7904549                       178016482                     18614281                      Contact                                                     Micro Mech                                                  33 TURNPIKE RD                                         Ipswich                       MA01938             US                            6034014778          000001243             0033          TURNPIKE                    RD                IPSWICH                     MA019381048330C0100057AAB 1INNN33 TURNPIKE RD                                                       AM001030394AAAAAZFABAF10    00000000009800000000001A1M1YYI BBNNN001030394Micro-Mech  Inc                                             33 Turnpike Rd           Ipswich             MA019381048P O Box 229              Ipswich             MA019380229B00233000413353910000   250091120   9783562966Takehiko      Hayashi                     President                     A1A60000000077188942000000048000000004801976030690572516000000000965263445Santa Clara         CA                  030288433979 220123                   0Mnrls Grnd Treated 32950000                                                                                                                Seiji         Minoura                     Treasurer                     A1B0John         EBeaucher          Mr        Vice-President                A5D8Maguire       Michael                     Engineer                      D916Gail          Devine                      Plant Manager                 H7N9
7904655                       178025430                     122613194                     Contact                                                     Tracie Kiachin                                              4795 Stevens Creek Blvd                                Santa Clara                   CA95051             US                                                000001349             004795        STEVENS CREEK               BLVD              SANTA CLARA                 CA950516760957C0190025AAB 1LNNN4795 STEVENS CREEK BLVD                                              AX001466577FAAAAZZAFZZ04    00000000009898000000981            N                                                                                                                                                                                                                                                                                                                                                                                                                                                                                                                                                                                                                                                                                                                                                                                                                                                                                                                               
7904177                       178019735                     123745148                     Contact                                                     COLE AUTOMOTIVE GROUP                                       460 GREEN VALLEYSUITE 5                                BLUEFIELD                     WV24701             US                                                000000682             00460         GREEN VALLEY                RD    #   5       BLUEFIELD                   WV24701       R002     A  4    460 GREEN VALLEY RD                           # 5                    AM001581565AAFAAZZABBA09    00000000009898000000004A9M1NY   B NC001581565Cole Automotive Group  LLC    Bill Cole Automall            Highway 460 Green Vly    Bluefield           WV24701    P O Box 1810             Bluefield           WV247015810B019  000954921077000   540550000   3043270511William       Cole              Mr        Member                        XZA10000000537602162000000152000000013002000100001581565001581565000000000Bluefield           WV                  010115894286 210110M                  0New Used Car Dlrs  55119901            50130000            30899926                                                                        Heather       Coburn            Ms        Director of Finance           E6FGZackary       Frame                       Finance Manager               E7L9Ryne          Shuff                       Sales Manager                 I7P1Jared         Wyrick            Mr        Sales Associate               I898
7903772                       178015020                     7043539                       Contact                                                     F D LAWRENCE ELECTRIC CO.                                   3450 BEEKMAN ST                                        Cincinnati                    OH45223             US                                                000000277             003450        BEEKMAN                     ST                CINCINNATI                  OH452232743503C0570165AAB 1LNNN3450 BEEKMAN ST                                                      AD001922020AAAAAZZAFBA10    00000000009898000000001            N                                                                                                                                                                                                                                                                                                                                                                                                                                                                                                                                                                                                                                                                                                                                                                                                                                                                                                                               
7903771                       178015019                     7043539                       Contact                                                     F D LAWRENCE ELECTRIC CO.                                   3450 BEEKMAN ST                                        Cincinnati                    OH45223             US                                                000000276             003450        BEEKMAN                     ST                CINCINNATI                  OH452232743503C0570165AAB 1LNNN3450 BEEKMAN ST                                                      AD001922020AAAAAZZAFBA10    00000000009898000000001            N                                                                                                                                                                                                                                                                                                                                                                                                                                                                                                                                                                                                                                                                                                                                                                                                                                                                                                                               
7904374                       178025274                     12728921                      Contact                                                     JDD INVESTMENT CO.                                          300 Park Blvd Ste 300                                  Itasca                        IL60143             US                                                000001068             00300         PARK                        BLVD  STE 300     ITASCA                      IL601432664756C0070057AAB 1KNNN300 PARK BLVD                                 STE 300                AM002063617AAAAAZZAFFF10    00000000009898000000001A1  Y K B N N002063617Jdd Investment Co             McDonalds                     300 Park Blvd Ste 300    Itasca              IL601432664                                                        C00775000252344291118   170431600   6306549100John          Dakajos           Mr        President                     A1A60000000174186852000000615000000061502010001000000000000000000000000000                                                   9 220123M                  0Eating Places      58120307                                                                                                                Herbert       Fischer           Mr        Chief Financial Officer       A1A9Wayne         Adamczyk          Mr        Director                      Z699                                                                                                                                                        
7903957                       178017409                     112876941                     Contact                                                     100 AUTO WHOLESALERS                                        21 Washington St                                       Attleboro                     MA02703             US                                                000000462             0021          WASHINGTON                  ST    STE 8       ATTLEBORO                   MA027035556089C0200046AAB 1JNNN21 WASHINGTON ST                              STE 8                  AM002078674BAAAAZZAFZA08    00000000009898000000981A3  D   C N N002078674100 Prcent Auto Wholesalers LP                              21 Washington St         Attleboro           MA027035545                                                        C02099000412030439466   250056480   5083997999Angelo        Pena              Mr        President                     A1A60000000025000000000000001000000000102016001000000000000000000000000000                                                   9 220206M                  0New Used Car Dlrs  55110000            50120000                                                                                                                                                                                                                                                                                                                                                                                                            
7903851                       178015522                     2927216                       Contact                                                     CALIFORNIA MOTORS DIRECT                                    2345 N GRAND AVE                                       Santa Ana                     CA92705             US                                                000000356             002345      N GRAND                       AVE               SANTA ANA                   CA927058749991C0330002DAC 3 NNN2345 N GRAND AVE                                                     AM002152216AAAAAZZAFBA10    00000000009898000000003A3  D   C N N002152216Califrnia Mtrs Drect Fullerton                              2345 N Grand Ave         Santa Ana           CA927058749                                                        C03399000095087289034   060595945   7145156100David         Aleman            Mr        Owner                         A0A10000000017497012000000011200000001122016001000000000000000000000000000                                                   9 220123M                  0Automotive Dlrs Ne 55990100            55210000                                                                                                                                                                                                                                                                                                                                                                                                            
7903922                       178017173                     72720695                      Contact                                                     CARMAX WOODBRIDGE                                           2350 RESEARCH CT                                       Woodbridge                    VA22192             US                                                000000427             002350        RESEARCH                    CT                WOODBRIDGE                  VA221924632504C0100046AAB 1LNNN2350 RESEARCH CT                                                     AM002259949BAAAAZZAFZZ08    00000000009898000000981A1  Y L B N N002259949Carmax  Inc                   Carmax                        2350 Research CT         Woodbridge          VA221924632                                                        C01050000916938723628   511538840   7035766550                                                                            000000000000000 000000000 0000001992    201023890577023890577000000000Richmond            VA                  010034787128 220123                   0Used Car Dealers   55219902                                                                                                                Daevon       NBryant                      Sales Staff                   I9GMJimmy         Nativi            Mr        Sales Staff                   I9GM                                                                                                                                                        
7904610                       178015418                     126624057                     Contact                                                     LARRY EDWARDS                                               99 Aldan Ave Unit 404                                  Glen Mills                    PA19342             US                                                000001304             0099          ALDAN                       AVE   UNIT404     GLEN MILLS                  PA193422701993R0090002AAC 3 NNN99 ALDAN AVE                                  UNIT 404               AM002342616AFFAAZZAFZZ07    04000000009898000000983A1  Y I B N C002342616Speakman Company              Speakman                      51 Lacrue Ave            Glen Mills          PA193421042                                                        R01251000753462525445   420456160   8005372107Robert        Knoll             Mr        Chief Executive Officer       A1A70000000187013942000000110000000011001869000000000000000000000000000000                                                   9 220215M                  0Plbg Fxtr Ftngs TR 34320000            34310100                                                                                            Rob           Cook              Mr        President                     A1A6Rodman        Ward              Mr        Chief Executive Officer       A1A7Bryan         Schlack           Mr        Chief Financial Officer       A1A9Michael       Trenham           Mr        Chief Financial Officer       A1A9
7904334                       178024679                     97969394                      Contact                                                     MERCK & CO., INC.                                           770 SUMNEYTOWN PIKE                                    West Point                    PA19486             US                                                000001028             00770         SUMNEYTOWN                  PIKE              WEST POINT                  PA194868000707R7770000DAB XLNNN770 SUMNEYTOWN PIKE                                                  AM002387926AAAAAZZAZFZ10    0200000000989800009800XAX  Y L B N N002387926Merck Sharp & Dohme Corp      Merck                         770 Sumneytown Pike      West Point          PA194868000                                                        R77770000756827087445   420916160   2156526777Bill          Taylor            Mr        Manager                       Z799000000000000000 000000000 0000000100    200054554290001317601000000000Kenilworth          NJ                  020094483219 211205M                  0Phrmctcl Preprtns  28340000                                                                                                                Amy           Young             Ms        Account Executive             Z900Semler        Erdelsky                    Supervisor                    Z938Donna         McKenna           Ms        Clerk                         Z939Kimberly      Bentz             Ms        Associate                     Z940
7903838                       178015415                     61780589                      Contact                                                     UNION PARK AUTO                                             901 N UNION ST                                         Wilmington                    DE19805             US                                                000000343             00901       N UNION                       ST                WILMINGTON                  DE198055325011C0090048AABT1LNNN901 N UNION ST                                                       AM002482693AAFAAZZAFZA09    00030300009898000000981A1M1YYL BBNNN002482693Union Park Auto Group Inc     Union Park Honda              1704 Pennsylvania Ave    Wilmington          DE198064020P O Box 2508             Wilmington          DE198050508B09904000154999599652   100039160   3026587245Frank         Ursomarso      Jr Mr        Vice-President                A5D80000000678662792000000170000000015001955101002482693002482693000000000Wilmington          DE                  010174769959 201215M                  0New Used Car Dlrs  55119901                                                                                                                Jim           Cahill            Mr        Manager                       Z799Tim           Szedlund          Mr        Manager                       Z799Eric         VDyke              Mr        Manager                       Z799Scott         Woodruff          Mr        Manager                       Z799
7904237                       178022704                     30630160                      Contact                                                     ARI LTD, BRANDON                                            4001 LEADENHALL RD                                     Mount Laurel                  NJ08054             US                                                000000742             004001        LEADENHALL                  RD                MOUNT LAUREL                NJ080544611010R0580003AABT1LNNN4001 LEADENHALL RD                                                   AD002504553BAAAAZZAFZZ08    02000000009898000000981            N                                                                                                                                                                                                                                                                                                                                                                                                                                                                                                                                                                                                                                                                                                                                                                                                                                                                                                                               
